{
  "contractName": "USDRateOracle",
  "abi": [
    {
      "inputs": [],
      "stateMutability": "nonpayable",
      "type": "constructor"
    },
    {
      "anonymous": false,
      "inputs": [
        {
          "indexed": false,
          "internalType": "address",
          "name": "sender",
          "type": "address"
        }
      ],
      "name": "RateUpdate",
      "type": "event"
    },
    {
      "anonymous": false,
      "inputs": [
        {
          "indexed": false,
          "internalType": "uint256",
          "name": "req_rate",
          "type": "uint256"
        }
      ],
      "name": "UpdatedRate",
      "type": "event"
    },
    {
      "inputs": [],
      "name": "USD_rate",
      "outputs": [
        {
          "internalType": "uint256",
          "name": "",
          "type": "uint256"
        }
      ],
      "stateMutability": "view",
      "type": "function",
      "constant": true
    },
    {
      "inputs": [],
      "name": "timestamp",
      "outputs": [
        {
          "internalType": "string",
          "name": "",
          "type": "string"
        }
      ],
      "stateMutability": "view",
      "type": "function",
      "constant": true
    },
    {
      "inputs": [],
      "name": "unix_timestump",
      "outputs": [
        {
          "internalType": "uint256",
          "name": "",
          "type": "uint256"
        }
      ],
      "stateMutability": "view",
      "type": "function",
      "constant": true
    },
    {
      "inputs": [],
      "name": "requestNewRate",
      "outputs": [],
      "stateMutability": "nonpayable",
      "type": "function"
    },
    {
      "inputs": [
        {
          "internalType": "uint256",
          "name": "req_rate",
          "type": "uint256"
        },
        {
          "internalType": "uint256",
          "name": "uix_timestump",
          "type": "uint256"
        },
        {
          "internalType": "string",
          "name": "tstamp",
          "type": "string"
        }
      ],
      "name": "saveNewRate",
      "outputs": [],
      "stateMutability": "nonpayable",
      "type": "function"
    },
    {
      "inputs": [],
      "name": "getRate",
      "outputs": [
        {
          "internalType": "uint256",
          "name": "",
          "type": "uint256"
        },
        {
          "internalType": "uint256",
          "name": "",
          "type": "uint256"
        },
        {
          "internalType": "string",
          "name": "",
          "type": "string"
        }
      ],
      "stateMutability": "view",
      "type": "function",
      "constant": true
    }
  ],
  "bytecode": "0x608060405234801561001057600080fd5b5060008081905550604051806020016040528060008152506001908051906020019061003d92919061004b565b50600060028190555061014f565b8280546100579061011d565b90600052602060002090601f01602090048101928261007957600085556100c0565b82601f1061009257805160ff19168380011785556100c0565b828001600101855582156100c0579182015b828111156100bf5782518255916020019190600101906100a4565b5b5090506100cd91906100d1565b5090565b5b808211156100ea5760008160009055506001016100d2565b5090565b7f4e487b7100000000000000000000000000000000000000000000000000000000600052602260045260246000fd5b6000600282049050600182168061013557607f821691505b60208210811415610149576101486100ee565b5b50919050565b6107868061015e6000396000f3fe608060405234801561001057600080fd5b50600436106100625760003560e01c8063679aefce14610067578063ae6d40b414610087578063b158a07b146100a3578063b612b1d2146100c1578063b80777ea146100cb578063eab1c5c0146100e9575b600080fd5b61006f610107565b60405161007e93929190610434565b60405180910390f35b6100a1600480360381019061009c91906105e7565b6101ab565b005b6100ab61020c565b6040516100b89190610656565b60405180910390f35b6100c9610212565b005b6100d361024b565b6040516100e09190610671565b60405180910390f35b6100f16102d9565b6040516100fe9190610656565b60405180910390f35b60008060606000546002546001808054610120906106c2565b80601f016020809104026020016040519081016040528092919081815260200182805461014c906106c2565b80156101995780601f1061016e57610100808354040283529160200191610199565b820191906000526020600020905b81548152906001019060200180831161017c57829003601f168201915b50505050509050925092509250909192565b80600190805190602001906101c19291906102df565b5081600281905550826000819055507f46c417cbadef7db24044727c6b0a9af26d1d57506b11199d1a03adddc6525b24836040516101ff9190610656565b60405180910390a1505050565b60025481565b7fc1c8bd794a67c646d07f758c4b84279eeefe563c4f49f17990e116b324b03c41336040516102419190610735565b60405180910390a1565b60018054610258906106c2565b80601f0160208091040260200160405190810160405280929190818152602001828054610284906106c2565b80156102d15780601f106102a6576101008083540402835291602001916102d1565b820191906000526020600020905b8154815290600101906020018083116102b457829003601f168201915b505050505081565b60005481565b8280546102eb906106c2565b90600052602060002090601f01602090048101928261030d5760008555610354565b82601f1061032657805160ff1916838001178555610354565b82800160010185558215610354579182015b82811115610353578251825591602001919060010190610338565b5b5090506103619190610365565b5090565b5b8082111561037e576000816000905550600101610366565b5090565b6000819050919050565b61039581610382565b82525050565b600081519050919050565b600082825260208201905092915050565b60005b838110156103d55780820151818401526020810190506103ba565b838111156103e4576000848401525b50505050565b6000601f19601f8301169050919050565b60006104068261039b565b61041081856103a6565b93506104208185602086016103b7565b610429816103ea565b840191505092915050565b6000606082019050610449600083018661038c565b610456602083018561038c565b818103604083015261046881846103fb565b9050949350505050565b6000604051905090565b600080fd5b600080fd5b61048f81610382565b811461049a57600080fd5b50565b6000813590506104ac81610486565b92915050565b600080fd5b600080fd5b7f4e487b7100000000000000000000000000000000000000000000000000000000600052604160045260246000fd5b6104f4826103ea565b810181811067ffffffffffffffff82111715610513576105126104bc565b5b80604052505050565b6000610526610472565b905061053282826104eb565b919050565b600067ffffffffffffffff821115610552576105516104bc565b5b61055b826103ea565b9050602081019050919050565b82818337600083830152505050565b600061058a61058584610537565b61051c565b9050828152602081018484840111156105a6576105a56104b7565b5b6105b1848285610568565b509392505050565b600082601f8301126105ce576105cd6104b2565b5b81356105de848260208601610577565b91505092915050565b600080600060608486031215610600576105ff61047c565b5b600061060e8682870161049d565b935050602061061f8682870161049d565b925050604084013567ffffffffffffffff8111156106405761063f610481565b5b61064c868287016105b9565b9150509250925092565b600060208201905061066b600083018461038c565b92915050565b6000602082019050818103600083015261068b81846103fb565b905092915050565b7f4e487b7100000000000000000000000000000000000000000000000000000000600052602260045260246000fd5b600060028204905060018216806106da57607f821691505b602082108114156106ee576106ed610693565b5b50919050565b600073ffffffffffffffffffffffffffffffffffffffff82169050919050565b600061071f826106f4565b9050919050565b61072f81610714565b82525050565b600060208201905061074a6000830184610726565b9291505056fea264697066735822122049dbc528f9c99031c3170081fe2a171a1b313873d56ddf01a1a25cde0308928464736f6c634300080a0033",
  "immutableReferences": {},
  "source": "// SPDX-License-Identifier: MIT\npragma solidity >=0.7.0 <0.9.0;\ncontract USDRateOracle {\n  uint public USD_rate;\n  string public timestamp;\n  uint public unix_timestump;\n\n  event RateUpdate(address sender);\n  event UpdatedRate(uint req_rate);\n\n  constructor() {\n      USD_rate = 0;\n      timestamp = \"\";\n      unix_timestump = 0;\n  }\n  function requestNewRate() public {\n      emit RateUpdate(msg.sender);\n  }\n  function saveNewRate(uint req_rate, uint uix_timestump, string memory tstamp) public {\n      timestamp = tstamp;\n      unix_timestump = uix_timestump;\n      USD_rate = req_rate;\n      emit UpdatedRate(req_rate);\n  }\n  function getRate() public view returns( uint, uint, string memory) {\n      return(USD_rate, unix_timestump, timestamp);\n  }\n}\n\n",
  "sourcePath": "/home/developer/sol01/les12/HelloSol/contracts/USDRateOracle.sol",
  "compiler": {
    "name": "solc",
    "version": "0.8.10+commit.fc410830.Emscripten.clang"
  },
  "schemaVersion": "3.4.3",
  "updatedAt": "2021-12-16T14:14:08.793Z",
  "networkType": "ethereum",
  "devdoc": {
    "kind": "dev",
    "methods": {},
    "version": 1
  },
  "userdoc": {
    "kind": "user",
    "methods": {},
    "version": 1
  }
}