{
  "_format": "hh-sol-artifact-1",
  "contractName": "HelloSol",
  "sourceName": "contracts/HelloSol.sol",
  "abi": [
    {
      "inputs": [],
      "name": "getString",
      "outputs": [
        {
          "internalType": "string",
          "name": "",
          "type": "string"
        }
      ],
      "stateMutability": "view",
      "type": "function"
    },
    {
      "inputs": [],
      "name": "getValue",
      "outputs": [
        {
          "internalType": "uint256",
          "name": "",
          "type": "uint256"
        }
      ],
      "stateMutability": "view",
      "type": "function"
    },
    {
      "inputs": [
        {
          "internalType": "string",
          "name": "newString",
          "type": "string"
        }
      ],
      "name": "setString",
      "outputs": [],
      "stateMutability": "nonpayable",
      "type": "function"
    },
    {
      "inputs": [
        {
          "internalType": "uint256",
          "name": "newValue",
          "type": "uint256"
        }
      ],
      "name": "setValue",
      "outputs": [],
      "stateMutability": "nonpayable",
      "type": "function"
    }
  ],
  "bytecode": "0x608060405234801561001057600080fd5b50610571806100206000396000f3fe608060405234801561001057600080fd5b506004361061004c5760003560e01c80632096525514610051578063552410771461006f5780637fcaf6661461008b57806389ea642f146100a7575b600080fd5b6100596100c5565b6040516100669190610379565b60405180910390f35b610089600480360381019061008491906102e6565b6100cf565b005b6100a560048036038101906100a091906102a5565b6100d9565b005b6100af6100f3565b6040516100bc9190610357565b60405180910390f35b6000600154905090565b8060018190555050565b80600090805190602001906100ef929190610185565b5050565b60606000805461010290610452565b80601f016020809104026020016040519081016040528092919081815260200182805461012e90610452565b801561017b5780601f106101505761010080835404028352916020019161017b565b820191906000526020600020905b81548152906001019060200180831161015e57829003601f168201915b5050505050905090565b82805461019190610452565b90600052602060002090601f0160209004810192826101b357600085556101fa565b82601f106101cc57805160ff19168380011785556101fa565b828001600101855582156101fa579182015b828111156101f95782518255916020019190600101906101de565b5b509050610207919061020b565b5090565b5b8082111561022457600081600090555060010161020c565b5090565b600061023b610236846103b9565b610394565b90508281526020810184848401111561025357600080fd5b61025e848285610410565b509392505050565b600082601f83011261027757600080fd5b8135610287848260208601610228565b91505092915050565b60008135905061029f81610524565b92915050565b6000602082840312156102b757600080fd5b600082013567ffffffffffffffff8111156102d157600080fd5b6102dd84828501610266565b91505092915050565b6000602082840312156102f857600080fd5b600061030684828501610290565b91505092915050565b600061031a826103ea565b61032481856103f5565b935061033481856020860161041f565b61033d81610513565b840191505092915050565b61035181610406565b82525050565b60006020820190508181036000830152610371818461030f565b905092915050565b600060208201905061038e6000830184610348565b92915050565b600061039e6103af565b90506103aa8282610484565b919050565b6000604051905090565b600067ffffffffffffffff8211156103d4576103d36104e4565b5b6103dd82610513565b9050602081019050919050565b600081519050919050565b600082825260208201905092915050565b6000819050919050565b82818337600083830152505050565b60005b8381101561043d578082015181840152602081019050610422565b8381111561044c576000848401525b50505050565b6000600282049050600182168061046a57607f821691505b6020821081141561047e5761047d6104b5565b5b50919050565b61048d82610513565b810181811067ffffffffffffffff821117156104ac576104ab6104e4565b5b80604052505050565b7f4e487b7100000000000000000000000000000000000000000000000000000000600052602260045260246000fd5b7f4e487b7100000000000000000000000000000000000000000000000000000000600052604160045260246000fd5b6000601f19601f8301169050919050565b61052d81610406565b811461053857600080fd5b5056fea2646970667358221220276cc78a75929d0d9a0c077842a490c43b049261ecacdbd8ada3cbe156bf6bec64736f6c63430008040033",
  "linkReferences": {},
  "deployedLinkReferences": {}
}