{
  "_format": "hh-sol-artifact-1",
  "contractName": "IntOptimization",
  "sourceName": "contracts/IntOptimization.sol",
  "abi": [
    {
      "inputs": [
        {
          "internalType": "uint256",
          "name": "",
          "type": "uint256"
        }
      ],
      "name": "arrState",
      "outputs": [
        {
          "internalType": "int256",
          "name": "",
          "type": "int256"
        }
      ],
      "stateMutability": "view",
      "type": "function"
    },
    {
      "inputs": [],
      "name": "doCountLocal",
      "outputs": [],
      "stateMutability": "view",
      "type": "function"
    },
    {
      "inputs": [],
      "name": "doCountState",
      "outputs": [],
      "stateMutability": "nonpayable",
      "type": "function"
    },
    {
      "inputs": [],
      "name": "getValue",
      "outputs": [
        {
          "internalType": "int256",
          "name": "",
          "type": "int256"
        }
      ],
      "stateMutability": "view",
      "type": "function"
    },
    {
      "inputs": [
        {
          "internalType": "int256",
          "name": "newValue",
          "type": "int256"
        }
      ],
      "name": "setValue",
      "outputs": [],
      "stateMutability": "nonpayable",
      "type": "function"
    },
    {
      "inputs": [
        {
          "internalType": "int256",
          "name": "newValue",
          "type": "int256"
        }
      ],
      "name": "setValueNegative",
      "outputs": [],
      "stateMutability": "nonpayable",
      "type": "function"
    }
  ],
  "bytecode": "0x608060405234801561001057600080fd5b506101e2806100206000396000f3fe608060405234801561001057600080fd5b50600436106100725760003560e01c80635093dc7d116100505780635093dc7d146100975780637437040d146100aa5780639fba6335146100bd57600080fd5b806316ac3bbb14610077578063209652551461008157806343353c9014610097575b600080fd5b61007f6100c5565b005b6000545b60405190815260200160405180910390f35b61007f6100a5366004610154565b600055565b6100856100b8366004610154565b6100fd565b61007f61011e565b60005b6001548110156100fa57600280549060006100e28361016c565b919050555080806100f29061016c565b9150506100c8565b50565b6001818154811061010d57600080fd5b600091825260209091200154905081565b60015460025460005b8281101561014f57816101398161016c565b92505080806101479061016c565b915050610127565b505050565b600060208284031215610165578081fd5b5035919050565b60006000198214156101a5577f4e487b710000000000000000000000000000000000000000000000000000000081526011600452602481fd5b506001019056fea2646970667358221220ab7e0bbd7ae97445399f9419ed4e690f5887ae6d4a98785cbc6763537fbeb67664736f6c63430008040033",
  "linkReferences": {},
  "deployedLinkReferences": {}
}