{
  "contractName": "HelloSol",
  "abi": [
    {
      "inputs": [
        {
          "internalType": "string",
          "name": "newString",
          "type": "string"
        }
      ],
      "name": "setString",
      "outputs": [],
      "stateMutability": "nonpayable",
      "type": "function"
    },
    {
      "inputs": [],
      "name": "getString",
      "outputs": [
        {
          "internalType": "string",
          "name": "",
          "type": "string"
        }
      ],
      "stateMutability": "view",
      "type": "function",
      "constant": true
    },
    {
      "inputs": [
        {
          "internalType": "uint256",
          "name": "newValue",
          "type": "uint256"
        }
      ],
      "name": "setValue",
      "outputs": [],
      "stateMutability": "nonpayable",
      "type": "function"
    },
    {
      "inputs": [],
      "name": "getValue",
      "outputs": [
        {
          "internalType": "uint256",
          "name": "",
          "type": "uint256"
        }
      ],
      "stateMutability": "view",
      "type": "function",
      "constant": true
    }
  ],
  "bytecode": "0x608060405234801561001057600080fd5b50610599806100206000396000f3fe608060405234801561001057600080fd5b506004361061004c5760003560e01c80632096525514610051578063552410771461006f5780637fcaf6661461008b57806389ea642f146100a7575b600080fd5b6100596100c5565b6040516100669190610241565b60405180910390f35b6100896004803603810190610084919061029c565b6100cf565b005b6100a560048036038101906100a0919061040f565b6100d9565b005b6100af6100f3565b6040516100bc91906104e0565b60405180910390f35b6000600154905090565b8060018190555050565b80600090805190602001906100ef929190610185565b5050565b60606000805461010290610531565b80601f016020809104026020016040519081016040528092919081815260200182805461012e90610531565b801561017b5780601f106101505761010080835404028352916020019161017b565b820191906000526020600020905b81548152906001019060200180831161015e57829003601f168201915b5050505050905090565b82805461019190610531565b90600052602060002090601f0160209004810192826101b357600085556101fa565b82601f106101cc57805160ff19168380011785556101fa565b828001600101855582156101fa579182015b828111156101f95782518255916020019190600101906101de565b5b509050610207919061020b565b5090565b5b8082111561022457600081600090555060010161020c565b5090565b6000819050919050565b61023b81610228565b82525050565b60006020820190506102566000830184610232565b92915050565b6000604051905090565b600080fd5b600080fd5b61027981610228565b811461028457600080fd5b50565b60008135905061029681610270565b92915050565b6000602082840312156102b2576102b1610266565b5b60006102c084828501610287565b91505092915050565b600080fd5b600080fd5b6000601f19601f8301169050919050565b7f4e487b7100000000000000000000000000000000000000000000000000000000600052604160045260246000fd5b61031c826102d3565b810181811067ffffffffffffffff8211171561033b5761033a6102e4565b5b80604052505050565b600061034e61025c565b905061035a8282610313565b919050565b600067ffffffffffffffff82111561037a576103796102e4565b5b610383826102d3565b9050602081019050919050565b82818337600083830152505050565b60006103b26103ad8461035f565b610344565b9050828152602081018484840111156103ce576103cd6102ce565b5b6103d9848285610390565b509392505050565b600082601f8301126103f6576103f56102c9565b5b813561040684826020860161039f565b91505092915050565b60006020828403121561042557610424610266565b5b600082013567ffffffffffffffff8111156104435761044261026b565b5b61044f848285016103e1565b91505092915050565b600081519050919050565b600082825260208201905092915050565b60005b83811015610492578082015181840152602081019050610477565b838111156104a1576000848401525b50505050565b60006104b282610458565b6104bc8185610463565b93506104cc818560208601610474565b6104d5816102d3565b840191505092915050565b600060208201905081810360008301526104fa81846104a7565b905092915050565b7f4e487b7100000000000000000000000000000000000000000000000000000000600052602260045260246000fd5b6000600282049050600182168061054957607f821691505b6020821081141561055d5761055c610502565b5b5091905056fea264697066735822122088bb32d308f45c0346c119c9727ea5ffca469e6ff53ea805322fe94aef652b3a64736f6c634300080a0033",
  "immutableReferences": {},
  "source": "// SPDX-License-Identifier: MIT\npragma solidity >=0.7.0 <0.9.0;\n\ncontract HelloSol {\n    string savedString;\n    uint savedValue;\n\n    function setString( string memory newString ) public {\n        savedString = newString;\n    }\n    function getString() public view returns( string memory ) {\n        return savedString;\n    }\n    function setValue( uint newValue ) public {\n        savedValue = newValue;\n    }\n    function getValue() public view returns( uint ) {\n        return savedValue;\n    }\n}\n\n",
  "sourcePath": "/home/frolov/sol01/les07/HelloSol/contracts/HelloSol.sol",
  "compiler": {
    "name": "solc",
    "version": "0.8.10+commit.fc410830.Emscripten.clang"
  },
  "schemaVersion": "3.4.3",
  "updatedAt": "2021-12-07T14:24:13.021Z",
  "networkType": "ethereum",
  "devdoc": {
    "kind": "dev",
    "methods": {},
    "version": 1
  },
  "userdoc": {
    "kind": "user",
    "methods": {},
    "version": 1
  }
}