{
  "_format": "hh-sol-artifact-1",
  "contractName": "DrNFT",
  "sourceName": "contracts/DrNFT.sol",
  "abi": [
    {
      "inputs": [],
      "stateMutability": "nonpayable",
      "type": "constructor"
    },
    {
      "anonymous": false,
      "inputs": [
        {
          "indexed": true,
          "internalType": "address",
          "name": "owner",
          "type": "address"
        },
        {
          "indexed": true,
          "internalType": "address",
          "name": "approved",
          "type": "address"
        },
        {
          "indexed": true,
          "internalType": "uint256",
          "name": "tokenId",
          "type": "uint256"
        }
      ],
      "name": "Approval",
      "type": "event"
    },
    {
      "anonymous": false,
      "inputs": [
        {
          "indexed": true,
          "internalType": "address",
          "name": "owner",
          "type": "address"
        },
        {
          "indexed": true,
          "internalType": "address",
          "name": "operator",
          "type": "address"
        },
        {
          "indexed": false,
          "internalType": "bool",
          "name": "approved",
          "type": "bool"
        }
      ],
      "name": "ApprovalForAll",
      "type": "event"
    },
    {
      "anonymous": false,
      "inputs": [
        {
          "indexed": true,
          "internalType": "address",
          "name": "previousOwner",
          "type": "address"
        },
        {
          "indexed": true,
          "internalType": "address",
          "name": "newOwner",
          "type": "address"
        }
      ],
      "name": "OwnershipTransferred",
      "type": "event"
    },
    {
      "anonymous": false,
      "inputs": [
        {
          "indexed": true,
          "internalType": "address",
          "name": "from",
          "type": "address"
        },
        {
          "indexed": true,
          "internalType": "address",
          "name": "to",
          "type": "address"
        },
        {
          "indexed": true,
          "internalType": "uint256",
          "name": "tokenId",
          "type": "uint256"
        }
      ],
      "name": "Transfer",
      "type": "event"
    },
    {
      "inputs": [
        {
          "internalType": "address",
          "name": "to",
          "type": "address"
        },
        {
          "internalType": "uint256",
          "name": "tokenId",
          "type": "uint256"
        }
      ],
      "name": "approve",
      "outputs": [],
      "stateMutability": "nonpayable",
      "type": "function"
    },
    {
      "inputs": [
        {
          "internalType": "address",
          "name": "owner",
          "type": "address"
        }
      ],
      "name": "balanceOf",
      "outputs": [
        {
          "internalType": "uint256",
          "name": "",
          "type": "uint256"
        }
      ],
      "stateMutability": "view",
      "type": "function"
    },
    {
      "inputs": [
        {
          "internalType": "uint256",
          "name": "tokenId",
          "type": "uint256"
        }
      ],
      "name": "burn",
      "outputs": [],
      "stateMutability": "nonpayable",
      "type": "function"
    },
    {
      "inputs": [
        {
          "internalType": "uint256",
          "name": "tokenId",
          "type": "uint256"
        }
      ],
      "name": "getApproved",
      "outputs": [
        {
          "internalType": "address",
          "name": "",
          "type": "address"
        }
      ],
      "stateMutability": "view",
      "type": "function"
    },
    {
      "inputs": [
        {
          "internalType": "address",
          "name": "owner",
          "type": "address"
        },
        {
          "internalType": "address",
          "name": "operator",
          "type": "address"
        }
      ],
      "name": "isApprovedForAll",
      "outputs": [
        {
          "internalType": "bool",
          "name": "",
          "type": "bool"
        }
      ],
      "stateMutability": "view",
      "type": "function"
    },
    {
      "inputs": [
        {
          "internalType": "address",
          "name": "toAddress",
          "type": "address"
        },
        {
          "internalType": "string",
          "name": "newTokenURI",
          "type": "string"
        }
      ],
      "name": "mint",
      "outputs": [],
      "stateMutability": "nonpayable",
      "type": "function"
    },
    {
      "inputs": [],
      "name": "name",
      "outputs": [
        {
          "internalType": "string",
          "name": "",
          "type": "string"
        }
      ],
      "stateMutability": "view",
      "type": "function"
    },
    {
      "inputs": [
        {
          "internalType": "address",
          "name": "",
          "type": "address"
        },
        {
          "internalType": "address",
          "name": "",
          "type": "address"
        },
        {
          "internalType": "uint256",
          "name": "",
          "type": "uint256"
        },
        {
          "internalType": "bytes",
          "name": "",
          "type": "bytes"
        }
      ],
      "name": "onERC721Received",
      "outputs": [
        {
          "internalType": "bytes4",
          "name": "",
          "type": "bytes4"
        }
      ],
      "stateMutability": "nonpayable",
      "type": "function"
    },
    {
      "inputs": [],
      "name": "owner",
      "outputs": [
        {
          "internalType": "address",
          "name": "",
          "type": "address"
        }
      ],
      "stateMutability": "view",
      "type": "function"
    },
    {
      "inputs": [
        {
          "internalType": "uint256",
          "name": "tokenId",
          "type": "uint256"
        }
      ],
      "name": "ownerOf",
      "outputs": [
        {
          "internalType": "address",
          "name": "",
          "type": "address"
        }
      ],
      "stateMutability": "view",
      "type": "function"
    },
    {
      "inputs": [],
      "name": "renounceOwnership",
      "outputs": [],
      "stateMutability": "nonpayable",
      "type": "function"
    },
    {
      "inputs": [
        {
          "internalType": "address",
          "name": "from",
          "type": "address"
        },
        {
          "internalType": "address",
          "name": "to",
          "type": "address"
        },
        {
          "internalType": "uint256",
          "name": "tokenId",
          "type": "uint256"
        }
      ],
      "name": "safeTransferFrom",
      "outputs": [],
      "stateMutability": "nonpayable",
      "type": "function"
    },
    {
      "inputs": [
        {
          "internalType": "address",
          "name": "from",
          "type": "address"
        },
        {
          "internalType": "address",
          "name": "to",
          "type": "address"
        },
        {
          "internalType": "uint256",
          "name": "tokenId",
          "type": "uint256"
        },
        {
          "internalType": "bytes",
          "name": "_data",
          "type": "bytes"
        }
      ],
      "name": "safeTransferFrom",
      "outputs": [],
      "stateMutability": "nonpayable",
      "type": "function"
    },
    {
      "inputs": [
        {
          "internalType": "address",
          "name": "operator",
          "type": "address"
        },
        {
          "internalType": "bool",
          "name": "approved",
          "type": "bool"
        }
      ],
      "name": "setApprovalForAll",
      "outputs": [],
      "stateMutability": "nonpayable",
      "type": "function"
    },
    {
      "inputs": [
        {
          "internalType": "string",
          "name": "baseURI_",
          "type": "string"
        }
      ],
      "name": "setBaseURI",
      "outputs": [],
      "stateMutability": "nonpayable",
      "type": "function"
    },
    {
      "inputs": [
        {
          "internalType": "bytes4",
          "name": "interfaceId",
          "type": "bytes4"
        }
      ],
      "name": "supportsInterface",
      "outputs": [
        {
          "internalType": "bool",
          "name": "",
          "type": "bool"
        }
      ],
      "stateMutability": "view",
      "type": "function"
    },
    {
      "inputs": [],
      "name": "symbol",
      "outputs": [
        {
          "internalType": "string",
          "name": "",
          "type": "string"
        }
      ],
      "stateMutability": "view",
      "type": "function"
    },
    {
      "inputs": [
        {
          "internalType": "uint256",
          "name": "index",
          "type": "uint256"
        }
      ],
      "name": "tokenByIndex",
      "outputs": [
        {
          "internalType": "uint256",
          "name": "",
          "type": "uint256"
        }
      ],
      "stateMutability": "view",
      "type": "function"
    },
    {
      "inputs": [
        {
          "internalType": "address",
          "name": "owner",
          "type": "address"
        },
        {
          "internalType": "uint256",
          "name": "index",
          "type": "uint256"
        }
      ],
      "name": "tokenOfOwnerByIndex",
      "outputs": [
        {
          "internalType": "uint256",
          "name": "",
          "type": "uint256"
        }
      ],
      "stateMutability": "view",
      "type": "function"
    },
    {
      "inputs": [
        {
          "internalType": "uint256",
          "name": "tokenId",
          "type": "uint256"
        }
      ],
      "name": "tokenURI",
      "outputs": [
        {
          "internalType": "string",
          "name": "",
          "type": "string"
        }
      ],
      "stateMutability": "view",
      "type": "function"
    },
    {
      "inputs": [],
      "name": "totalSupply",
      "outputs": [
        {
          "internalType": "uint256",
          "name": "",
          "type": "uint256"
        }
      ],
      "stateMutability": "view",
      "type": "function"
    },
    {
      "inputs": [
        {
          "internalType": "address",
          "name": "from",
          "type": "address"
        },
        {
          "internalType": "address",
          "name": "to",
          "type": "address"
        },
        {
          "internalType": "uint256",
          "name": "tokenId",
          "type": "uint256"
        }
      ],
      "name": "transferFrom",
      "outputs": [],
      "stateMutability": "nonpayable",
      "type": "function"
    },
    {
      "inputs": [
        {
          "internalType": "address",
          "name": "newOwner",
          "type": "address"
        }
      ],
      "name": "transferOwnership",
      "outputs": [],
      "stateMutability": "nonpayable",
      "type": "function"
    }
  ],
  "bytecode": "0x60806040523480156200001157600080fd5b506040518060400160405280600a81526020017f446f63746f72204e4654000000000000000000000000000000000000000000008152506040518060400160405280600581526020017f44524e4654000000000000000000000000000000000000000000000000000000815250816000908051906020019062000096929190620001a6565b508060019080519060200190620000af929190620001a6565b505050620000d2620000c6620000d860201b60201c565b620000e060201b60201c565b620002bb565b600033905090565b6000600660009054906101000a900473ffffffffffffffffffffffffffffffffffffffff16905081600660006101000a81548173ffffffffffffffffffffffffffffffffffffffff021916908373ffffffffffffffffffffffffffffffffffffffff1602179055508173ffffffffffffffffffffffffffffffffffffffff168173ffffffffffffffffffffffffffffffffffffffff167f8be0079c531659141344cd1fd0a4f28419497f9722a3daafe3b4186f6b6457e060405160405180910390a35050565b828054620001b49062000256565b90600052602060002090601f016020900481019282620001d8576000855562000224565b82601f10620001f357805160ff191683800117855562000224565b8280016001018555821562000224579182015b828111156200022357825182559160200191906001019062000206565b5b50905062000233919062000237565b5090565b5b808211156200025257600081600090555060010162000238565b5090565b600060028204905060018216806200026f57607f821691505b602082108114156200028657620002856200028c565b5b50919050565b7f4e487b7100000000000000000000000000000000000000000000000000000000600052602260045260246000fd5b613edc80620002cb6000396000f3fe608060405234801561001057600080fd5b506004361061014d5760003560e01c806355f804b3116100c3578063a22cb4651161007c578063a22cb465146103b0578063b88d4fde146103cc578063c87b56dd146103e8578063d0def52114610418578063e985e9c514610434578063f2fde38b146104645761014d565b806355f804b3146102ee5780636352211e1461030a57806370a082311461033a578063715018a61461036a5780638da5cb5b1461037457806395d89b41146103925761014d565b806318160ddd1161011557806318160ddd1461021c57806323b872dd1461023a5780632f745c591461025657806342842e0e1461028657806342966c68146102a25780634f6ccce7146102be5761014d565b806301ffc9a71461015257806306fdde0314610182578063081812fc146101a0578063095ea7b3146101d0578063150b7a02146101ec575b600080fd5b61016c60048036038101906101679190612c6a565b610480565b604051610179919061316f565b60405180910390f35b61018a6104fa565b60405161019791906131a5565b60405180910390f35b6101ba60048036038101906101b59190612cfd565b61058c565b6040516101c79190613108565b60405180910390f35b6101ea60048036038101906101e59190612c2e565b610611565b005b61020660048036038101906102019190612aa3565b610729565b604051610213919061318a565b60405180910390f35b61022461073e565b6040516102319190613467565b60405180910390f35b610254600480360381019061024f9190612a54565b61074b565b005b610270600480360381019061026b9190612c2e565b6107ab565b60405161027d9190613467565b60405180910390f35b6102a0600480360381019061029b9190612a54565b610850565b005b6102bc60048036038101906102b79190612cfd565b610870565b005b6102d860048036038101906102d39190612cfd565b6108cc565b6040516102e59190613467565b60405180910390f35b61030860048036038101906103039190612cbc565b6108de565b005b610324600480360381019061031f9190612cfd565b610974565b6040516103319190613108565b60405180910390f35b610354600480360381019061034f91906129ef565b610a26565b6040516103619190613467565b60405180910390f35b610372610ade565b005b61037c610b66565b6040516103899190613108565b60405180910390f35b61039a610b90565b6040516103a791906131a5565b60405180910390f35b6103ca60048036038101906103c59190612b9e565b610c22565b005b6103e660048036038101906103e19190612b23565b610c38565b005b61040260048036038101906103fd9190612cfd565b610c9a565b60405161040f91906131a5565b60405180910390f35b610432600480360381019061042d9190612bda565b610cac565b005b61044e60048036038101906104499190612a18565b610d59565b60405161045b919061316f565b60405180910390f35b61047e600480360381019061047991906129ef565b610ded565b005b60007f780e9d63000000000000000000000000000000000000000000000000000000007bffffffffffffffffffffffffffffffffffffffffffffffffffffffff1916827bffffffffffffffffffffffffffffffffffffffffffffffffffffffff191614806104f357506104f282610ee5565b5b9050919050565b606060008054610509906136bd565b80601f0160208091040260200160405190810160405280929190818152602001828054610535906136bd565b80156105825780601f1061055757610100808354040283529160200191610582565b820191906000526020600020905b81548152906001019060200180831161056557829003601f168201915b5050505050905090565b600061059782610f5f565b6105d6576040517f08c379a00000000000000000000000000000000000000000000000000000000081526004016105cd90613387565b60405180910390fd5b6004600083815260200190815260200160002060009054906101000a900473ffffffffffffffffffffffffffffffffffffffff169050919050565b600061061c82610974565b90508073ffffffffffffffffffffffffffffffffffffffff168373ffffffffffffffffffffffffffffffffffffffff16141561068d576040517f08c379a0000000000000000000000000000000000000000000000000000000008152600401610684906133e7565b60405180910390fd5b8073ffffffffffffffffffffffffffffffffffffffff166106ac610fcb565b73ffffffffffffffffffffffffffffffffffffffff1614806106db57506106da816106d5610fcb565b610d59565b5b61071a576040517f08c379a0000000000000000000000000000000000000000000000000000000008152600401610711906132c7565b60405180910390fd5b6107248383610fd3565b505050565b600063150b7a0260e01b905095945050505050565b6000600a80549050905090565b61075c610756610fcb565b8261108c565b61079b576040517f08c379a000000000000000000000000000000000000000000000000000000000815260040161079290613407565b60405180910390fd5b6107a683838361116a565b505050565b60006107b683610a26565b82106107f7576040517f08c379a00000000000000000000000000000000000000000000000000000000081526004016107ee906131c7565b60405180910390fd5b600860008473ffffffffffffffffffffffffffffffffffffffff1673ffffffffffffffffffffffffffffffffffffffff168152602001908152602001600020600083815260200190815260200160002054905092915050565b61086b83838360405180602001604052806000815250610c38565b505050565b61088161087b610fcb565b8261108c565b6108c0576040517f08c379a00000000000000000000000000000000000000000000000000000000081526004016108b790613447565b60405180910390fd5b6108c9816113d1565b50565b60006108d782611424565b9050919050565b6108e6610fcb565b73ffffffffffffffffffffffffffffffffffffffff16610904610b66565b73ffffffffffffffffffffffffffffffffffffffff161461095a576040517f08c379a0000000000000000000000000000000000000000000000000000000008152600401610951906133a7565b60405180910390fd5b80600d9080519060200190610970929190612789565b5050565b6000806002600084815260200190815260200160002060009054906101000a900473ffffffffffffffffffffffffffffffffffffffff169050600073ffffffffffffffffffffffffffffffffffffffff168173ffffffffffffffffffffffffffffffffffffffff161415610a1d576040517f08c379a0000000000000000000000000000000000000000000000000000000008152600401610a1490613307565b60405180910390fd5b80915050919050565b60008073ffffffffffffffffffffffffffffffffffffffff168273ffffffffffffffffffffffffffffffffffffffff161415610a97576040517f08c379a0000000000000000000000000000000000000000000000000000000008152600401610a8e906132e7565b60405180910390fd5b600360008373ffffffffffffffffffffffffffffffffffffffff1673ffffffffffffffffffffffffffffffffffffffff168152602001908152602001600020549050919050565b610ae6610fcb565b73ffffffffffffffffffffffffffffffffffffffff16610b04610b66565b73ffffffffffffffffffffffffffffffffffffffff1614610b5a576040517f08c379a0000000000000000000000000000000000000000000000000000000008152600401610b51906133a7565b60405180910390fd5b610b6460006114bb565b565b6000600660009054906101000a900473ffffffffffffffffffffffffffffffffffffffff16905090565b606060018054610b9f906136bd565b80601f0160208091040260200160405190810160405280929190818152602001828054610bcb906136bd565b8015610c185780601f10610bed57610100808354040283529160200191610c18565b820191906000526020600020905b815481529060010190602001808311610bfb57829003601f168201915b5050505050905090565b610c34610c2d610fcb565b8383611581565b5050565b610c49610c43610fcb565b8361108c565b610c88576040517f08c379a0000000000000000000000000000000000000000000000000000000008152600401610c7f90613407565b60405180910390fd5b610c94848484846116ee565b50505050565b6060610ca58261174a565b9050919050565b610cb4610fcb565b73ffffffffffffffffffffffffffffffffffffffff16610cd2610b66565b73ffffffffffffffffffffffffffffffffffffffff1614610d28576040517f08c379a0000000000000000000000000000000000000000000000000000000008152600401610d1f906133a7565b60405180910390fd5b610d32600e61189c565b6000610d3e600e6118b2565b9050610d4a83826118c0565b610d5481836118de565b505050565b6000600560008473ffffffffffffffffffffffffffffffffffffffff1673ffffffffffffffffffffffffffffffffffffffff16815260200190815260200160002060008373ffffffffffffffffffffffffffffffffffffffff1673ffffffffffffffffffffffffffffffffffffffff16815260200190815260200160002060009054906101000a900460ff16905092915050565b610df5610fcb565b73ffffffffffffffffffffffffffffffffffffffff16610e13610b66565b73ffffffffffffffffffffffffffffffffffffffff1614610e69576040517f08c379a0000000000000000000000000000000000000000000000000000000008152600401610e60906133a7565b60405180910390fd5b600073ffffffffffffffffffffffffffffffffffffffff168173ffffffffffffffffffffffffffffffffffffffff161415610ed9576040517f08c379a0000000000000000000000000000000000000000000000000000000008152600401610ed090613207565b60405180910390fd5b610ee2816114bb565b50565b60007f780e9d63000000000000000000000000000000000000000000000000000000007bffffffffffffffffffffffffffffffffffffffffffffffffffffffff1916827bffffffffffffffffffffffffffffffffffffffffffffffffffffffff19161480610f585750610f5782611952565b5b9050919050565b60008073ffffffffffffffffffffffffffffffffffffffff166002600084815260200190815260200160002060009054906101000a900473ffffffffffffffffffffffffffffffffffffffff1673ffffffffffffffffffffffffffffffffffffffff1614159050919050565b600033905090565b816004600083815260200190815260200160002060006101000a81548173ffffffffffffffffffffffffffffffffffffffff021916908373ffffffffffffffffffffffffffffffffffffffff160217905550808273ffffffffffffffffffffffffffffffffffffffff1661104683610974565b73ffffffffffffffffffffffffffffffffffffffff167f8c5be1e5ebec7d5bd14f71427d1e84f3dd0314c0f7b2291e5b200ac8c7c3b92560405160405180910390a45050565b600061109782610f5f565b6110d6576040517f08c379a00000000000000000000000000000000000000000000000000000000081526004016110cd906132a7565b60405180910390fd5b60006110e183610974565b90508073ffffffffffffffffffffffffffffffffffffffff168473ffffffffffffffffffffffffffffffffffffffff16148061115057508373ffffffffffffffffffffffffffffffffffffffff166111388461058c565b73ffffffffffffffffffffffffffffffffffffffff16145b8061116157506111608185610d59565b5b91505092915050565b8273ffffffffffffffffffffffffffffffffffffffff1661118a82610974565b73ffffffffffffffffffffffffffffffffffffffff16146111e0576040517f08c379a00000000000000000000000000000000000000000000000000000000081526004016111d790613227565b60405180910390fd5b600073ffffffffffffffffffffffffffffffffffffffff168273ffffffffffffffffffffffffffffffffffffffff161415611250576040517f08c379a000000000000000000000000000000000000000000000000000000000815260040161124790613267565b60405180910390fd5b61125b838383611a34565b611266600082610fd3565b6001600360008573ffffffffffffffffffffffffffffffffffffffff1673ffffffffffffffffffffffffffffffffffffffff16815260200190815260200160002060008282546112b691906135d3565b925050819055506001600360008473ffffffffffffffffffffffffffffffffffffffff1673ffffffffffffffffffffffffffffffffffffffff168152602001908152602001600020600082825461130d919061354c565b92505081905550816002600083815260200190815260200160002060006101000a81548173ffffffffffffffffffffffffffffffffffffffff021916908373ffffffffffffffffffffffffffffffffffffffff160217905550808273ffffffffffffffffffffffffffffffffffffffff168473ffffffffffffffffffffffffffffffffffffffff167fddf252ad1be2c89b69c2b068fc378daa952ba7f163c4a11628f55a4df523b3ef60405160405180910390a46113cc838383611a44565b505050565b6113da81611a49565b6000600c600083815260200190815260200160002080546113fa906136bd565b90501461142157600c60008281526020019081526020016000206000611420919061280f565b5b50565b600061142e61073e565b821061146f576040517f08c379a000000000000000000000000000000000000000000000000000000000815260040161146690613427565b60405180910390fd5b600a82815481106114a9577f4e487b7100000000000000000000000000000000000000000000000000000000600052603260045260246000fd5b90600052602060002001549050919050565b6000600660009054906101000a900473ffffffffffffffffffffffffffffffffffffffff16905081600660006101000a81548173ffffffffffffffffffffffffffffffffffffffff021916908373ffffffffffffffffffffffffffffffffffffffff1602179055508173ffffffffffffffffffffffffffffffffffffffff168173ffffffffffffffffffffffffffffffffffffffff167f8be0079c531659141344cd1fd0a4f28419497f9722a3daafe3b4186f6b6457e060405160405180910390a35050565b8173ffffffffffffffffffffffffffffffffffffffff168373ffffffffffffffffffffffffffffffffffffffff1614156115f0576040517f08c379a00000000000000000000000000000000000000000000000000000000081526004016115e790613287565b60405180910390fd5b80600560008573ffffffffffffffffffffffffffffffffffffffff1673ffffffffffffffffffffffffffffffffffffffff16815260200190815260200160002060008473ffffffffffffffffffffffffffffffffffffffff1673ffffffffffffffffffffffffffffffffffffffff16815260200190815260200160002060006101000a81548160ff0219169083151502179055508173ffffffffffffffffffffffffffffffffffffffff168373ffffffffffffffffffffffffffffffffffffffff167f17307eab39ab6107e8899845ad3d59bd9653f200f220920489ca2b5937696c31836040516116e1919061316f565b60405180910390a3505050565b6116f984848461116a565b61170584848484611a9c565b611744576040517f08c379a000000000000000000000000000000000000000000000000000000000815260040161173b906131e7565b60405180910390fd5b50505050565b606061175582610f5f565b611794576040517f08c379a000000000000000000000000000000000000000000000000000000000815260040161178b90613367565b60405180910390fd5b60006007600084815260200190815260200160002080546117b4906136bd565b80601f01602080910402602001604051908101604052809291908181526020018280546117e0906136bd565b801561182d5780601f106118025761010080835404028352916020019161182d565b820191906000526020600020905b81548152906001019060200180831161181057829003601f168201915b50505050509050600061183e611c33565b9050600081511415611854578192505050611897565b6000825111156118895780826040516020016118719291906130e4565b60405160208183030381529060405292505050611897565b61189284611cc5565b925050505b919050565b6001816000016000828254019250508190555050565b600081600001549050919050565b6118da828260405180602001604052806000815250611d6c565b5050565b6118e782610f5f565b611926576040517f08c379a000000000000000000000000000000000000000000000000000000000815260040161191d90613327565b60405180910390fd5b8060076000848152602001908152602001600020908051906020019061194d929190612789565b505050565b60007f80ac58cd000000000000000000000000000000000000000000000000000000007bffffffffffffffffffffffffffffffffffffffffffffffffffffffff1916827bffffffffffffffffffffffffffffffffffffffffffffffffffffffff19161480611a1d57507f5b5e139f000000000000000000000000000000000000000000000000000000007bffffffffffffffffffffffffffffffffffffffffffffffffffffffff1916827bffffffffffffffffffffffffffffffffffffffffffffffffffffffff1916145b80611a2d5750611a2c82611dc7565b5b9050919050565b611a3f838383611e31565b505050565b505050565b611a5281611f45565b6000600760008381526020019081526020016000208054611a72906136bd565b905014611a9957600760008281526020019081526020016000206000611a98919061280f565b5b50565b6000611abd8473ffffffffffffffffffffffffffffffffffffffff16612062565b15611c26578373ffffffffffffffffffffffffffffffffffffffff1663150b7a02611ae6610fcb565b8786866040518563ffffffff1660e01b8152600401611b089493929190613123565b602060405180830381600087803b158015611b2257600080fd5b505af1925050508015611b5357506040513d601f19601f82011682018060405250810190611b509190612c93565b60015b611bd6573d8060008114611b83576040519150601f19603f3d011682016040523d82523d6000602084013e611b88565b606091505b50600081511415611bce576040517f08c379a0000000000000000000000000000000000000000000000000000000008152600401611bc5906131e7565b60405180910390fd5b805181602001fd5b63150b7a0260e01b7bffffffffffffffffffffffffffffffffffffffffffffffffffffffff1916817bffffffffffffffffffffffffffffffffffffffffffffffffffffffff191614915050611c2b565b600190505b949350505050565b6060600d8054611c42906136bd565b80601f0160208091040260200160405190810160405280929190818152602001828054611c6e906136bd565b8015611cbb5780601f10611c9057610100808354040283529160200191611cbb565b820191906000526020600020905b815481529060010190602001808311611c9e57829003601f168201915b5050505050905090565b6060611cd082610f5f565b611d0f576040517f08c379a0000000000000000000000000000000000000000000000000000000008152600401611d06906133c7565b60405180910390fd5b6000611d19611c33565b90506000815111611d395760405180602001604052806000815250611d64565b80611d4384612085565b604051602001611d549291906130e4565b6040516020818303038152906040525b915050919050565b611d768383612232565b611d836000848484611a9c565b611dc2576040517f08c379a0000000000000000000000000000000000000000000000000000000008152600401611db9906131e7565b60405180910390fd5b505050565b60007f01ffc9a7000000000000000000000000000000000000000000000000000000007bffffffffffffffffffffffffffffffffffffffffffffffffffffffff1916827bffffffffffffffffffffffffffffffffffffffffffffffffffffffff1916149050919050565b611e3c83838361240c565b600073ffffffffffffffffffffffffffffffffffffffff168373ffffffffffffffffffffffffffffffffffffffff161415611e7f57611e7a81612411565b611ebe565b8173ffffffffffffffffffffffffffffffffffffffff168373ffffffffffffffffffffffffffffffffffffffff1614611ebd57611ebc838261245a565b5b5b600073ffffffffffffffffffffffffffffffffffffffff168273ffffffffffffffffffffffffffffffffffffffff161415611f0157611efc816125c7565b611f40565b8273ffffffffffffffffffffffffffffffffffffffff168273ffffffffffffffffffffffffffffffffffffffff1614611f3f57611f3e828261270a565b5b5b505050565b6000611f5082610974565b9050611f5e81600084611a34565b611f69600083610fd3565b6001600360008373ffffffffffffffffffffffffffffffffffffffff1673ffffffffffffffffffffffffffffffffffffffff1681526020019081526020016000206000828254611fb991906135d3565b925050819055506002600083815260200190815260200160002060006101000a81549073ffffffffffffffffffffffffffffffffffffffff021916905581600073ffffffffffffffffffffffffffffffffffffffff168273ffffffffffffffffffffffffffffffffffffffff167fddf252ad1be2c89b69c2b068fc378daa952ba7f163c4a11628f55a4df523b3ef60405160405180910390a461205e81600084611a44565b5050565b6000808273ffffffffffffffffffffffffffffffffffffffff163b119050919050565b606060008214156120cd576040518060400160405280600181526020017f3000000000000000000000000000000000000000000000000000000000000000815250905061222d565b600082905060005b600082146120ff5780806120e890613720565b915050600a826120f891906135a2565b91506120d5565b60008167ffffffffffffffff811115612141577f4e487b7100000000000000000000000000000000000000000000000000000000600052604160045260246000fd5b6040519080825280601f01601f1916602001820160405280156121735781602001600182028036833780820191505090505b5090505b600085146122265760018261218c91906135d3565b9150600a8561219b9190613769565b60306121a7919061354c565b60f81b8183815181106121e3577f4e487b7100000000000000000000000000000000000000000000000000000000600052603260045260246000fd5b60200101907effffffffffffffffffffffffffffffffffffffffffffffffffffffffffffff1916908160001a905350600a8561221f91906135a2565b9450612177565b8093505050505b919050565b600073ffffffffffffffffffffffffffffffffffffffff168273ffffffffffffffffffffffffffffffffffffffff1614156122a2576040517f08c379a000000000000000000000000000000000000000000000000000000000815260040161229990613347565b60405180910390fd5b6122ab81610f5f565b156122eb576040517f08c379a00000000000000000000000000000000000000000000000000000000081526004016122e290613247565b60405180910390fd5b6122f760008383611a34565b6001600360008473ffffffffffffffffffffffffffffffffffffffff1673ffffffffffffffffffffffffffffffffffffffff1681526020019081526020016000206000828254612347919061354c565b92505081905550816002600083815260200190815260200160002060006101000a81548173ffffffffffffffffffffffffffffffffffffffff021916908373ffffffffffffffffffffffffffffffffffffffff160217905550808273ffffffffffffffffffffffffffffffffffffffff16600073ffffffffffffffffffffffffffffffffffffffff167fddf252ad1be2c89b69c2b068fc378daa952ba7f163c4a11628f55a4df523b3ef60405160405180910390a461240860008383611a44565b5050565b505050565b600a80549050600b600083815260200190815260200160002081905550600a81908060018154018082558091505060019003906000526020600020016000909190919091505550565b6000600161246784610a26565b61247191906135d3565b9050600060096000848152602001908152602001600020549050818114612556576000600860008673ffffffffffffffffffffffffffffffffffffffff1673ffffffffffffffffffffffffffffffffffffffff168152602001908152602001600020600084815260200190815260200160002054905080600860008773ffffffffffffffffffffffffffffffffffffffff1673ffffffffffffffffffffffffffffffffffffffff168152602001908152602001600020600084815260200190815260200160002081905550816009600083815260200190815260200160002081905550505b6009600084815260200190815260200160002060009055600860008573ffffffffffffffffffffffffffffffffffffffff1673ffffffffffffffffffffffffffffffffffffffff16815260200190815260200160002060008381526020019081526020016000206000905550505050565b60006001600a805490506125db91906135d3565b90506000600b60008481526020019081526020016000205490506000600a8381548110612631577f4e487b7100000000000000000000000000000000000000000000000000000000600052603260045260246000fd5b9060005260206000200154905080600a8381548110612679577f4e487b7100000000000000000000000000000000000000000000000000000000600052603260045260246000fd5b906000526020600020018190555081600b600083815260200190815260200160002081905550600b600085815260200190815260200160002060009055600a8054806126ee577f4e487b7100000000000000000000000000000000000000000000000000000000600052603160045260246000fd5b6001900381819060005260206000200160009055905550505050565b600061271583610a26565b905081600860008573ffffffffffffffffffffffffffffffffffffffff1673ffffffffffffffffffffffffffffffffffffffff168152602001908152602001600020600083815260200190815260200160002081905550806009600084815260200190815260200160002081905550505050565b828054612795906136bd565b90600052602060002090601f0160209004810192826127b757600085556127fe565b82601f106127d057805160ff19168380011785556127fe565b828001600101855582156127fe579182015b828111156127fd5782518255916020019190600101906127e2565b5b50905061280b919061284f565b5090565b50805461281b906136bd565b6000825580601f1061282d575061284c565b601f01602090049060005260206000209081019061284b919061284f565b5b50565b5b80821115612868576000816000905550600101612850565b5090565b600061287f61287a846134a7565b613482565b90508281526020810184848401111561289757600080fd5b6128a284828561367b565b509392505050565b60006128bd6128b8846134d8565b613482565b9050828152602081018484840111156128d557600080fd5b6128e084828561367b565b509392505050565b6000813590506128f781613e4a565b92915050565b60008135905061290c81613e61565b92915050565b60008135905061292181613e78565b92915050565b60008151905061293681613e78565b92915050565b60008083601f84011261294e57600080fd5b8235905067ffffffffffffffff81111561296757600080fd5b60208301915083600182028301111561297f57600080fd5b9250929050565b600082601f83011261299757600080fd5b81356129a784826020860161286c565b91505092915050565b600082601f8301126129c157600080fd5b81356129d18482602086016128aa565b91505092915050565b6000813590506129e981613e8f565b92915050565b600060208284031215612a0157600080fd5b6000612a0f848285016128e8565b91505092915050565b60008060408385031215612a2b57600080fd5b6000612a39858286016128e8565b9250506020612a4a858286016128e8565b9150509250929050565b600080600060608486031215612a6957600080fd5b6000612a77868287016128e8565b9350506020612a88868287016128e8565b9250506040612a99868287016129da565b9150509250925092565b600080600080600060808688031215612abb57600080fd5b6000612ac9888289016128e8565b9550506020612ada888289016128e8565b9450506040612aeb888289016129da565b935050606086013567ffffffffffffffff811115612b0857600080fd5b612b148882890161293c565b92509250509295509295909350565b60008060008060808587031215612b3957600080fd5b6000612b47878288016128e8565b9450506020612b58878288016128e8565b9350506040612b69878288016129da565b925050606085013567ffffffffffffffff811115612b8657600080fd5b612b9287828801612986565b91505092959194509250565b60008060408385031215612bb157600080fd5b6000612bbf858286016128e8565b9250506020612bd0858286016128fd565b9150509250929050565b60008060408385031215612bed57600080fd5b6000612bfb858286016128e8565b925050602083013567ffffffffffffffff811115612c1857600080fd5b612c24858286016129b0565b9150509250929050565b60008060408385031215612c4157600080fd5b6000612c4f858286016128e8565b9250506020612c60858286016129da565b9150509250929050565b600060208284031215612c7c57600080fd5b6000612c8a84828501612912565b91505092915050565b600060208284031215612ca557600080fd5b6000612cb384828501612927565b91505092915050565b600060208284031215612cce57600080fd5b600082013567ffffffffffffffff811115612ce857600080fd5b612cf4848285016129b0565b91505092915050565b600060208284031215612d0f57600080fd5b6000612d1d848285016129da565b91505092915050565b612d2f81613607565b82525050565b612d3e81613619565b82525050565b612d4d81613625565b82525050565b6000612d5e82613509565b612d68818561351f565b9350612d7881856020860161368a565b612d8181613856565b840191505092915050565b6000612d9782613514565b612da18185613530565b9350612db181856020860161368a565b612dba81613856565b840191505092915050565b6000612dd082613514565b612dda8185613541565b9350612dea81856020860161368a565b80840191505092915050565b6000612e03602b83613530565b9150612e0e82613867565b604082019050919050565b6000612e26603283613530565b9150612e31826138b6565b604082019050919050565b6000612e49602683613530565b9150612e5482613905565b604082019050919050565b6000612e6c602583613530565b9150612e7782613954565b604082019050919050565b6000612e8f601c83613530565b9150612e9a826139a3565b602082019050919050565b6000612eb2602483613530565b9150612ebd826139cc565b604082019050919050565b6000612ed5601983613530565b9150612ee082613a1b565b602082019050919050565b6000612ef8602c83613530565b9150612f0382613a44565b604082019050919050565b6000612f1b603883613530565b9150612f2682613a93565b604082019050919050565b6000612f3e602a83613530565b9150612f4982613ae2565b604082019050919050565b6000612f61602983613530565b9150612f6c82613b31565b604082019050919050565b6000612f84602e83613530565b9150612f8f82613b80565b604082019050919050565b6000612fa7602083613530565b9150612fb282613bcf565b602082019050919050565b6000612fca603183613530565b9150612fd582613bf8565b604082019050919050565b6000612fed602c83613530565b9150612ff882613c47565b604082019050919050565b6000613010602083613530565b915061301b82613c96565b602082019050919050565b6000613033602f83613530565b915061303e82613cbf565b604082019050919050565b6000613056602183613530565b915061306182613d0e565b604082019050919050565b6000613079603183613530565b915061308482613d5d565b604082019050919050565b600061309c602c83613530565b91506130a782613dac565b604082019050919050565b60006130bf603083613530565b91506130ca82613dfb565b604082019050919050565b6130de81613671565b82525050565b60006130f08285612dc5565b91506130fc8284612dc5565b91508190509392505050565b600060208201905061311d6000830184612d26565b92915050565b60006080820190506131386000830187612d26565b6131456020830186612d26565b61315260408301856130d5565b81810360608301526131648184612d53565b905095945050505050565b60006020820190506131846000830184612d35565b92915050565b600060208201905061319f6000830184612d44565b92915050565b600060208201905081810360008301526131bf8184612d8c565b905092915050565b600060208201905081810360008301526131e081612df6565b9050919050565b6000602082019050818103600083015261320081612e19565b9050919050565b6000602082019050818103600083015261322081612e3c565b9050919050565b6000602082019050818103600083015261324081612e5f565b9050919050565b6000602082019050818103600083015261326081612e82565b9050919050565b6000602082019050818103600083015261328081612ea5565b9050919050565b600060208201905081810360008301526132a081612ec8565b9050919050565b600060208201905081810360008301526132c081612eeb565b9050919050565b600060208201905081810360008301526132e081612f0e565b9050919050565b6000602082019050818103600083015261330081612f31565b9050919050565b6000602082019050818103600083015261332081612f54565b9050919050565b6000602082019050818103600083015261334081612f77565b9050919050565b6000602082019050818103600083015261336081612f9a565b9050919050565b6000602082019050818103600083015261338081612fbd565b9050919050565b600060208201905081810360008301526133a081612fe0565b9050919050565b600060208201905081810360008301526133c081613003565b9050919050565b600060208201905081810360008301526133e081613026565b9050919050565b6000602082019050818103600083015261340081613049565b9050919050565b600060208201905081810360008301526134208161306c565b9050919050565b600060208201905081810360008301526134408161308f565b9050919050565b60006020820190508181036000830152613460816130b2565b9050919050565b600060208201905061347c60008301846130d5565b92915050565b600061348c61349d565b905061349882826136ef565b919050565b6000604051905090565b600067ffffffffffffffff8211156134c2576134c1613827565b5b6134cb82613856565b9050602081019050919050565b600067ffffffffffffffff8211156134f3576134f2613827565b5b6134fc82613856565b9050602081019050919050565b600081519050919050565b600081519050919050565b600082825260208201905092915050565b600082825260208201905092915050565b600081905092915050565b600061355782613671565b915061356283613671565b9250827fffffffffffffffffffffffffffffffffffffffffffffffffffffffffffffffff038211156135975761359661379a565b5b828201905092915050565b60006135ad82613671565b91506135b883613671565b9250826135c8576135c76137c9565b5b828204905092915050565b60006135de82613671565b91506135e983613671565b9250828210156135fc576135fb61379a565b5b828203905092915050565b600061361282613651565b9050919050565b60008115159050919050565b60007fffffffff0000000000000000000000000000000000000000000000000000000082169050919050565b600073ffffffffffffffffffffffffffffffffffffffff82169050919050565b6000819050919050565b82818337600083830152505050565b60005b838110156136a857808201518184015260208101905061368d565b838111156136b7576000848401525b50505050565b600060028204905060018216806136d557607f821691505b602082108114156136e9576136e86137f8565b5b50919050565b6136f882613856565b810181811067ffffffffffffffff8211171561371757613716613827565b5b80604052505050565b600061372b82613671565b91507fffffffffffffffffffffffffffffffffffffffffffffffffffffffffffffffff82141561375e5761375d61379a565b5b600182019050919050565b600061377482613671565b915061377f83613671565b92508261378f5761378e6137c9565b5b828206905092915050565b7f4e487b7100000000000000000000000000000000000000000000000000000000600052601160045260246000fd5b7f4e487b7100000000000000000000000000000000000000000000000000000000600052601260045260246000fd5b7f4e487b7100000000000000000000000000000000000000000000000000000000600052602260045260246000fd5b7f4e487b7100000000000000000000000000000000000000000000000000000000600052604160045260246000fd5b6000601f19601f8301169050919050565b7f455243373231456e756d657261626c653a206f776e657220696e646578206f7560008201527f74206f6620626f756e6473000000000000000000000000000000000000000000602082015250565b7f4552433732313a207472616e7366657220746f206e6f6e20455243373231526560008201527f63656976657220696d706c656d656e7465720000000000000000000000000000602082015250565b7f4f776e61626c653a206e6577206f776e657220697320746865207a65726f206160008201527f6464726573730000000000000000000000000000000000000000000000000000602082015250565b7f4552433732313a207472616e736665722066726f6d20696e636f72726563742060008201527f6f776e6572000000000000000000000000000000000000000000000000000000602082015250565b7f4552433732313a20746f6b656e20616c7265616479206d696e74656400000000600082015250565b7f4552433732313a207472616e7366657220746f20746865207a65726f2061646460008201527f7265737300000000000000000000000000000000000000000000000000000000602082015250565b7f4552433732313a20617070726f766520746f2063616c6c657200000000000000600082015250565b7f4552433732313a206f70657261746f7220717565727920666f72206e6f6e657860008201527f697374656e7420746f6b656e0000000000000000000000000000000000000000602082015250565b7f4552433732313a20617070726f76652063616c6c6572206973206e6f74206f7760008201527f6e6572206e6f7220617070726f76656420666f7220616c6c0000000000000000602082015250565b7f4552433732313a2062616c616e636520717565727920666f7220746865207a6560008201527f726f206164647265737300000000000000000000000000000000000000000000602082015250565b7f4552433732313a206f776e657220717565727920666f72206e6f6e657869737460008201527f656e7420746f6b656e0000000000000000000000000000000000000000000000602082015250565b7f45524337323155524953746f726167653a2055524920736574206f66206e6f6e60008201527f6578697374656e7420746f6b656e000000000000000000000000000000000000602082015250565b7f4552433732313a206d696e7420746f20746865207a65726f2061646472657373600082015250565b7f45524337323155524953746f726167653a2055524920717565727920666f722060008201527f6e6f6e6578697374656e7420746f6b656e000000000000000000000000000000602082015250565b7f4552433732313a20617070726f76656420717565727920666f72206e6f6e657860008201527f697374656e7420746f6b656e0000000000000000000000000000000000000000602082015250565b7f4f776e61626c653a2063616c6c6572206973206e6f7420746865206f776e6572600082015250565b7f4552433732314d657461646174613a2055524920717565727920666f72206e6f60008201527f6e6578697374656e7420746f6b656e0000000000000000000000000000000000602082015250565b7f4552433732313a20617070726f76616c20746f2063757272656e74206f776e6560008201527f7200000000000000000000000000000000000000000000000000000000000000602082015250565b7f4552433732313a207472616e736665722063616c6c6572206973206e6f74206f60008201527f776e6572206e6f7220617070726f766564000000000000000000000000000000602082015250565b7f455243373231456e756d657261626c653a20676c6f62616c20696e646578206f60008201527f7574206f6620626f756e64730000000000000000000000000000000000000000602082015250565b7f4552433732314275726e61626c653a2063616c6c6572206973206e6f74206f7760008201527f6e6572206e6f7220617070726f76656400000000000000000000000000000000602082015250565b613e5381613607565b8114613e5e57600080fd5b50565b613e6a81613619565b8114613e7557600080fd5b50565b613e8181613625565b8114613e8c57600080fd5b50565b613e9881613671565b8114613ea357600080fd5b5056fea264697066735822122032112beae1d50eb23c7b380bcdfbc81af521d9a7d5523c524670c2a93bc5c17264736f6c63430008040033",
  "linkReferences": {},
  "deployedLinkReferences": {}
}