{
  "contracts/IntOptimization.sol": {
    "IntOptimization": {
      "abi": [
        {
          "inputs": [
            {
              "internalType": "uint256",
              "name": "",
              "type": "uint256"
            }
          ],
          "name": "arrState",
          "outputs": [
            {
              "internalType": "int256",
              "name": "",
              "type": "int256"
            }
          ],
          "stateMutability": "view",
          "type": "function"
        },
        {
          "inputs": [],
          "name": "doCountLocal",
          "outputs": [],
          "stateMutability": "view",
          "type": "function"
        },
        {
          "inputs": [],
          "name": "doCountState",
          "outputs": [],
          "stateMutability": "nonpayable",
          "type": "function"
        },
        {
          "inputs": [],
          "name": "getValue",
          "outputs": [
            {
              "internalType": "int256",
              "name": "",
              "type": "int256"
            }
          ],
          "stateMutability": "view",
          "type": "function"
        },
        {
          "inputs": [
            {
              "internalType": "int256",
              "name": "newValue",
              "type": "int256"
            }
          ],
          "name": "setValue",
          "outputs": [],
          "stateMutability": "nonpayable",
          "type": "function"
        },
        {
          "inputs": [
            {
              "internalType": "int256",
              "name": "newValue",
              "type": "int256"
            }
          ],
          "name": "setValueNegative",
          "outputs": [],
          "stateMutability": "nonpayable",
          "type": "function"
        }
      ],
      "evm": {
        "bytecode": {
          "linkReferences": {},
          "object": "608060405234801561001057600080fd5b506101e2806100206000396000f3fe608060405234801561001057600080fd5b50600436106100725760003560e01c80635093dc7d116100505780635093dc7d146100975780637437040d146100aa5780639fba6335146100bd57600080fd5b806316ac3bbb14610077578063209652551461008157806343353c9014610097575b600080fd5b61007f6100c5565b005b6000545b60405190815260200160405180910390f35b61007f6100a5366004610154565b600055565b6100856100b8366004610154565b6100fd565b61007f61011e565b60005b6001548110156100fa57600280549060006100e28361016c565b919050555080806100f29061016c565b9150506100c8565b50565b6001818154811061010d57600080fd5b600091825260209091200154905081565b60015460025460005b8281101561014f57816101398161016c565b92505080806101479061016c565b915050610127565b505050565b600060208284031215610165578081fd5b5035919050565b60006000198214156101a5577f4e487b710000000000000000000000000000000000000000000000000000000081526011600452602481fd5b506001019056fea2646970667358221220ab7e0bbd7ae97445399f9419ed4e690f5887ae6d4a98785cbc6763537fbeb67664736f6c63430008040033",
          "opcodes": "PUSH1 0x80 PUSH1 0x40 MSTORE CALLVALUE DUP1 ISZERO PUSH2 0x10 JUMPI PUSH1 0x0 DUP1 REVERT JUMPDEST POP PUSH2 0x1E2 DUP1 PUSH2 0x20 PUSH1 0x0 CODECOPY PUSH1 0x0 RETURN INVALID PUSH1 0x80 PUSH1 0x40 MSTORE CALLVALUE DUP1 ISZERO PUSH2 0x10 JUMPI PUSH1 0x0 DUP1 REVERT JUMPDEST POP PUSH1 0x4 CALLDATASIZE LT PUSH2 0x72 JUMPI PUSH1 0x0 CALLDATALOAD PUSH1 0xE0 SHR DUP1 PUSH4 0x5093DC7D GT PUSH2 0x50 JUMPI DUP1 PUSH4 0x5093DC7D EQ PUSH2 0x97 JUMPI DUP1 PUSH4 0x7437040D EQ PUSH2 0xAA JUMPI DUP1 PUSH4 0x9FBA6335 EQ PUSH2 0xBD JUMPI PUSH1 0x0 DUP1 REVERT JUMPDEST DUP1 PUSH4 0x16AC3BBB EQ PUSH2 0x77 JUMPI DUP1 PUSH4 0x20965255 EQ PUSH2 0x81 JUMPI DUP1 PUSH4 0x43353C90 EQ PUSH2 0x97 JUMPI JUMPDEST PUSH1 0x0 DUP1 REVERT JUMPDEST PUSH2 0x7F PUSH2 0xC5 JUMP JUMPDEST STOP JUMPDEST PUSH1 0x0 SLOAD JUMPDEST PUSH1 0x40 MLOAD SWAP1 DUP2 MSTORE PUSH1 0x20 ADD PUSH1 0x40 MLOAD DUP1 SWAP2 SUB SWAP1 RETURN JUMPDEST PUSH2 0x7F PUSH2 0xA5 CALLDATASIZE PUSH1 0x4 PUSH2 0x154 JUMP JUMPDEST PUSH1 0x0 SSTORE JUMP JUMPDEST PUSH2 0x85 PUSH2 0xB8 CALLDATASIZE PUSH1 0x4 PUSH2 0x154 JUMP JUMPDEST PUSH2 0xFD JUMP JUMPDEST PUSH2 0x7F PUSH2 0x11E JUMP JUMPDEST PUSH1 0x0 JUMPDEST PUSH1 0x1 SLOAD DUP2 LT ISZERO PUSH2 0xFA JUMPI PUSH1 0x2 DUP1 SLOAD SWAP1 PUSH1 0x0 PUSH2 0xE2 DUP4 PUSH2 0x16C JUMP JUMPDEST SWAP2 SWAP1 POP SSTORE POP DUP1 DUP1 PUSH2 0xF2 SWAP1 PUSH2 0x16C JUMP JUMPDEST SWAP2 POP POP PUSH2 0xC8 JUMP JUMPDEST POP JUMP JUMPDEST PUSH1 0x1 DUP2 DUP2 SLOAD DUP2 LT PUSH2 0x10D JUMPI PUSH1 0x0 DUP1 REVERT JUMPDEST PUSH1 0x0 SWAP2 DUP3 MSTORE PUSH1 0x20 SWAP1 SWAP2 KECCAK256 ADD SLOAD SWAP1 POP DUP2 JUMP JUMPDEST PUSH1 0x1 SLOAD PUSH1 0x2 SLOAD PUSH1 0x0 JUMPDEST DUP3 DUP2 LT ISZERO PUSH2 0x14F JUMPI DUP2 PUSH2 0x139 DUP2 PUSH2 0x16C JUMP JUMPDEST SWAP3 POP POP DUP1 DUP1 PUSH2 0x147 SWAP1 PUSH2 0x16C JUMP JUMPDEST SWAP2 POP POP PUSH2 0x127 JUMP JUMPDEST POP POP POP JUMP JUMPDEST PUSH1 0x0 PUSH1 0x20 DUP3 DUP5 SUB SLT ISZERO PUSH2 0x165 JUMPI DUP1 DUP2 REVERT JUMPDEST POP CALLDATALOAD SWAP2 SWAP1 POP JUMP JUMPDEST PUSH1 0x0 PUSH1 0x0 NOT DUP3 EQ ISZERO PUSH2 0x1A5 JUMPI PUSH32 0x4E487B7100000000000000000000000000000000000000000000000000000000 DUP2 MSTORE PUSH1 0x11 PUSH1 0x4 MSTORE PUSH1 0x24 DUP2 REVERT JUMPDEST POP PUSH1 0x1 ADD SWAP1 JUMP INVALID LOG2 PUSH5 0x6970667358 0x22 SLT KECCAK256 0xAB PUSH31 0xBBD7AE97445399F9419ED4E690F5887AE6D4A98785CBC6763537FBEB67664 PUSH20 0x6F6C634300080400330000000000000000000000 "
        },
        "methodIdentifiers": {
          "arrState(uint256)": "7437040d",
          "doCountLocal()": "9fba6335",
          "doCountState()": "16ac3bbb",
          "getValue()": "20965255",
          "setValue(int256)": "5093dc7d",
          "setValueNegative(int256)": "43353c90"
        }
      }
    }
  }
}