{
  "_format": "hh-sol-artifact-1",
  "contractName": "DrNFT",
  "sourceName": "contracts/DrNFT.sol",
  "abi": [
    {
      "inputs": [],
      "stateMutability": "nonpayable",
      "type": "constructor"
    },
    {
      "anonymous": false,
      "inputs": [
        {
          "indexed": true,
          "internalType": "address",
          "name": "owner",
          "type": "address"
        },
        {
          "indexed": true,
          "internalType": "address",
          "name": "approved",
          "type": "address"
        },
        {
          "indexed": true,
          "internalType": "uint256",
          "name": "tokenId",
          "type": "uint256"
        }
      ],
      "name": "Approval",
      "type": "event"
    },
    {
      "anonymous": false,
      "inputs": [
        {
          "indexed": true,
          "internalType": "address",
          "name": "owner",
          "type": "address"
        },
        {
          "indexed": true,
          "internalType": "address",
          "name": "operator",
          "type": "address"
        },
        {
          "indexed": false,
          "internalType": "bool",
          "name": "approved",
          "type": "bool"
        }
      ],
      "name": "ApprovalForAll",
      "type": "event"
    },
    {
      "anonymous": false,
      "inputs": [
        {
          "indexed": true,
          "internalType": "address",
          "name": "previousOwner",
          "type": "address"
        },
        {
          "indexed": true,
          "internalType": "address",
          "name": "newOwner",
          "type": "address"
        }
      ],
      "name": "OwnershipTransferred",
      "type": "event"
    },
    {
      "anonymous": false,
      "inputs": [
        {
          "indexed": true,
          "internalType": "address",
          "name": "from",
          "type": "address"
        },
        {
          "indexed": true,
          "internalType": "address",
          "name": "to",
          "type": "address"
        },
        {
          "indexed": true,
          "internalType": "uint256",
          "name": "tokenId",
          "type": "uint256"
        }
      ],
      "name": "Transfer",
      "type": "event"
    },
    {
      "inputs": [
        {
          "internalType": "address",
          "name": "to",
          "type": "address"
        },
        {
          "internalType": "uint256",
          "name": "tokenId",
          "type": "uint256"
        }
      ],
      "name": "approve",
      "outputs": [],
      "stateMutability": "nonpayable",
      "type": "function"
    },
    {
      "inputs": [
        {
          "internalType": "address",
          "name": "owner",
          "type": "address"
        }
      ],
      "name": "balanceOf",
      "outputs": [
        {
          "internalType": "uint256",
          "name": "",
          "type": "uint256"
        }
      ],
      "stateMutability": "view",
      "type": "function"
    },
    {
      "inputs": [
        {
          "internalType": "uint256",
          "name": "tokenId",
          "type": "uint256"
        }
      ],
      "name": "burn",
      "outputs": [],
      "stateMutability": "nonpayable",
      "type": "function"
    },
    {
      "inputs": [
        {
          "internalType": "uint256",
          "name": "tokenId",
          "type": "uint256"
        }
      ],
      "name": "getApproved",
      "outputs": [
        {
          "internalType": "address",
          "name": "",
          "type": "address"
        }
      ],
      "stateMutability": "view",
      "type": "function"
    },
    {
      "inputs": [
        {
          "internalType": "address",
          "name": "owner",
          "type": "address"
        },
        {
          "internalType": "address",
          "name": "operator",
          "type": "address"
        }
      ],
      "name": "isApprovedForAll",
      "outputs": [
        {
          "internalType": "bool",
          "name": "",
          "type": "bool"
        }
      ],
      "stateMutability": "view",
      "type": "function"
    },
    {
      "inputs": [
        {
          "internalType": "address",
          "name": "toAddress",
          "type": "address"
        },
        {
          "internalType": "string",
          "name": "newTokenURI",
          "type": "string"
        }
      ],
      "name": "mint",
      "outputs": [],
      "stateMutability": "nonpayable",
      "type": "function"
    },
    {
      "inputs": [],
      "name": "name",
      "outputs": [
        {
          "internalType": "string",
          "name": "",
          "type": "string"
        }
      ],
      "stateMutability": "view",
      "type": "function"
    },
    {
      "inputs": [
        {
          "internalType": "address",
          "name": "",
          "type": "address"
        },
        {
          "internalType": "address",
          "name": "",
          "type": "address"
        },
        {
          "internalType": "uint256",
          "name": "",
          "type": "uint256"
        },
        {
          "internalType": "bytes",
          "name": "",
          "type": "bytes"
        }
      ],
      "name": "onERC721Received",
      "outputs": [
        {
          "internalType": "bytes4",
          "name": "",
          "type": "bytes4"
        }
      ],
      "stateMutability": "nonpayable",
      "type": "function"
    },
    {
      "inputs": [],
      "name": "owner",
      "outputs": [
        {
          "internalType": "address",
          "name": "",
          "type": "address"
        }
      ],
      "stateMutability": "view",
      "type": "function"
    },
    {
      "inputs": [
        {
          "internalType": "uint256",
          "name": "tokenId",
          "type": "uint256"
        }
      ],
      "name": "ownerOf",
      "outputs": [
        {
          "internalType": "address",
          "name": "",
          "type": "address"
        }
      ],
      "stateMutability": "view",
      "type": "function"
    },
    {
      "inputs": [],
      "name": "renounceOwnership",
      "outputs": [],
      "stateMutability": "nonpayable",
      "type": "function"
    },
    {
      "inputs": [
        {
          "internalType": "address",
          "name": "from",
          "type": "address"
        },
        {
          "internalType": "address",
          "name": "to",
          "type": "address"
        },
        {
          "internalType": "uint256",
          "name": "tokenId",
          "type": "uint256"
        }
      ],
      "name": "safeTransferFrom",
      "outputs": [],
      "stateMutability": "nonpayable",
      "type": "function"
    },
    {
      "inputs": [
        {
          "internalType": "address",
          "name": "from",
          "type": "address"
        },
        {
          "internalType": "address",
          "name": "to",
          "type": "address"
        },
        {
          "internalType": "uint256",
          "name": "tokenId",
          "type": "uint256"
        },
        {
          "internalType": "bytes",
          "name": "_data",
          "type": "bytes"
        }
      ],
      "name": "safeTransferFrom",
      "outputs": [],
      "stateMutability": "nonpayable",
      "type": "function"
    },
    {
      "inputs": [
        {
          "internalType": "address",
          "name": "operator",
          "type": "address"
        },
        {
          "internalType": "bool",
          "name": "approved",
          "type": "bool"
        }
      ],
      "name": "setApprovalForAll",
      "outputs": [],
      "stateMutability": "nonpayable",
      "type": "function"
    },
    {
      "inputs": [
        {
          "internalType": "string",
          "name": "baseURI_",
          "type": "string"
        }
      ],
      "name": "setBaseURI",
      "outputs": [],
      "stateMutability": "nonpayable",
      "type": "function"
    },
    {
      "inputs": [
        {
          "internalType": "bytes4",
          "name": "interfaceId",
          "type": "bytes4"
        }
      ],
      "name": "supportsInterface",
      "outputs": [
        {
          "internalType": "bool",
          "name": "",
          "type": "bool"
        }
      ],
      "stateMutability": "view",
      "type": "function"
    },
    {
      "inputs": [],
      "name": "symbol",
      "outputs": [
        {
          "internalType": "string",
          "name": "",
          "type": "string"
        }
      ],
      "stateMutability": "view",
      "type": "function"
    },
    {
      "inputs": [
        {
          "internalType": "uint256",
          "name": "index",
          "type": "uint256"
        }
      ],
      "name": "tokenByIndex",
      "outputs": [
        {
          "internalType": "uint256",
          "name": "",
          "type": "uint256"
        }
      ],
      "stateMutability": "view",
      "type": "function"
    },
    {
      "inputs": [
        {
          "internalType": "address",
          "name": "owner",
          "type": "address"
        },
        {
          "internalType": "uint256",
          "name": "index",
          "type": "uint256"
        }
      ],
      "name": "tokenOfOwnerByIndex",
      "outputs": [
        {
          "internalType": "uint256",
          "name": "",
          "type": "uint256"
        }
      ],
      "stateMutability": "view",
      "type": "function"
    },
    {
      "inputs": [
        {
          "internalType": "uint256",
          "name": "tokenId",
          "type": "uint256"
        }
      ],
      "name": "tokenURI",
      "outputs": [
        {
          "internalType": "string",
          "name": "",
          "type": "string"
        }
      ],
      "stateMutability": "view",
      "type": "function"
    },
    {
      "inputs": [],
      "name": "totalSupply",
      "outputs": [
        {
          "internalType": "uint256",
          "name": "",
          "type": "uint256"
        }
      ],
      "stateMutability": "view",
      "type": "function"
    },
    {
      "inputs": [
        {
          "internalType": "address",
          "name": "from",
          "type": "address"
        },
        {
          "internalType": "address",
          "name": "to",
          "type": "address"
        },
        {
          "internalType": "uint256",
          "name": "tokenId",
          "type": "uint256"
        }
      ],
      "name": "transferFrom",
      "outputs": [],
      "stateMutability": "nonpayable",
      "type": "function"
    },
    {
      "inputs": [
        {
          "internalType": "address",
          "name": "newOwner",
          "type": "address"
        }
      ],
      "name": "transferOwnership",
      "outputs": [],
      "stateMutability": "nonpayable",
      "type": "function"
    }
  ],
  "bytecode": "0x60806040523480156200001157600080fd5b50604080518082018252600a815269111bd8dd1bdc8813919560b21b602080830191825283518085019094526005845264111493919560da1b9084015281519192916200006191600091620000f0565b50805162000077906001906020840190620000f0565b505050620000946200008e6200009a60201b60201c565b6200009e565b620001d3565b3390565b600680546001600160a01b038381166001600160a01b0319831681179093556040519116919082907f8be0079c531659141344cd1fd0a4f28419497f9722a3daafe3b4186f6b6457e090600090a35050565b828054620000fe9062000196565b90600052602060002090601f0160209004810192826200012257600085556200016d565b82601f106200013d57805160ff19168380011785556200016d565b828001600101855582156200016d579182015b828111156200016d57825182559160200191906001019062000150565b506200017b9291506200017f565b5090565b5b808211156200017b576000815560010162000180565b600181811c90821680620001ab57607f821691505b60208210811415620001cd57634e487b7160e01b600052602260045260246000fd5b50919050565b61258f80620001e36000396000f3fe608060405234801561001057600080fd5b506004361061018d5760003560e01c806355f804b3116100e3578063a22cb4651161008c578063d0def52111610066578063d0def5211461034b578063e985e9c51461035e578063f2fde38b1461039a57600080fd5b8063a22cb46514610312578063b88d4fde14610325578063c87b56dd1461033857600080fd5b8063715018a6116100bd578063715018a6146102f15780638da5cb5b146102f957806395d89b411461030a57600080fd5b806355f804b3146102b85780636352211e146102cb57806370a08231146102de57600080fd5b806318160ddd1161014557806342842e0e1161011f57806342842e0e1461027f57806342966c68146102925780634f6ccce7146102a557600080fd5b806318160ddd1461024757806323b872dd146102595780632f745c591461026c57600080fd5b8063081812fc11610176578063081812fc146101cf578063095ea7b3146101fa578063150b7a021461020f57600080fd5b806301ffc9a71461019257806306fdde03146101ba575b600080fd5b6101a56101a03660046122dd565b6103ad565b60405190151581526020015b60405180910390f35b6101c26103f1565b6040516101b191906123f7565b6101e26101dd366004612348565b610483565b6040516001600160a01b0390911681526020016101b1565b61020d6102083660046122b4565b61052e565b005b61022e61021d36600461211f565b630a85bd0160e11b95945050505050565b6040516001600160e01b031990911681526020016101b1565b600a545b6040519081526020016101b1565b61020d6102673660046120e4565b610660565b61024b61027a3660046122b4565b6106e8565b61020d61028d3660046120e4565b610790565b61020d6102a0366004612348565b6107ab565b61024b6102b3366004612348565b610832565b61020d6102c6366004612315565b6108ba565b6101e26102d9366004612348565b61092b565b61024b6102ec366004612098565b6109b6565b61020d610a50565b6006546001600160a01b03166101e2565b6101c2610ab6565b61020d61032036600461222e565b610ac5565b61020d6103333660046121b5565b610ad0565b6101c2610346366004612348565b610b5e565b61020d610359366004612268565b610b69565b6101a561036c3660046120b2565b6001600160a01b03918216600090815260056020908152604080832093909416825291909152205460ff1690565b61020d6103a8366004612098565b610bf2565b60006001600160e01b031982167f780e9d630000000000000000000000000000000000000000000000000000000014806103eb57506103eb82610cd1565b92915050565b60606000805461040090612479565b80601f016020809104026020016040519081016040528092919081815260200182805461042c90612479565b80156104795780601f1061044e57610100808354040283529160200191610479565b820191906000526020600020905b81548152906001019060200180831161045c57829003601f168201915b5050505050905090565b6000818152600260205260408120546001600160a01b03166105125760405162461bcd60e51b815260206004820152602c60248201527f4552433732313a20617070726f76656420717565727920666f72206e6f6e657860448201527f697374656e7420746f6b656e000000000000000000000000000000000000000060648201526084015b60405180910390fd5b506000908152600460205260409020546001600160a01b031690565b60006105398261092b565b9050806001600160a01b0316836001600160a01b031614156105c35760405162461bcd60e51b815260206004820152602160248201527f4552433732313a20617070726f76616c20746f2063757272656e74206f776e6560448201527f72000000000000000000000000000000000000000000000000000000000000006064820152608401610509565b336001600160a01b03821614806105df57506105df813361036c565b6106515760405162461bcd60e51b815260206004820152603860248201527f4552433732313a20617070726f76652063616c6c6572206973206e6f74206f7760448201527f6e6572206e6f7220617070726f76656420666f7220616c6c00000000000000006064820152608401610509565b61065b8383610d0f565b505050565b61066b335b82610d8a565b6106dd5760405162461bcd60e51b815260206004820152603160248201527f4552433732313a207472616e736665722063616c6c6572206973206e6f74206f60448201527f776e6572206e6f7220617070726f7665640000000000000000000000000000006064820152608401610509565b61065b838383610e92565b60006106f3836109b6565b82106107675760405162461bcd60e51b815260206004820152602b60248201527f455243373231456e756d657261626c653a206f776e657220696e646578206f7560448201527f74206f6620626f756e64730000000000000000000000000000000000000000006064820152608401610509565b506001600160a01b03919091166000908152600860209081526040808320938352929052205490565b61065b83838360405180602001604052806000815250610ad0565b6107b433610665565b6108265760405162461bcd60e51b815260206004820152603060248201527f4552433732314275726e61626c653a2063616c6c6572206973206e6f74206f7760448201527f6e6572206e6f7220617070726f766564000000000000000000000000000000006064820152608401610509565b61082f81611077565b50565b600061083d600a5490565b82106108b15760405162461bcd60e51b815260206004820152602c60248201527f455243373231456e756d657261626c653a20676c6f62616c20696e646578206f60448201527f7574206f6620626f756e647300000000000000000000000000000000000000006064820152608401610509565b6103eb826110b7565b6006546001600160a01b031633146109145760405162461bcd60e51b815260206004820181905260248201527f4f776e61626c653a2063616c6c6572206973206e6f7420746865206f776e65726044820152606401610509565b805161092790600d906020840190611f18565b5050565b6000818152600260205260408120546001600160a01b0316806103eb5760405162461bcd60e51b815260206004820152602960248201527f4552433732313a206f776e657220717565727920666f72206e6f6e657869737460448201527f656e7420746f6b656e00000000000000000000000000000000000000000000006064820152608401610509565b60006001600160a01b038216610a345760405162461bcd60e51b815260206004820152602a60248201527f4552433732313a2062616c616e636520717565727920666f7220746865207a6560448201527f726f2061646472657373000000000000000000000000000000000000000000006064820152608401610509565b506001600160a01b031660009081526003602052604090205490565b6006546001600160a01b03163314610aaa5760405162461bcd60e51b815260206004820181905260248201527f4f776e61626c653a2063616c6c6572206973206e6f7420746865206f776e65726044820152606401610509565b610ab46000611169565b565b60606001805461040090612479565b6109273383836111c8565b610ada3383610d8a565b610b4c5760405162461bcd60e51b815260206004820152603160248201527f4552433732313a207472616e736665722063616c6c6572206973206e6f74206f60448201527f776e6572206e6f7220617070726f7665640000000000000000000000000000006064820152608401610509565b610b58848484846112b5565b50505050565b60606103eb8261133e565b6006546001600160a01b03163314610bc35760405162461bcd60e51b815260206004820181905260248201527f4f776e61626c653a2063616c6c6572206973206e6f7420746865206f776e65726044820152606401610509565b610bd1600e80546001019055565b6000610bdc600e5490565b9050610be883826114bc565b61065b81836114d6565b6006546001600160a01b03163314610c4c5760405162461bcd60e51b815260206004820181905260248201527f4f776e61626c653a2063616c6c6572206973206e6f7420746865206f776e65726044820152606401610509565b6001600160a01b038116610cc85760405162461bcd60e51b815260206004820152602660248201527f4f776e61626c653a206e6577206f776e657220697320746865207a65726f206160448201527f64647265737300000000000000000000000000000000000000000000000000006064820152608401610509565b61082f81611169565b60006001600160e01b031982167f780e9d630000000000000000000000000000000000000000000000000000000014806103eb57506103eb8261157f565b6000818152600460205260409020805473ffffffffffffffffffffffffffffffffffffffff19166001600160a01b0384169081179091558190610d518261092b565b6001600160a01b03167f8c5be1e5ebec7d5bd14f71427d1e84f3dd0314c0f7b2291e5b200ac8c7c3b92560405160405180910390a45050565b6000818152600260205260408120546001600160a01b0316610e145760405162461bcd60e51b815260206004820152602c60248201527f4552433732313a206f70657261746f7220717565727920666f72206e6f6e657860448201527f697374656e7420746f6b656e00000000000000000000000000000000000000006064820152608401610509565b6000610e1f8361092b565b9050806001600160a01b0316846001600160a01b03161480610e5a5750836001600160a01b0316610e4f84610483565b6001600160a01b0316145b80610e8a57506001600160a01b0380821660009081526005602090815260408083209388168352929052205460ff165b949350505050565b826001600160a01b0316610ea58261092b565b6001600160a01b031614610f215760405162461bcd60e51b815260206004820152602560248201527f4552433732313a207472616e736665722066726f6d20696e636f72726563742060448201527f6f776e65720000000000000000000000000000000000000000000000000000006064820152608401610509565b6001600160a01b038216610f9c5760405162461bcd60e51b8152602060048201526024808201527f4552433732313a207472616e7366657220746f20746865207a65726f2061646460448201527f72657373000000000000000000000000000000000000000000000000000000006064820152608401610509565b610fa783838361161a565b610fb2600082610d0f565b6001600160a01b0383166000908152600360205260408120805460019290610fdb908490612436565b90915550506001600160a01b038216600090815260036020526040812080546001929061100990849061240a565b9091555050600081815260026020526040808220805473ffffffffffffffffffffffffffffffffffffffff19166001600160a01b0386811691821790925591518493918716917fddf252ad1be2c89b69c2b068fc378daa952ba7f163c4a11628f55a4df523b3ef91a4505050565b61108081611625565b6000818152600c60205260409020805461109990612479565b15905061082f576000818152600c6020526040812061082f91611f9c565b60006110c2600a5490565b82106111365760405162461bcd60e51b815260206004820152602c60248201527f455243373231456e756d657261626c653a20676c6f62616c20696e646578206f60448201527f7574206f6620626f756e647300000000000000000000000000000000000000006064820152608401610509565b600a828154811061115757634e487b7160e01b600052603260045260246000fd5b90600052602060002001549050919050565b600680546001600160a01b0383811673ffffffffffffffffffffffffffffffffffffffff19831681179093556040519116919082907f8be0079c531659141344cd1fd0a4f28419497f9722a3daafe3b4186f6b6457e090600090a35050565b816001600160a01b0316836001600160a01b0316141561122a5760405162461bcd60e51b815260206004820152601960248201527f4552433732313a20617070726f766520746f2063616c6c6572000000000000006044820152606401610509565b6001600160a01b0383811660008181526005602090815260408083209487168084529482529182902080547fffffffffffffffffffffffffffffffffffffffffffffffffffffffffffffff001686151590811790915591519182527f17307eab39ab6107e8899845ad3d59bd9653f200f220920489ca2b5937696c31910160405180910390a3505050565b6112c0848484610e92565b6112cc84848484611665565b610b585760405162461bcd60e51b815260206004820152603260248201527f4552433732313a207472616e7366657220746f206e6f6e20455243373231526560448201527f63656976657220696d706c656d656e74657200000000000000000000000000006064820152608401610509565b6000818152600260205260409020546060906001600160a01b03166113cb5760405162461bcd60e51b815260206004820152603160248201527f45524337323155524953746f726167653a2055524920717565727920666f722060448201527f6e6f6e6578697374656e7420746f6b656e0000000000000000000000000000006064820152608401610509565b600082815260076020526040812080546113e490612479565b80601f016020809104026020016040519081016040528092919081815260200182805461141090612479565b801561145d5780601f106114325761010080835404028352916020019161145d565b820191906000526020600020905b81548152906001019060200180831161144057829003601f168201915b50505050509050600061146e6117c8565b9050805160001415611481575092915050565b8151156114b357808260405160200161149b92919061238c565b60405160208183030381529060405292505050919050565b610e8a846117d7565b6109278282604051806020016040528060008152506118c0565b6000828152600260205260409020546001600160a01b03166115605760405162461bcd60e51b815260206004820152602e60248201527f45524337323155524953746f726167653a2055524920736574206f66206e6f6e60448201527f6578697374656e7420746f6b656e0000000000000000000000000000000000006064820152608401610509565b6000828152600760209081526040909120825161065b92840190611f18565b60006001600160e01b031982167f80ac58cd0000000000000000000000000000000000000000000000000000000014806115e257506001600160e01b031982167f5b5e139f00000000000000000000000000000000000000000000000000000000145b806103eb57507f01ffc9a7000000000000000000000000000000000000000000000000000000006001600160e01b03198316146103eb565b61065b838383611949565b61162e81611a01565b6000818152600760205260409020805461164790612479565b15905061082f57600081815260076020526040812061082f91611f9c565b60006001600160a01b0384163b156117bd57604051630a85bd0160e11b81526001600160a01b0385169063150b7a02906116a99033908990889088906004016123bb565b602060405180830381600087803b1580156116c357600080fd5b505af19250505080156116f3575060408051601f3d908101601f191682019092526116f0918101906122f9565b60015b6117a3573d808015611721576040519150601f19603f3d011682016040523d82523d6000602084013e611726565b606091505b50805161179b5760405162461bcd60e51b815260206004820152603260248201527f4552433732313a207472616e7366657220746f206e6f6e20455243373231526560448201527f63656976657220696d706c656d656e74657200000000000000000000000000006064820152608401610509565b805181602001fd5b6001600160e01b031916630a85bd0160e11b149050610e8a565b506001949350505050565b6060600d805461040090612479565b6000818152600260205260409020546060906001600160a01b03166118645760405162461bcd60e51b815260206004820152602f60248201527f4552433732314d657461646174613a2055524920717565727920666f72206e6f60448201527f6e6578697374656e7420746f6b656e00000000000000000000000000000000006064820152608401610509565b600061186e6117c8565b9050600081511161188e57604051806020016040528060008152506118b9565b8061189884611ab5565b6040516020016118a992919061238c565b6040516020818303038152906040525b9392505050565b6118ca8383611c03565b6118d76000848484611665565b61065b5760405162461bcd60e51b815260206004820152603260248201527f4552433732313a207472616e7366657220746f206e6f6e20455243373231526560448201527f63656976657220696d706c656d656e74657200000000000000000000000000006064820152608401610509565b6001600160a01b0383166119a45761199f81600a80546000838152600b60205260408120829055600182018355919091527fc65a7bb8d6351c1cf70c95a316cc6a92839c986682d98bc35f958f4883f9d2a80155565b6119c7565b816001600160a01b0316836001600160a01b0316146119c7576119c78382611d5e565b6001600160a01b0382166119de5761065b81611dfb565b826001600160a01b0316826001600160a01b03161461065b5761065b8282611ed4565b6000611a0c8261092b565b9050611a1a8160008461161a565b611a25600083610d0f565b6001600160a01b0381166000908152600360205260408120805460019290611a4e908490612436565b9091555050600082815260026020526040808220805473ffffffffffffffffffffffffffffffffffffffff19169055518391906001600160a01b038416907fddf252ad1be2c89b69c2b068fc378daa952ba7f163c4a11628f55a4df523b3ef908390a45050565b606081611af557505060408051808201909152600181527f3000000000000000000000000000000000000000000000000000000000000000602082015290565b8160005b8115611b1f5780611b09816124b4565b9150611b189050600a83612422565b9150611af9565b60008167ffffffffffffffff811115611b4857634e487b7160e01b600052604160045260246000fd5b6040519080825280601f01601f191660200182016040528015611b72576020820181803683370190505b5090505b8415610e8a57611b87600183612436565b9150611b94600a866124ed565b611b9f90603061240a565b60f81b818381518110611bc257634e487b7160e01b600052603260045260246000fd5b60200101907effffffffffffffffffffffffffffffffffffffffffffffffffffffffffffff1916908160001a905350611bfc600a86612422565b9450611b76565b6001600160a01b038216611c595760405162461bcd60e51b815260206004820181905260248201527f4552433732313a206d696e7420746f20746865207a65726f20616464726573736044820152606401610509565b6000818152600260205260409020546001600160a01b031615611cbe5760405162461bcd60e51b815260206004820152601c60248201527f4552433732313a20746f6b656e20616c7265616479206d696e746564000000006044820152606401610509565b611cca6000838361161a565b6001600160a01b0382166000908152600360205260408120805460019290611cf390849061240a565b9091555050600081815260026020526040808220805473ffffffffffffffffffffffffffffffffffffffff19166001600160a01b03861690811790915590518392907fddf252ad1be2c89b69c2b068fc378daa952ba7f163c4a11628f55a4df523b3ef908290a45050565b60006001611d6b846109b6565b611d759190612436565b600083815260096020526040902054909150808214611dc8576001600160a01b03841660009081526008602090815260408083208584528252808320548484528184208190558352600990915290208190555b5060009182526009602090815260408084208490556001600160a01b039094168352600881528383209183525290812055565b600a54600090611e0d90600190612436565b6000838152600b6020526040812054600a8054939450909284908110611e4357634e487b7160e01b600052603260045260246000fd5b9060005260206000200154905080600a8381548110611e7257634e487b7160e01b600052603260045260246000fd5b6000918252602080832090910192909255828152600b9091526040808220849055858252812055600a805480611eb857634e487b7160e01b600052603160045260246000fd5b6001900381819060005260206000200160009055905550505050565b6000611edf836109b6565b6001600160a01b039093166000908152600860209081526040808320868452825280832085905593825260099052919091209190915550565b828054611f2490612479565b90600052602060002090601f016020900481019282611f465760008555611f8c565b82601f10611f5f57805160ff1916838001178555611f8c565b82800160010185558215611f8c579182015b82811115611f8c578251825591602001919060010190611f71565b50611f98929150611fd2565b5090565b508054611fa890612479565b6000825580601f10611fb8575050565b601f01602090049060005260206000209081019061082f91905b5b80821115611f985760008155600101611fd3565b600067ffffffffffffffff808411156120025761200261252d565b604051601f8501601f19908116603f0116810190828211818310171561202a5761202a61252d565b8160405280935085815286868601111561204357600080fd5b858560208301376000602087830101525050509392505050565b80356001600160a01b038116811461207457600080fd5b919050565b600082601f830112612089578081fd5b6118b983833560208501611fe7565b6000602082840312156120a9578081fd5b6118b98261205d565b600080604083850312156120c4578081fd5b6120cd8361205d565b91506120db6020840161205d565b90509250929050565b6000806000606084860312156120f8578081fd5b6121018461205d565b925061210f6020850161205d565b9150604084013590509250925092565b600080600080600060808688031215612136578081fd5b61213f8661205d565b945061214d6020870161205d565b935060408601359250606086013567ffffffffffffffff80821115612170578283fd5b818801915088601f830112612183578283fd5b813581811115612191578384fd5b8960208285010111156121a2578384fd5b9699959850939650602001949392505050565b600080600080608085870312156121ca578384fd5b6121d38561205d565b93506121e16020860161205d565b925060408501359150606085013567ffffffffffffffff811115612203578182fd5b8501601f81018713612213578182fd5b61222287823560208401611fe7565b91505092959194509250565b60008060408385031215612240578182fd5b6122498361205d565b91506020830135801515811461225d578182fd5b809150509250929050565b6000806040838503121561227a578182fd5b6122838361205d565b9150602083013567ffffffffffffffff81111561229e578182fd5b6122aa85828601612079565b9150509250929050565b600080604083850312156122c6578182fd5b6122cf8361205d565b946020939093013593505050565b6000602082840312156122ee578081fd5b81356118b981612543565b60006020828403121561230a578081fd5b81516118b981612543565b600060208284031215612326578081fd5b813567ffffffffffffffff81111561233c578182fd5b610e8a84828501612079565b600060208284031215612359578081fd5b5035919050565b6000815180845261237881602086016020860161244d565b601f01601f19169290920160200192915050565b6000835161239e81846020880161244d565b8351908301906123b281836020880161244d565b01949350505050565b60006001600160a01b038087168352808616602084015250836040830152608060608301526123ed6080830184612360565b9695505050505050565b6020815260006118b96020830184612360565b6000821982111561241d5761241d612501565b500190565b60008261243157612431612517565b500490565b60008282101561244857612448612501565b500390565b60005b83811015612468578181015183820152602001612450565b83811115610b585750506000910152565b600181811c9082168061248d57607f821691505b602082108114156124ae57634e487b7160e01b600052602260045260246000fd5b50919050565b60007fffffffffffffffffffffffffffffffffffffffffffffffffffffffffffffffff8214156124e6576124e6612501565b5060010190565b6000826124fc576124fc612517565b500690565b634e487b7160e01b600052601160045260246000fd5b634e487b7160e01b600052601260045260246000fd5b634e487b7160e01b600052604160045260246000fd5b6001600160e01b03198116811461082f57600080fdfea2646970667358221220ee5c668a2c2b91885fec16d9daca0d02a727598fa027c4a59719f91197d67ef664736f6c63430008040033",
  "linkReferences": {},
  "deployedLinkReferences": {}
}