{
  "contracts/HelloSol.sol": {
    "HelloSol": {
      "abi": [
        {
          "inputs": [],
          "name": "doNotUseKeccak256",
          "outputs": [],
          "stateMutability": "nonpayable",
          "type": "function"
        },
        {
          "inputs": [
            {
              "internalType": "uint256",
              "name": "iterations",
              "type": "uint256"
            }
          ],
          "name": "expLoop",
          "outputs": [],
          "stateMutability": "nonpayable",
          "type": "function"
        },
        {
          "inputs": [
            {
              "internalType": "string",
              "name": "_text",
              "type": "string"
            },
            {
              "internalType": "uint256",
              "name": "_num",
              "type": "uint256"
            },
            {
              "internalType": "address",
              "name": "_addr",
              "type": "address"
            }
          ],
          "name": "expUseKeccak256",
          "outputs": [],
          "stateMutability": "nonpayable",
          "type": "function"
        },
        {
          "inputs": [],
          "name": "getBytes",
          "outputs": [
            {
              "internalType": "bytes32",
              "name": "",
              "type": "bytes32"
            }
          ],
          "stateMutability": "view",
          "type": "function"
        },
        {
          "inputs": [],
          "name": "getKeccak256",
          "outputs": [
            {
              "internalType": "bytes32",
              "name": "",
              "type": "bytes32"
            }
          ],
          "stateMutability": "view",
          "type": "function"
        },
        {
          "inputs": [],
          "name": "getStorageValue",
          "outputs": [
            {
              "internalType": "uint256",
              "name": "",
              "type": "uint256"
            }
          ],
          "stateMutability": "view",
          "type": "function"
        },
        {
          "inputs": [],
          "name": "getString",
          "outputs": [
            {
              "internalType": "string",
              "name": "",
              "type": "string"
            }
          ],
          "stateMutability": "view",
          "type": "function"
        },
        {
          "inputs": [
            {
              "internalType": "uint256",
              "name": "iterations",
              "type": "uint256"
            }
          ],
          "name": "optLoop",
          "outputs": [],
          "stateMutability": "nonpayable",
          "type": "function"
        },
        {
          "inputs": [
            {
              "internalType": "bytes32",
              "name": "newBytes",
              "type": "bytes32"
            }
          ],
          "name": "setBytes",
          "outputs": [],
          "stateMutability": "nonpayable",
          "type": "function"
        },
        {
          "inputs": [
            {
              "internalType": "uint256",
              "name": "x",
              "type": "uint256"
            },
            {
              "internalType": "uint256",
              "name": "y",
              "type": "uint256"
            }
          ],
          "name": "setDiv",
          "outputs": [],
          "stateMutability": "nonpayable",
          "type": "function"
        },
        {
          "inputs": [
            {
              "internalType": "uint256",
              "name": "x",
              "type": "uint256"
            },
            {
              "internalType": "uint256",
              "name": "y",
              "type": "uint256"
            }
          ],
          "name": "setDivAsm",
          "outputs": [],
          "stateMutability": "nonpayable",
          "type": "function"
        },
        {
          "inputs": [
            {
              "internalType": "uint256",
              "name": "newValue",
              "type": "uint256"
            }
          ],
          "name": "setMemoryValue",
          "outputs": [
            {
              "internalType": "uint256",
              "name": "",
              "type": "uint256"
            }
          ],
          "stateMutability": "pure",
          "type": "function"
        },
        {
          "inputs": [
            {
              "internalType": "uint256",
              "name": "newValue",
              "type": "uint256"
            }
          ],
          "name": "setStorageValue",
          "outputs": [],
          "stateMutability": "nonpayable",
          "type": "function"
        },
        {
          "inputs": [
            {
              "internalType": "uint256",
              "name": "newValue",
              "type": "uint256"
            }
          ],
          "name": "setStorageValueExt",
          "outputs": [],
          "stateMutability": "nonpayable",
          "type": "function"
        },
        {
          "inputs": [
            {
              "internalType": "string",
              "name": "newString",
              "type": "string"
            }
          ],
          "name": "setString",
          "outputs": [],
          "stateMutability": "nonpayable",
          "type": "function"
        },
        {
          "inputs": [
            {
              "internalType": "string",
              "name": "newString",
              "type": "string"
            }
          ],
          "name": "setStringCalldata",
          "outputs": [],
          "stateMutability": "nonpayable",
          "type": "function"
        }
      ],
      "evm": {
        "bytecode": {
          "linkReferences": {},
          "object": "608060405234801561001057600080fd5b506107fd806100206000396000f3fe608060405234801561001057600080fd5b50600436106101005760003560e01c80638dfa3a5a11610097578063bd63f50711610066578063bd63f507146101de578063dcc25bf0146101f1578063e4c6827914610204578063e6748da91461021757600080fd5b80638dfa3a5a146101b057806390ad7f54146101c357806393861c50146101cb578063a9de99f31461011c57600080fd5b806338cdccec116100d357806338cdccec1461014e57806377f428d61461015f5780637fcaf6661461018857806389ea642f1461019b57600080fd5b80630bcd3b33146101055780632b8221de1461011c5780632c9dc749146101315780632d53b35314610146575b600080fd5b6003545b6040519081526020015b60405180910390f35b61012f61012a366004610530565b600155565b005b61012f61013f366004610654565b9004600155565b600654610109565b61010961015c366004610530565b90565b61012f7f9aa569ae2e35d886c7a456cc32b7dd7cd61ecbb0f489b03214cbb5255a6e3aa9600655565b61012f6101963660046105b5565b61022a565b6101a3610241565b60405161011391906106c0565b61012f6101be366004610548565b6102d3565b600154610109565b61012f6101d9366004610530565b6102e4565b61012f6101ec366004610654565b610316565b61012f6101ff366004610530565b610327565b61012f6102123660046105f0565b610367565b61012f610225366004610530565b600355565b805161023d90600290602084019061039c565b5050565b60606002805461025090610745565b80601f016020809104026020016040519081016040528092919081815260200182805461027c90610745565b80156102c95780601f1061029e576101008083540402835291602001916102c9565b820191906000526020600020905b8154815290600101906020018083116102ac57829003601f168201915b5050505050905090565b6102df60028383610420565b505050565b6000805b8281101561030f576102fb60018361070d565b91508061030781610780565b9150506102e8565b5060015550565b6103208183610725565b6001555050565b60005b8181101561035d57600160056000828254610345919061070d565b9091555081905061035581610780565b91505061032a565b5050600554600155565b82828260405160200161037c939291906106da565b60408051601f198184030181529190528051602090910120600655505050565b8280546103a890610745565b90600052602060002090601f0160209004810192826103ca5760008555610410565b82601f106103e357805160ff1916838001178555610410565b82800160010185558215610410579182015b828111156104105782518255916020019190600101906103f5565b5061041c929150610494565b5090565b82805461042c90610745565b90600052602060002090601f01602090048101928261044e5760008555610410565b82601f106104675782800160ff19823516178555610410565b82800160010185558215610410579182015b82811115610410578235825591602001919060010190610479565b5b8082111561041c5760008155600101610495565b600082601f8301126104b9578081fd5b813567ffffffffffffffff808211156104d4576104d46107b1565b604051601f8301601f19908116603f011681019082821181831017156104fc576104fc6107b1565b81604052838152866020858801011115610514578485fd5b8360208701602083013792830160200193909352509392505050565b600060208284031215610541578081fd5b5035919050565b6000806020838503121561055a578081fd5b823567ffffffffffffffff80821115610571578283fd5b818501915085601f830112610584578283fd5b813581811115610592578384fd5b8660208285010111156105a3578384fd5b60209290920196919550909350505050565b6000602082840312156105c6578081fd5b813567ffffffffffffffff8111156105dc578182fd5b6105e8848285016104a9565b949350505050565b600080600060608486031215610604578081fd5b833567ffffffffffffffff81111561061a578182fd5b610626868287016104a9565b9350506020840135915060408401356001600160a01b0381168114610649578182fd5b809150509250925092565b60008060408385031215610666578182fd5b50508035926020909101359150565b60008151808452815b8181101561069a5760208185018101518683018201520161067e565b818111156106ab5782602083870101525b50601f01601f19169290920160200192915050565b6020815260006106d36020830184610675565b9392505050565b6060815260006106ed6060830186610675565b6020830194909452506001600160a01b0391909116604090910152919050565b600082198211156107205761072061079b565b500190565b60008261074057634e487b7160e01b81526012600452602481fd5b500490565b600181811c9082168061075957607f821691505b6020821081141561077a57634e487b7160e01b600052602260045260246000fd5b50919050565b60006000198214156107945761079461079b565b5060010190565b634e487b7160e01b600052601160045260246000fd5b634e487b7160e01b600052604160045260246000fdfea26469706673582212204639eff1f02d963c0ca9ff2688f7975036d94cc398cf16ad774f46099cd5669a64736f6c63430008040033",
          "opcodes": "PUSH1 0x80 PUSH1 0x40 MSTORE CALLVALUE DUP1 ISZERO PUSH2 0x10 JUMPI PUSH1 0x0 DUP1 REVERT JUMPDEST POP PUSH2 0x7FD DUP1 PUSH2 0x20 PUSH1 0x0 CODECOPY PUSH1 0x0 RETURN INVALID PUSH1 0x80 PUSH1 0x40 MSTORE CALLVALUE DUP1 ISZERO PUSH2 0x10 JUMPI PUSH1 0x0 DUP1 REVERT JUMPDEST POP PUSH1 0x4 CALLDATASIZE LT PUSH2 0x100 JUMPI PUSH1 0x0 CALLDATALOAD PUSH1 0xE0 SHR DUP1 PUSH4 0x8DFA3A5A GT PUSH2 0x97 JUMPI DUP1 PUSH4 0xBD63F507 GT PUSH2 0x66 JUMPI DUP1 PUSH4 0xBD63F507 EQ PUSH2 0x1DE JUMPI DUP1 PUSH4 0xDCC25BF0 EQ PUSH2 0x1F1 JUMPI DUP1 PUSH4 0xE4C68279 EQ PUSH2 0x204 JUMPI DUP1 PUSH4 0xE6748DA9 EQ PUSH2 0x217 JUMPI PUSH1 0x0 DUP1 REVERT JUMPDEST DUP1 PUSH4 0x8DFA3A5A EQ PUSH2 0x1B0 JUMPI DUP1 PUSH4 0x90AD7F54 EQ PUSH2 0x1C3 JUMPI DUP1 PUSH4 0x93861C50 EQ PUSH2 0x1CB JUMPI DUP1 PUSH4 0xA9DE99F3 EQ PUSH2 0x11C JUMPI PUSH1 0x0 DUP1 REVERT JUMPDEST DUP1 PUSH4 0x38CDCCEC GT PUSH2 0xD3 JUMPI DUP1 PUSH4 0x38CDCCEC EQ PUSH2 0x14E JUMPI DUP1 PUSH4 0x77F428D6 EQ PUSH2 0x15F JUMPI DUP1 PUSH4 0x7FCAF666 EQ PUSH2 0x188 JUMPI DUP1 PUSH4 0x89EA642F EQ PUSH2 0x19B JUMPI PUSH1 0x0 DUP1 REVERT JUMPDEST DUP1 PUSH4 0xBCD3B33 EQ PUSH2 0x105 JUMPI DUP1 PUSH4 0x2B8221DE EQ PUSH2 0x11C JUMPI DUP1 PUSH4 0x2C9DC749 EQ PUSH2 0x131 JUMPI DUP1 PUSH4 0x2D53B353 EQ PUSH2 0x146 JUMPI JUMPDEST PUSH1 0x0 DUP1 REVERT JUMPDEST PUSH1 0x3 SLOAD JUMPDEST PUSH1 0x40 MLOAD SWAP1 DUP2 MSTORE PUSH1 0x20 ADD JUMPDEST PUSH1 0x40 MLOAD DUP1 SWAP2 SUB SWAP1 RETURN JUMPDEST PUSH2 0x12F PUSH2 0x12A CALLDATASIZE PUSH1 0x4 PUSH2 0x530 JUMP JUMPDEST PUSH1 0x1 SSTORE JUMP JUMPDEST STOP JUMPDEST PUSH2 0x12F PUSH2 0x13F CALLDATASIZE PUSH1 0x4 PUSH2 0x654 JUMP JUMPDEST SWAP1 DIV PUSH1 0x1 SSTORE JUMP JUMPDEST PUSH1 0x6 SLOAD PUSH2 0x109 JUMP JUMPDEST PUSH2 0x109 PUSH2 0x15C CALLDATASIZE PUSH1 0x4 PUSH2 0x530 JUMP JUMPDEST SWAP1 JUMP JUMPDEST PUSH2 0x12F PUSH32 0x9AA569AE2E35D886C7A456CC32B7DD7CD61ECBB0F489B03214CBB5255A6E3AA9 PUSH1 0x6 SSTORE JUMP JUMPDEST PUSH2 0x12F PUSH2 0x196 CALLDATASIZE PUSH1 0x4 PUSH2 0x5B5 JUMP JUMPDEST PUSH2 0x22A JUMP JUMPDEST PUSH2 0x1A3 PUSH2 0x241 JUMP JUMPDEST PUSH1 0x40 MLOAD PUSH2 0x113 SWAP2 SWAP1 PUSH2 0x6C0 JUMP JUMPDEST PUSH2 0x12F PUSH2 0x1BE CALLDATASIZE PUSH1 0x4 PUSH2 0x548 JUMP JUMPDEST PUSH2 0x2D3 JUMP JUMPDEST PUSH1 0x1 SLOAD PUSH2 0x109 JUMP JUMPDEST PUSH2 0x12F PUSH2 0x1D9 CALLDATASIZE PUSH1 0x4 PUSH2 0x530 JUMP JUMPDEST PUSH2 0x2E4 JUMP JUMPDEST PUSH2 0x12F PUSH2 0x1EC CALLDATASIZE PUSH1 0x4 PUSH2 0x654 JUMP JUMPDEST PUSH2 0x316 JUMP JUMPDEST PUSH2 0x12F PUSH2 0x1FF CALLDATASIZE PUSH1 0x4 PUSH2 0x530 JUMP JUMPDEST PUSH2 0x327 JUMP JUMPDEST PUSH2 0x12F PUSH2 0x212 CALLDATASIZE PUSH1 0x4 PUSH2 0x5F0 JUMP JUMPDEST PUSH2 0x367 JUMP JUMPDEST PUSH2 0x12F PUSH2 0x225 CALLDATASIZE PUSH1 0x4 PUSH2 0x530 JUMP JUMPDEST PUSH1 0x3 SSTORE JUMP JUMPDEST DUP1 MLOAD PUSH2 0x23D SWAP1 PUSH1 0x2 SWAP1 PUSH1 0x20 DUP5 ADD SWAP1 PUSH2 0x39C JUMP JUMPDEST POP POP JUMP JUMPDEST PUSH1 0x60 PUSH1 0x2 DUP1 SLOAD PUSH2 0x250 SWAP1 PUSH2 0x745 JUMP JUMPDEST DUP1 PUSH1 0x1F ADD PUSH1 0x20 DUP1 SWAP2 DIV MUL PUSH1 0x20 ADD PUSH1 0x40 MLOAD SWAP1 DUP2 ADD PUSH1 0x40 MSTORE DUP1 SWAP3 SWAP2 SWAP1 DUP2 DUP2 MSTORE PUSH1 0x20 ADD DUP3 DUP1 SLOAD PUSH2 0x27C SWAP1 PUSH2 0x745 JUMP JUMPDEST DUP1 ISZERO PUSH2 0x2C9 JUMPI DUP1 PUSH1 0x1F LT PUSH2 0x29E JUMPI PUSH2 0x100 DUP1 DUP4 SLOAD DIV MUL DUP4 MSTORE SWAP2 PUSH1 0x20 ADD SWAP2 PUSH2 0x2C9 JUMP JUMPDEST DUP3 ADD SWAP2 SWAP1 PUSH1 0x0 MSTORE PUSH1 0x20 PUSH1 0x0 KECCAK256 SWAP1 JUMPDEST DUP2 SLOAD DUP2 MSTORE SWAP1 PUSH1 0x1 ADD SWAP1 PUSH1 0x20 ADD DUP1 DUP4 GT PUSH2 0x2AC JUMPI DUP3 SWAP1 SUB PUSH1 0x1F AND DUP3 ADD SWAP2 JUMPDEST POP POP POP POP POP SWAP1 POP SWAP1 JUMP JUMPDEST PUSH2 0x2DF PUSH1 0x2 DUP4 DUP4 PUSH2 0x420 JUMP JUMPDEST POP POP POP JUMP JUMPDEST PUSH1 0x0 DUP1 JUMPDEST DUP3 DUP2 LT ISZERO PUSH2 0x30F JUMPI PUSH2 0x2FB PUSH1 0x1 DUP4 PUSH2 0x70D JUMP JUMPDEST SWAP2 POP DUP1 PUSH2 0x307 DUP2 PUSH2 0x780 JUMP JUMPDEST SWAP2 POP POP PUSH2 0x2E8 JUMP JUMPDEST POP PUSH1 0x1 SSTORE POP JUMP JUMPDEST PUSH2 0x320 DUP2 DUP4 PUSH2 0x725 JUMP JUMPDEST PUSH1 0x1 SSTORE POP POP JUMP JUMPDEST PUSH1 0x0 JUMPDEST DUP2 DUP2 LT ISZERO PUSH2 0x35D JUMPI PUSH1 0x1 PUSH1 0x5 PUSH1 0x0 DUP3 DUP3 SLOAD PUSH2 0x345 SWAP2 SWAP1 PUSH2 0x70D JUMP JUMPDEST SWAP1 SWAP2 SSTORE POP DUP2 SWAP1 POP PUSH2 0x355 DUP2 PUSH2 0x780 JUMP JUMPDEST SWAP2 POP POP PUSH2 0x32A JUMP JUMPDEST POP POP PUSH1 0x5 SLOAD PUSH1 0x1 SSTORE JUMP JUMPDEST DUP3 DUP3 DUP3 PUSH1 0x40 MLOAD PUSH1 0x20 ADD PUSH2 0x37C SWAP4 SWAP3 SWAP2 SWAP1 PUSH2 0x6DA JUMP JUMPDEST PUSH1 0x40 DUP1 MLOAD PUSH1 0x1F NOT DUP2 DUP5 SUB ADD DUP2 MSTORE SWAP2 SWAP1 MSTORE DUP1 MLOAD PUSH1 0x20 SWAP1 SWAP2 ADD KECCAK256 PUSH1 0x6 SSTORE POP POP POP JUMP JUMPDEST DUP3 DUP1 SLOAD PUSH2 0x3A8 SWAP1 PUSH2 0x745 JUMP JUMPDEST SWAP1 PUSH1 0x0 MSTORE PUSH1 0x20 PUSH1 0x0 KECCAK256 SWAP1 PUSH1 0x1F ADD PUSH1 0x20 SWAP1 DIV DUP2 ADD SWAP3 DUP3 PUSH2 0x3CA JUMPI PUSH1 0x0 DUP6 SSTORE PUSH2 0x410 JUMP JUMPDEST DUP3 PUSH1 0x1F LT PUSH2 0x3E3 JUMPI DUP1 MLOAD PUSH1 0xFF NOT AND DUP4 DUP1 ADD OR DUP6 SSTORE PUSH2 0x410 JUMP JUMPDEST DUP3 DUP1 ADD PUSH1 0x1 ADD DUP6 SSTORE DUP3 ISZERO PUSH2 0x410 JUMPI SWAP2 DUP3 ADD JUMPDEST DUP3 DUP2 GT ISZERO PUSH2 0x410 JUMPI DUP3 MLOAD DUP3 SSTORE SWAP2 PUSH1 0x20 ADD SWAP2 SWAP1 PUSH1 0x1 ADD SWAP1 PUSH2 0x3F5 JUMP JUMPDEST POP PUSH2 0x41C SWAP3 SWAP2 POP PUSH2 0x494 JUMP JUMPDEST POP SWAP1 JUMP JUMPDEST DUP3 DUP1 SLOAD PUSH2 0x42C SWAP1 PUSH2 0x745 JUMP JUMPDEST SWAP1 PUSH1 0x0 MSTORE PUSH1 0x20 PUSH1 0x0 KECCAK256 SWAP1 PUSH1 0x1F ADD PUSH1 0x20 SWAP1 DIV DUP2 ADD SWAP3 DUP3 PUSH2 0x44E JUMPI PUSH1 0x0 DUP6 SSTORE PUSH2 0x410 JUMP JUMPDEST DUP3 PUSH1 0x1F LT PUSH2 0x467 JUMPI DUP3 DUP1 ADD PUSH1 0xFF NOT DUP3 CALLDATALOAD AND OR DUP6 SSTORE PUSH2 0x410 JUMP JUMPDEST DUP3 DUP1 ADD PUSH1 0x1 ADD DUP6 SSTORE DUP3 ISZERO PUSH2 0x410 JUMPI SWAP2 DUP3 ADD JUMPDEST DUP3 DUP2 GT ISZERO PUSH2 0x410 JUMPI DUP3 CALLDATALOAD DUP3 SSTORE SWAP2 PUSH1 0x20 ADD SWAP2 SWAP1 PUSH1 0x1 ADD SWAP1 PUSH2 0x479 JUMP JUMPDEST JUMPDEST DUP1 DUP3 GT ISZERO PUSH2 0x41C JUMPI PUSH1 0x0 DUP2 SSTORE PUSH1 0x1 ADD PUSH2 0x495 JUMP JUMPDEST PUSH1 0x0 DUP3 PUSH1 0x1F DUP4 ADD SLT PUSH2 0x4B9 JUMPI DUP1 DUP2 REVERT JUMPDEST DUP2 CALLDATALOAD PUSH8 0xFFFFFFFFFFFFFFFF DUP1 DUP3 GT ISZERO PUSH2 0x4D4 JUMPI PUSH2 0x4D4 PUSH2 0x7B1 JUMP JUMPDEST PUSH1 0x40 MLOAD PUSH1 0x1F DUP4 ADD PUSH1 0x1F NOT SWAP1 DUP2 AND PUSH1 0x3F ADD AND DUP2 ADD SWAP1 DUP3 DUP3 GT DUP2 DUP4 LT OR ISZERO PUSH2 0x4FC JUMPI PUSH2 0x4FC PUSH2 0x7B1 JUMP JUMPDEST DUP2 PUSH1 0x40 MSTORE DUP4 DUP2 MSTORE DUP7 PUSH1 0x20 DUP6 DUP9 ADD ADD GT ISZERO PUSH2 0x514 JUMPI DUP5 DUP6 REVERT JUMPDEST DUP4 PUSH1 0x20 DUP8 ADD PUSH1 0x20 DUP4 ADD CALLDATACOPY SWAP3 DUP4 ADD PUSH1 0x20 ADD SWAP4 SWAP1 SWAP4 MSTORE POP SWAP4 SWAP3 POP POP POP JUMP JUMPDEST PUSH1 0x0 PUSH1 0x20 DUP3 DUP5 SUB SLT ISZERO PUSH2 0x541 JUMPI DUP1 DUP2 REVERT JUMPDEST POP CALLDATALOAD SWAP2 SWAP1 POP JUMP JUMPDEST PUSH1 0x0 DUP1 PUSH1 0x20 DUP4 DUP6 SUB SLT ISZERO PUSH2 0x55A JUMPI DUP1 DUP2 REVERT JUMPDEST DUP3 CALLDATALOAD PUSH8 0xFFFFFFFFFFFFFFFF DUP1 DUP3 GT ISZERO PUSH2 0x571 JUMPI DUP3 DUP4 REVERT JUMPDEST DUP2 DUP6 ADD SWAP2 POP DUP6 PUSH1 0x1F DUP4 ADD SLT PUSH2 0x584 JUMPI DUP3 DUP4 REVERT JUMPDEST DUP2 CALLDATALOAD DUP2 DUP2 GT ISZERO PUSH2 0x592 JUMPI DUP4 DUP5 REVERT JUMPDEST DUP7 PUSH1 0x20 DUP3 DUP6 ADD ADD GT ISZERO PUSH2 0x5A3 JUMPI DUP4 DUP5 REVERT JUMPDEST PUSH1 0x20 SWAP3 SWAP1 SWAP3 ADD SWAP7 SWAP2 SWAP6 POP SWAP1 SWAP4 POP POP POP POP JUMP JUMPDEST PUSH1 0x0 PUSH1 0x20 DUP3 DUP5 SUB SLT ISZERO PUSH2 0x5C6 JUMPI DUP1 DUP2 REVERT JUMPDEST DUP2 CALLDATALOAD PUSH8 0xFFFFFFFFFFFFFFFF DUP2 GT ISZERO PUSH2 0x5DC JUMPI DUP2 DUP3 REVERT JUMPDEST PUSH2 0x5E8 DUP5 DUP3 DUP6 ADD PUSH2 0x4A9 JUMP JUMPDEST SWAP5 SWAP4 POP POP POP POP JUMP JUMPDEST PUSH1 0x0 DUP1 PUSH1 0x0 PUSH1 0x60 DUP5 DUP7 SUB SLT ISZERO PUSH2 0x604 JUMPI DUP1 DUP2 REVERT JUMPDEST DUP4 CALLDATALOAD PUSH8 0xFFFFFFFFFFFFFFFF DUP2 GT ISZERO PUSH2 0x61A JUMPI DUP2 DUP3 REVERT JUMPDEST PUSH2 0x626 DUP7 DUP3 DUP8 ADD PUSH2 0x4A9 JUMP JUMPDEST SWAP4 POP POP PUSH1 0x20 DUP5 ADD CALLDATALOAD SWAP2 POP PUSH1 0x40 DUP5 ADD CALLDATALOAD PUSH1 0x1 PUSH1 0x1 PUSH1 0xA0 SHL SUB DUP2 AND DUP2 EQ PUSH2 0x649 JUMPI DUP2 DUP3 REVERT JUMPDEST DUP1 SWAP2 POP POP SWAP3 POP SWAP3 POP SWAP3 JUMP JUMPDEST PUSH1 0x0 DUP1 PUSH1 0x40 DUP4 DUP6 SUB SLT ISZERO PUSH2 0x666 JUMPI DUP2 DUP3 REVERT JUMPDEST POP POP DUP1 CALLDATALOAD SWAP3 PUSH1 0x20 SWAP1 SWAP2 ADD CALLDATALOAD SWAP2 POP JUMP JUMPDEST PUSH1 0x0 DUP2 MLOAD DUP1 DUP5 MSTORE DUP2 JUMPDEST DUP2 DUP2 LT ISZERO PUSH2 0x69A JUMPI PUSH1 0x20 DUP2 DUP6 ADD DUP2 ADD MLOAD DUP7 DUP4 ADD DUP3 ADD MSTORE ADD PUSH2 0x67E JUMP JUMPDEST DUP2 DUP2 GT ISZERO PUSH2 0x6AB JUMPI DUP3 PUSH1 0x20 DUP4 DUP8 ADD ADD MSTORE JUMPDEST POP PUSH1 0x1F ADD PUSH1 0x1F NOT AND SWAP3 SWAP1 SWAP3 ADD PUSH1 0x20 ADD SWAP3 SWAP2 POP POP JUMP JUMPDEST PUSH1 0x20 DUP2 MSTORE PUSH1 0x0 PUSH2 0x6D3 PUSH1 0x20 DUP4 ADD DUP5 PUSH2 0x675 JUMP JUMPDEST SWAP4 SWAP3 POP POP POP JUMP JUMPDEST PUSH1 0x60 DUP2 MSTORE PUSH1 0x0 PUSH2 0x6ED PUSH1 0x60 DUP4 ADD DUP7 PUSH2 0x675 JUMP JUMPDEST PUSH1 0x20 DUP4 ADD SWAP5 SWAP1 SWAP5 MSTORE POP PUSH1 0x1 PUSH1 0x1 PUSH1 0xA0 SHL SUB SWAP2 SWAP1 SWAP2 AND PUSH1 0x40 SWAP1 SWAP2 ADD MSTORE SWAP2 SWAP1 POP JUMP JUMPDEST PUSH1 0x0 DUP3 NOT DUP3 GT ISZERO PUSH2 0x720 JUMPI PUSH2 0x720 PUSH2 0x79B JUMP JUMPDEST POP ADD SWAP1 JUMP JUMPDEST PUSH1 0x0 DUP3 PUSH2 0x740 JUMPI PUSH4 0x4E487B71 PUSH1 0xE0 SHL DUP2 MSTORE PUSH1 0x12 PUSH1 0x4 MSTORE PUSH1 0x24 DUP2 REVERT JUMPDEST POP DIV SWAP1 JUMP JUMPDEST PUSH1 0x1 DUP2 DUP2 SHR SWAP1 DUP3 AND DUP1 PUSH2 0x759 JUMPI PUSH1 0x7F DUP3 AND SWAP2 POP JUMPDEST PUSH1 0x20 DUP3 LT DUP2 EQ ISZERO PUSH2 0x77A JUMPI PUSH4 0x4E487B71 PUSH1 0xE0 SHL PUSH1 0x0 MSTORE PUSH1 0x22 PUSH1 0x4 MSTORE PUSH1 0x24 PUSH1 0x0 REVERT JUMPDEST POP SWAP2 SWAP1 POP JUMP JUMPDEST PUSH1 0x0 PUSH1 0x0 NOT DUP3 EQ ISZERO PUSH2 0x794 JUMPI PUSH2 0x794 PUSH2 0x79B JUMP JUMPDEST POP PUSH1 0x1 ADD SWAP1 JUMP JUMPDEST PUSH4 0x4E487B71 PUSH1 0xE0 SHL PUSH1 0x0 MSTORE PUSH1 0x11 PUSH1 0x4 MSTORE PUSH1 0x24 PUSH1 0x0 REVERT JUMPDEST PUSH4 0x4E487B71 PUSH1 0xE0 SHL PUSH1 0x0 MSTORE PUSH1 0x41 PUSH1 0x4 MSTORE PUSH1 0x24 PUSH1 0x0 REVERT INVALID LOG2 PUSH5 0x6970667358 0x22 SLT KECCAK256 CHAINID CODECOPY 0xEF CALL CREATE 0x2D SWAP7 EXTCODECOPY 0xC 0xA9 SELFDESTRUCT 0x26 DUP9 0xF7 SWAP8 POP CALLDATASIZE 0xD9 0x4C 0xC3 SWAP9 0xCF AND 0xAD PUSH24 0x4F46099CD5669A64736F6C63430008040033000000000000 "
        },
        "methodIdentifiers": {
          "doNotUseKeccak256()": "77f428d6",
          "expLoop(uint256)": "dcc25bf0",
          "expUseKeccak256(string,uint256,address)": "e4c68279",
          "getBytes()": "0bcd3b33",
          "getKeccak256()": "2d53b353",
          "getStorageValue()": "90ad7f54",
          "getString()": "89ea642f",
          "optLoop(uint256)": "93861c50",
          "setBytes(bytes32)": "e6748da9",
          "setDiv(uint256,uint256)": "bd63f507",
          "setDivAsm(uint256,uint256)": "2c9dc749",
          "setMemoryValue(uint256)": "38cdccec",
          "setStorageValue(uint256)": "a9de99f3",
          "setStorageValueExt(uint256)": "2b8221de",
          "setString(string)": "7fcaf666",
          "setStringCalldata(string)": "8dfa3a5a"
        }
      },
      "storageLayout": {
        "storage": [
          {
            "astId": 3,
            "contract": "contracts/HelloSol.sol:HelloSol",
            "label": "storage_value_1",
            "offset": 0,
            "slot": "0",
            "type": "t_uint128"
          },
          {
            "astId": 5,
            "contract": "contracts/HelloSol.sol:HelloSol",
            "label": "storage_value_2",
            "offset": 16,
            "slot": "0",
            "type": "t_uint128"
          },
          {
            "astId": 7,
            "contract": "contracts/HelloSol.sol:HelloSol",
            "label": "storage_value",
            "offset": 0,
            "slot": "1",
            "type": "t_uint256"
          },
          {
            "astId": 9,
            "contract": "contracts/HelloSol.sol:HelloSol",
            "label": "savedString",
            "offset": 0,
            "slot": "2",
            "type": "t_string_storage"
          },
          {
            "astId": 11,
            "contract": "contracts/HelloSol.sol:HelloSol",
            "label": "savedBytes",
            "offset": 0,
            "slot": "3",
            "type": "t_bytes32"
          },
          {
            "astId": 13,
            "contract": "contracts/HelloSol.sol:HelloSol",
            "label": "savedValue",
            "offset": 0,
            "slot": "4",
            "type": "t_int256"
          },
          {
            "astId": 15,
            "contract": "contracts/HelloSol.sol:HelloSol",
            "label": "itValue",
            "offset": 0,
            "slot": "5",
            "type": "t_uint256"
          },
          {
            "astId": 17,
            "contract": "contracts/HelloSol.sol:HelloSol",
            "label": "keccak256Result",
            "offset": 0,
            "slot": "6",
            "type": "t_bytes32"
          }
        ],
        "types": {
          "t_bytes32": {
            "encoding": "inplace",
            "label": "bytes32",
            "numberOfBytes": "32"
          },
          "t_int256": {
            "encoding": "inplace",
            "label": "int256",
            "numberOfBytes": "32"
          },
          "t_string_storage": {
            "encoding": "bytes",
            "label": "string",
            "numberOfBytes": "32"
          },
          "t_uint128": {
            "encoding": "inplace",
            "label": "uint128",
            "numberOfBytes": "16"
          },
          "t_uint256": {
            "encoding": "inplace",
            "label": "uint256",
            "numberOfBytes": "32"
          }
        }
      }
    }
  }
}