{
  "contracts/HelloSol.sol": {
    "HelloSol": {
      "abi": [
        {
          "inputs": [],
          "name": "doNotUseKeccak256",
          "outputs": [],
          "stateMutability": "nonpayable",
          "type": "function"
        },
        {
          "inputs": [
            {
              "internalType": "uint256",
              "name": "iterations",
              "type": "uint256"
            }
          ],
          "name": "expLoop",
          "outputs": [],
          "stateMutability": "nonpayable",
          "type": "function"
        },
        {
          "inputs": [
            {
              "internalType": "string",
              "name": "_text",
              "type": "string"
            },
            {
              "internalType": "uint256",
              "name": "_num",
              "type": "uint256"
            },
            {
              "internalType": "address",
              "name": "_addr",
              "type": "address"
            }
          ],
          "name": "expUseKeccak256",
          "outputs": [],
          "stateMutability": "nonpayable",
          "type": "function"
        },
        {
          "inputs": [
            {
              "internalType": "uint256",
              "name": "idx",
              "type": "uint256"
            }
          ],
          "name": "getArrayValue",
          "outputs": [
            {
              "internalType": "uint256",
              "name": "",
              "type": "uint256"
            }
          ],
          "stateMutability": "view",
          "type": "function"
        },
        {
          "inputs": [
            {
              "internalType": "uint256",
              "name": "boolNumber",
              "type": "uint256"
            }
          ],
          "name": "getBool",
          "outputs": [
            {
              "internalType": "bool",
              "name": "",
              "type": "bool"
            }
          ],
          "stateMutability": "view",
          "type": "function"
        },
        {
          "inputs": [],
          "name": "getBoolB",
          "outputs": [
            {
              "internalType": "bool",
              "name": "",
              "type": "bool"
            }
          ],
          "stateMutability": "view",
          "type": "function"
        },
        {
          "inputs": [],
          "name": "getBoolStruct",
          "outputs": [
            {
              "internalType": "bool",
              "name": "",
              "type": "bool"
            }
          ],
          "stateMutability": "view",
          "type": "function"
        },
        {
          "inputs": [],
          "name": "getBytes",
          "outputs": [
            {
              "internalType": "bytes32",
              "name": "",
              "type": "bytes32"
            }
          ],
          "stateMutability": "view",
          "type": "function"
        },
        {
          "inputs": [],
          "name": "getKeccak256",
          "outputs": [
            {
              "internalType": "bytes32",
              "name": "",
              "type": "bytes32"
            }
          ],
          "stateMutability": "view",
          "type": "function"
        },
        {
          "inputs": [
            {
              "internalType": "uint256",
              "name": "idx",
              "type": "uint256"
            }
          ],
          "name": "getMapValue",
          "outputs": [
            {
              "internalType": "uint256",
              "name": "",
              "type": "uint256"
            }
          ],
          "stateMutability": "view",
          "type": "function"
        },
        {
          "inputs": [],
          "name": "getStorageValue",
          "outputs": [
            {
              "internalType": "uint256",
              "name": "",
              "type": "uint256"
            }
          ],
          "stateMutability": "view",
          "type": "function"
        },
        {
          "inputs": [],
          "name": "getStorageValueNegative",
          "outputs": [
            {
              "internalType": "int256",
              "name": "",
              "type": "int256"
            }
          ],
          "stateMutability": "view",
          "type": "function"
        },
        {
          "inputs": [],
          "name": "getString",
          "outputs": [
            {
              "internalType": "string",
              "name": "",
              "type": "string"
            }
          ],
          "stateMutability": "view",
          "type": "function"
        },
        {
          "inputs": [
            {
              "internalType": "uint256",
              "name": "iterations",
              "type": "uint256"
            }
          ],
          "name": "optLoop",
          "outputs": [],
          "stateMutability": "nonpayable",
          "type": "function"
        },
        {
          "inputs": [
            {
              "internalType": "uint256",
              "name": "boolNumber",
              "type": "uint256"
            },
            {
              "internalType": "bool",
              "name": "value",
              "type": "bool"
            }
          ],
          "name": "setBool",
          "outputs": [],
          "stateMutability": "nonpayable",
          "type": "function"
        },
        {
          "inputs": [
            {
              "internalType": "bool",
              "name": "value",
              "type": "bool"
            }
          ],
          "name": "setBoolB",
          "outputs": [],
          "stateMutability": "nonpayable",
          "type": "function"
        },
        {
          "inputs": [
            {
              "internalType": "bool",
              "name": "value",
              "type": "bool"
            }
          ],
          "name": "setBoolStruct",
          "outputs": [],
          "stateMutability": "nonpayable",
          "type": "function"
        },
        {
          "inputs": [
            {
              "internalType": "bytes32",
              "name": "newBytes",
              "type": "bytes32"
            }
          ],
          "name": "setBytes",
          "outputs": [],
          "stateMutability": "nonpayable",
          "type": "function"
        },
        {
          "inputs": [
            {
              "internalType": "uint256",
              "name": "x",
              "type": "uint256"
            },
            {
              "internalType": "uint256",
              "name": "y",
              "type": "uint256"
            }
          ],
          "name": "setDiv",
          "outputs": [],
          "stateMutability": "nonpayable",
          "type": "function"
        },
        {
          "inputs": [
            {
              "internalType": "uint256",
              "name": "x",
              "type": "uint256"
            },
            {
              "internalType": "uint256",
              "name": "y",
              "type": "uint256"
            }
          ],
          "name": "setDivAsm",
          "outputs": [],
          "stateMutability": "nonpayable",
          "type": "function"
        },
        {
          "inputs": [
            {
              "internalType": "uint256",
              "name": "newValue",
              "type": "uint256"
            }
          ],
          "name": "setMemoryValue",
          "outputs": [
            {
              "internalType": "uint256",
              "name": "",
              "type": "uint256"
            }
          ],
          "stateMutability": "pure",
          "type": "function"
        },
        {
          "inputs": [
            {
              "internalType": "uint256",
              "name": "newValue",
              "type": "uint256"
            }
          ],
          "name": "setStorageValue",
          "outputs": [],
          "stateMutability": "nonpayable",
          "type": "function"
        },
        {
          "inputs": [
            {
              "internalType": "uint256",
              "name": "newValue",
              "type": "uint256"
            }
          ],
          "name": "setStorageValueExt",
          "outputs": [],
          "stateMutability": "nonpayable",
          "type": "function"
        },
        {
          "inputs": [
            {
              "internalType": "int256",
              "name": "newValue",
              "type": "int256"
            }
          ],
          "name": "setStorageValueNegative",
          "outputs": [],
          "stateMutability": "nonpayable",
          "type": "function"
        },
        {
          "inputs": [
            {
              "internalType": "string",
              "name": "newString",
              "type": "string"
            }
          ],
          "name": "setString",
          "outputs": [],
          "stateMutability": "nonpayable",
          "type": "function"
        },
        {
          "inputs": [
            {
              "internalType": "string",
              "name": "newString",
              "type": "string"
            }
          ],
          "name": "setStringCalldata",
          "outputs": [],
          "stateMutability": "nonpayable",
          "type": "function"
        },
        {
          "inputs": [
            {
              "internalType": "uint256",
              "name": "value",
              "type": "uint256"
            }
          ],
          "name": "setUintArray",
          "outputs": [],
          "stateMutability": "nonpayable",
          "type": "function"
        },
        {
          "inputs": [
            {
              "internalType": "uint256",
              "name": "idx",
              "type": "uint256"
            },
            {
              "internalType": "uint256",
              "name": "value",
              "type": "uint256"
            }
          ],
          "name": "setUintMap",
          "outputs": [],
          "stateMutability": "nonpayable",
          "type": "function"
        },
        {
          "inputs": [
            {
              "internalType": "uint256",
              "name": "",
              "type": "uint256"
            }
          ],
          "name": "uintArray",
          "outputs": [
            {
              "internalType": "uint256",
              "name": "",
              "type": "uint256"
            }
          ],
          "stateMutability": "view",
          "type": "function"
        },
        {
          "inputs": [
            {
              "internalType": "uint256",
              "name": "",
              "type": "uint256"
            }
          ],
          "name": "uintMap",
          "outputs": [
            {
              "internalType": "uint256",
              "name": "",
              "type": "uint256"
            }
          ],
          "stateMutability": "view",
          "type": "function"
        }
      ],
      "evm": {
        "bytecode": {
          "linkReferences": {},
          "object": "608060405234801561001057600080fd5b50610b38806100206000396000f3fe608060405234801561001057600080fd5b50600436106101da5760003560e01c806389ea642f11610104578063a9de99f3116100a2578063dcc25bf011610071578063dcc25bf014610418578063e4c682791461042b578063e6748da91461043e578063ff490b691461045157600080fd5b8063a9de99f314610238578063bd63f507146103ea578063cf608e6b146103fd578063d5b18b7e1461041057600080fd5b806390ad7f54116100de57806390ad7f54146103a957806393861c50146103b157806397cedc76146103c45780639ae918c7146103d757600080fd5b806389ea642f146103605780638c96096f146103755780638dfa3a5a1461039657600080fd5b806347e6cfa41161017c57806377f428d61161014b57806377f428d6146102c15780637973830a146102ea5780637cecbc681461030a5780637fcaf6661461034d57600080fd5b806347e6cfa41461027957806349803b1e146102905780635d1bd9621461029b57806363435466146102ae57600080fd5b80632b8221de116101b85780632b8221de146102385780632c9dc7491461024b5780632d53b3531461026057806338cdccec1461026857600080fd5b80630bcd3b33146101df578063114370a8146101f65780631a5931d614610218575b600080fd5b6004545b6040519081526020015b60405180910390f35b610216610204366004610996565b6000918252600b602052604090912055565b005b6101e3610226366004610847565b600b6020526000908152604090205481565b610216610246366004610847565b600155565b610216610259366004610996565b9004600155565b6007546101e3565b6101e3610276366004610847565b90565b600a5460ff165b60405190151581526020016101ed565b60095460ff16610280565b6101e36102a9366004610847565b610472565b6102806102bc366004610847565b6104a7565b6102167f9aa569ae2e35d886c7a456cc32b7dd7cd61ecbb0f489b03214cbb5255a6e3aa9600755565b6101e36102f8366004610847565b6000908152600b602052604090205490565b610216610318366004610847565b600c80546001810182556000919091527fdf6966c971051c3d54ec59162606531493a51404a002842f56009d7e5cf4a8c70155565b61021661035b3660046108cc565b6104cc565b6103686104e3565b6040516101ed9190610a02565b61021661038336600461082d565b6009805460ff1916911515919091179055565b6102166103a436600461085f565b610575565b6001546101e3565b6102166103bf366004610847565b610586565b6102166103d236600461096b565b6105b8565b6101e36103e5366004610847565b6105dd565b6102166103f8366004610996565b6105fe565b61021661040b366004610847565b600255565b6002546101e3565b610216610426366004610847565b61060f565b610216610439366004610907565b61064f565b61021661044c366004610847565b600455565b61021661045f36600461082d565b600a805460ff1916911515919091179055565b6000600c828154811061049557634e487b7160e01b600052603260045260246000fd5b90600052602060002001549050919050565b600854600090821c60019081169081146104c25760006104c5565b60015b9392505050565b80516104df906003906020840190610684565b5050565b6060600380546104f290610a80565b80601f016020809104026020016040519081016040528092919081815260200182805461051e90610a80565b801561056b5780601f106105405761010080835404028352916020019161056b565b820191906000526020600020905b81548152906001019060200180831161054e57829003601f168201915b5050505050905090565b61058160038383610708565b505050565b6000805b828110156105b15761059d600183610a48565b9150806105a981610abb565b91505061058a565b5060015550565b80156105cd57600880546001841b1790555050565b600880546001841b191690555050565b600c81815481106105ed57600080fd5b600091825260209091200154905081565b6106088183610a60565b6001555050565b60005b818110156106455760016006600082825461062d9190610a48565b9091555081905061063d81610abb565b915050610612565b5050600654600155565b82828260405160200161066493929190610a15565b60408051601f198184030181529190528051602090910120600755505050565b82805461069090610a80565b90600052602060002090601f0160209004810192826106b257600085556106f8565b82601f106106cb57805160ff19168380011785556106f8565b828001600101855582156106f8579182015b828111156106f85782518255916020019190600101906106dd565b5061070492915061077c565b5090565b82805461071490610a80565b90600052602060002090601f01602090048101928261073657600085556106f8565b82601f1061074f5782800160ff198235161785556106f8565b828001600101855582156106f8579182015b828111156106f8578235825591602001919060010190610761565b5b80821115610704576000815560010161077d565b803580151581146107a157600080fd5b919050565b600082601f8301126107b6578081fd5b813567ffffffffffffffff808211156107d1576107d1610aec565b604051601f8301601f19908116603f011681019082821181831017156107f9576107f9610aec565b81604052838152866020858801011115610811578485fd5b8360208701602083013792830160200193909352509392505050565b60006020828403121561083e578081fd5b6104c582610791565b600060208284031215610858578081fd5b5035919050565b60008060208385031215610871578081fd5b823567ffffffffffffffff80821115610888578283fd5b818501915085601f83011261089b578283fd5b8135818111156108a9578384fd5b8660208285010111156108ba578384fd5b60209290920196919550909350505050565b6000602082840312156108dd578081fd5b813567ffffffffffffffff8111156108f3578182fd5b6108ff848285016107a6565b949350505050565b60008060006060848603121561091b578081fd5b833567ffffffffffffffff811115610931578182fd5b61093d868287016107a6565b9350506020840135915060408401356001600160a01b0381168114610960578182fd5b809150509250925092565b6000806040838503121561097d578182fd5b8235915061098d60208401610791565b90509250929050565b600080604083850312156109a8578182fd5b50508035926020909101359150565b60008151808452815b818110156109dc576020818501810151868301820152016109c0565b818111156109ed5782602083870101525b50601f01601f19169290920160200192915050565b6020815260006104c560208301846109b7565b606081526000610a2860608301866109b7565b6020830194909452506001600160a01b0391909116604090910152919050565b60008219821115610a5b57610a5b610ad6565b500190565b600082610a7b57634e487b7160e01b81526012600452602481fd5b500490565b600181811c90821680610a9457607f821691505b60208210811415610ab557634e487b7160e01b600052602260045260246000fd5b50919050565b6000600019821415610acf57610acf610ad6565b5060010190565b634e487b7160e01b600052601160045260246000fd5b634e487b7160e01b600052604160045260246000fdfea264697066735822122076143c88fe883bfe8cc3a39605bc7341535e8ba4cd77c2917ef068200574768264736f6c63430008040033",
          "opcodes": "PUSH1 0x80 PUSH1 0x40 MSTORE CALLVALUE DUP1 ISZERO PUSH2 0x10 JUMPI PUSH1 0x0 DUP1 REVERT JUMPDEST POP PUSH2 0xB38 DUP1 PUSH2 0x20 PUSH1 0x0 CODECOPY PUSH1 0x0 RETURN INVALID PUSH1 0x80 PUSH1 0x40 MSTORE CALLVALUE DUP1 ISZERO PUSH2 0x10 JUMPI PUSH1 0x0 DUP1 REVERT JUMPDEST POP PUSH1 0x4 CALLDATASIZE LT PUSH2 0x1DA JUMPI PUSH1 0x0 CALLDATALOAD PUSH1 0xE0 SHR DUP1 PUSH4 0x89EA642F GT PUSH2 0x104 JUMPI DUP1 PUSH4 0xA9DE99F3 GT PUSH2 0xA2 JUMPI DUP1 PUSH4 0xDCC25BF0 GT PUSH2 0x71 JUMPI DUP1 PUSH4 0xDCC25BF0 EQ PUSH2 0x418 JUMPI DUP1 PUSH4 0xE4C68279 EQ PUSH2 0x42B JUMPI DUP1 PUSH4 0xE6748DA9 EQ PUSH2 0x43E JUMPI DUP1 PUSH4 0xFF490B69 EQ PUSH2 0x451 JUMPI PUSH1 0x0 DUP1 REVERT JUMPDEST DUP1 PUSH4 0xA9DE99F3 EQ PUSH2 0x238 JUMPI DUP1 PUSH4 0xBD63F507 EQ PUSH2 0x3EA JUMPI DUP1 PUSH4 0xCF608E6B EQ PUSH2 0x3FD JUMPI DUP1 PUSH4 0xD5B18B7E EQ PUSH2 0x410 JUMPI PUSH1 0x0 DUP1 REVERT JUMPDEST DUP1 PUSH4 0x90AD7F54 GT PUSH2 0xDE JUMPI DUP1 PUSH4 0x90AD7F54 EQ PUSH2 0x3A9 JUMPI DUP1 PUSH4 0x93861C50 EQ PUSH2 0x3B1 JUMPI DUP1 PUSH4 0x97CEDC76 EQ PUSH2 0x3C4 JUMPI DUP1 PUSH4 0x9AE918C7 EQ PUSH2 0x3D7 JUMPI PUSH1 0x0 DUP1 REVERT JUMPDEST DUP1 PUSH4 0x89EA642F EQ PUSH2 0x360 JUMPI DUP1 PUSH4 0x8C96096F EQ PUSH2 0x375 JUMPI DUP1 PUSH4 0x8DFA3A5A EQ PUSH2 0x396 JUMPI PUSH1 0x0 DUP1 REVERT JUMPDEST DUP1 PUSH4 0x47E6CFA4 GT PUSH2 0x17C JUMPI DUP1 PUSH4 0x77F428D6 GT PUSH2 0x14B JUMPI DUP1 PUSH4 0x77F428D6 EQ PUSH2 0x2C1 JUMPI DUP1 PUSH4 0x7973830A EQ PUSH2 0x2EA JUMPI DUP1 PUSH4 0x7CECBC68 EQ PUSH2 0x30A JUMPI DUP1 PUSH4 0x7FCAF666 EQ PUSH2 0x34D JUMPI PUSH1 0x0 DUP1 REVERT JUMPDEST DUP1 PUSH4 0x47E6CFA4 EQ PUSH2 0x279 JUMPI DUP1 PUSH4 0x49803B1E EQ PUSH2 0x290 JUMPI DUP1 PUSH4 0x5D1BD962 EQ PUSH2 0x29B JUMPI DUP1 PUSH4 0x63435466 EQ PUSH2 0x2AE JUMPI PUSH1 0x0 DUP1 REVERT JUMPDEST DUP1 PUSH4 0x2B8221DE GT PUSH2 0x1B8 JUMPI DUP1 PUSH4 0x2B8221DE EQ PUSH2 0x238 JUMPI DUP1 PUSH4 0x2C9DC749 EQ PUSH2 0x24B JUMPI DUP1 PUSH4 0x2D53B353 EQ PUSH2 0x260 JUMPI DUP1 PUSH4 0x38CDCCEC EQ PUSH2 0x268 JUMPI PUSH1 0x0 DUP1 REVERT JUMPDEST DUP1 PUSH4 0xBCD3B33 EQ PUSH2 0x1DF JUMPI DUP1 PUSH4 0x114370A8 EQ PUSH2 0x1F6 JUMPI DUP1 PUSH4 0x1A5931D6 EQ PUSH2 0x218 JUMPI JUMPDEST PUSH1 0x0 DUP1 REVERT JUMPDEST PUSH1 0x4 SLOAD JUMPDEST PUSH1 0x40 MLOAD SWAP1 DUP2 MSTORE PUSH1 0x20 ADD JUMPDEST PUSH1 0x40 MLOAD DUP1 SWAP2 SUB SWAP1 RETURN JUMPDEST PUSH2 0x216 PUSH2 0x204 CALLDATASIZE PUSH1 0x4 PUSH2 0x996 JUMP JUMPDEST PUSH1 0x0 SWAP2 DUP3 MSTORE PUSH1 0xB PUSH1 0x20 MSTORE PUSH1 0x40 SWAP1 SWAP2 KECCAK256 SSTORE JUMP JUMPDEST STOP JUMPDEST PUSH2 0x1E3 PUSH2 0x226 CALLDATASIZE PUSH1 0x4 PUSH2 0x847 JUMP JUMPDEST PUSH1 0xB PUSH1 0x20 MSTORE PUSH1 0x0 SWAP1 DUP2 MSTORE PUSH1 0x40 SWAP1 KECCAK256 SLOAD DUP2 JUMP JUMPDEST PUSH2 0x216 PUSH2 0x246 CALLDATASIZE PUSH1 0x4 PUSH2 0x847 JUMP JUMPDEST PUSH1 0x1 SSTORE JUMP JUMPDEST PUSH2 0x216 PUSH2 0x259 CALLDATASIZE PUSH1 0x4 PUSH2 0x996 JUMP JUMPDEST SWAP1 DIV PUSH1 0x1 SSTORE JUMP JUMPDEST PUSH1 0x7 SLOAD PUSH2 0x1E3 JUMP JUMPDEST PUSH2 0x1E3 PUSH2 0x276 CALLDATASIZE PUSH1 0x4 PUSH2 0x847 JUMP JUMPDEST SWAP1 JUMP JUMPDEST PUSH1 0xA SLOAD PUSH1 0xFF AND JUMPDEST PUSH1 0x40 MLOAD SWAP1 ISZERO ISZERO DUP2 MSTORE PUSH1 0x20 ADD PUSH2 0x1ED JUMP JUMPDEST PUSH1 0x9 SLOAD PUSH1 0xFF AND PUSH2 0x280 JUMP JUMPDEST PUSH2 0x1E3 PUSH2 0x2A9 CALLDATASIZE PUSH1 0x4 PUSH2 0x847 JUMP JUMPDEST PUSH2 0x472 JUMP JUMPDEST PUSH2 0x280 PUSH2 0x2BC CALLDATASIZE PUSH1 0x4 PUSH2 0x847 JUMP JUMPDEST PUSH2 0x4A7 JUMP JUMPDEST PUSH2 0x216 PUSH32 0x9AA569AE2E35D886C7A456CC32B7DD7CD61ECBB0F489B03214CBB5255A6E3AA9 PUSH1 0x7 SSTORE JUMP JUMPDEST PUSH2 0x1E3 PUSH2 0x2F8 CALLDATASIZE PUSH1 0x4 PUSH2 0x847 JUMP JUMPDEST PUSH1 0x0 SWAP1 DUP2 MSTORE PUSH1 0xB PUSH1 0x20 MSTORE PUSH1 0x40 SWAP1 KECCAK256 SLOAD SWAP1 JUMP JUMPDEST PUSH2 0x216 PUSH2 0x318 CALLDATASIZE PUSH1 0x4 PUSH2 0x847 JUMP JUMPDEST PUSH1 0xC DUP1 SLOAD PUSH1 0x1 DUP2 ADD DUP3 SSTORE PUSH1 0x0 SWAP2 SWAP1 SWAP2 MSTORE PUSH32 0xDF6966C971051C3D54EC59162606531493A51404A002842F56009D7E5CF4A8C7 ADD SSTORE JUMP JUMPDEST PUSH2 0x216 PUSH2 0x35B CALLDATASIZE PUSH1 0x4 PUSH2 0x8CC JUMP JUMPDEST PUSH2 0x4CC JUMP JUMPDEST PUSH2 0x368 PUSH2 0x4E3 JUMP JUMPDEST PUSH1 0x40 MLOAD PUSH2 0x1ED SWAP2 SWAP1 PUSH2 0xA02 JUMP JUMPDEST PUSH2 0x216 PUSH2 0x383 CALLDATASIZE PUSH1 0x4 PUSH2 0x82D JUMP JUMPDEST PUSH1 0x9 DUP1 SLOAD PUSH1 0xFF NOT AND SWAP2 ISZERO ISZERO SWAP2 SWAP1 SWAP2 OR SWAP1 SSTORE JUMP JUMPDEST PUSH2 0x216 PUSH2 0x3A4 CALLDATASIZE PUSH1 0x4 PUSH2 0x85F JUMP JUMPDEST PUSH2 0x575 JUMP JUMPDEST PUSH1 0x1 SLOAD PUSH2 0x1E3 JUMP JUMPDEST PUSH2 0x216 PUSH2 0x3BF CALLDATASIZE PUSH1 0x4 PUSH2 0x847 JUMP JUMPDEST PUSH2 0x586 JUMP JUMPDEST PUSH2 0x216 PUSH2 0x3D2 CALLDATASIZE PUSH1 0x4 PUSH2 0x96B JUMP JUMPDEST PUSH2 0x5B8 JUMP JUMPDEST PUSH2 0x1E3 PUSH2 0x3E5 CALLDATASIZE PUSH1 0x4 PUSH2 0x847 JUMP JUMPDEST PUSH2 0x5DD JUMP JUMPDEST PUSH2 0x216 PUSH2 0x3F8 CALLDATASIZE PUSH1 0x4 PUSH2 0x996 JUMP JUMPDEST PUSH2 0x5FE JUMP JUMPDEST PUSH2 0x216 PUSH2 0x40B CALLDATASIZE PUSH1 0x4 PUSH2 0x847 JUMP JUMPDEST PUSH1 0x2 SSTORE JUMP JUMPDEST PUSH1 0x2 SLOAD PUSH2 0x1E3 JUMP JUMPDEST PUSH2 0x216 PUSH2 0x426 CALLDATASIZE PUSH1 0x4 PUSH2 0x847 JUMP JUMPDEST PUSH2 0x60F JUMP JUMPDEST PUSH2 0x216 PUSH2 0x439 CALLDATASIZE PUSH1 0x4 PUSH2 0x907 JUMP JUMPDEST PUSH2 0x64F JUMP JUMPDEST PUSH2 0x216 PUSH2 0x44C CALLDATASIZE PUSH1 0x4 PUSH2 0x847 JUMP JUMPDEST PUSH1 0x4 SSTORE JUMP JUMPDEST PUSH2 0x216 PUSH2 0x45F CALLDATASIZE PUSH1 0x4 PUSH2 0x82D JUMP JUMPDEST PUSH1 0xA DUP1 SLOAD PUSH1 0xFF NOT AND SWAP2 ISZERO ISZERO SWAP2 SWAP1 SWAP2 OR SWAP1 SSTORE JUMP JUMPDEST PUSH1 0x0 PUSH1 0xC DUP3 DUP2 SLOAD DUP2 LT PUSH2 0x495 JUMPI PUSH4 0x4E487B71 PUSH1 0xE0 SHL PUSH1 0x0 MSTORE PUSH1 0x32 PUSH1 0x4 MSTORE PUSH1 0x24 PUSH1 0x0 REVERT JUMPDEST SWAP1 PUSH1 0x0 MSTORE PUSH1 0x20 PUSH1 0x0 KECCAK256 ADD SLOAD SWAP1 POP SWAP2 SWAP1 POP JUMP JUMPDEST PUSH1 0x8 SLOAD PUSH1 0x0 SWAP1 DUP3 SHR PUSH1 0x1 SWAP1 DUP2 AND SWAP1 DUP2 EQ PUSH2 0x4C2 JUMPI PUSH1 0x0 PUSH2 0x4C5 JUMP JUMPDEST PUSH1 0x1 JUMPDEST SWAP4 SWAP3 POP POP POP JUMP JUMPDEST DUP1 MLOAD PUSH2 0x4DF SWAP1 PUSH1 0x3 SWAP1 PUSH1 0x20 DUP5 ADD SWAP1 PUSH2 0x684 JUMP JUMPDEST POP POP JUMP JUMPDEST PUSH1 0x60 PUSH1 0x3 DUP1 SLOAD PUSH2 0x4F2 SWAP1 PUSH2 0xA80 JUMP JUMPDEST DUP1 PUSH1 0x1F ADD PUSH1 0x20 DUP1 SWAP2 DIV MUL PUSH1 0x20 ADD PUSH1 0x40 MLOAD SWAP1 DUP2 ADD PUSH1 0x40 MSTORE DUP1 SWAP3 SWAP2 SWAP1 DUP2 DUP2 MSTORE PUSH1 0x20 ADD DUP3 DUP1 SLOAD PUSH2 0x51E SWAP1 PUSH2 0xA80 JUMP JUMPDEST DUP1 ISZERO PUSH2 0x56B JUMPI DUP1 PUSH1 0x1F LT PUSH2 0x540 JUMPI PUSH2 0x100 DUP1 DUP4 SLOAD DIV MUL DUP4 MSTORE SWAP2 PUSH1 0x20 ADD SWAP2 PUSH2 0x56B JUMP JUMPDEST DUP3 ADD SWAP2 SWAP1 PUSH1 0x0 MSTORE PUSH1 0x20 PUSH1 0x0 KECCAK256 SWAP1 JUMPDEST DUP2 SLOAD DUP2 MSTORE SWAP1 PUSH1 0x1 ADD SWAP1 PUSH1 0x20 ADD DUP1 DUP4 GT PUSH2 0x54E JUMPI DUP3 SWAP1 SUB PUSH1 0x1F AND DUP3 ADD SWAP2 JUMPDEST POP POP POP POP POP SWAP1 POP SWAP1 JUMP JUMPDEST PUSH2 0x581 PUSH1 0x3 DUP4 DUP4 PUSH2 0x708 JUMP JUMPDEST POP POP POP JUMP JUMPDEST PUSH1 0x0 DUP1 JUMPDEST DUP3 DUP2 LT ISZERO PUSH2 0x5B1 JUMPI PUSH2 0x59D PUSH1 0x1 DUP4 PUSH2 0xA48 JUMP JUMPDEST SWAP2 POP DUP1 PUSH2 0x5A9 DUP2 PUSH2 0xABB JUMP JUMPDEST SWAP2 POP POP PUSH2 0x58A JUMP JUMPDEST POP PUSH1 0x1 SSTORE POP JUMP JUMPDEST DUP1 ISZERO PUSH2 0x5CD JUMPI PUSH1 0x8 DUP1 SLOAD PUSH1 0x1 DUP5 SHL OR SWAP1 SSTORE POP POP JUMP JUMPDEST PUSH1 0x8 DUP1 SLOAD PUSH1 0x1 DUP5 SHL NOT AND SWAP1 SSTORE POP POP JUMP JUMPDEST PUSH1 0xC DUP2 DUP2 SLOAD DUP2 LT PUSH2 0x5ED JUMPI PUSH1 0x0 DUP1 REVERT JUMPDEST PUSH1 0x0 SWAP2 DUP3 MSTORE PUSH1 0x20 SWAP1 SWAP2 KECCAK256 ADD SLOAD SWAP1 POP DUP2 JUMP JUMPDEST PUSH2 0x608 DUP2 DUP4 PUSH2 0xA60 JUMP JUMPDEST PUSH1 0x1 SSTORE POP POP JUMP JUMPDEST PUSH1 0x0 JUMPDEST DUP2 DUP2 LT ISZERO PUSH2 0x645 JUMPI PUSH1 0x1 PUSH1 0x6 PUSH1 0x0 DUP3 DUP3 SLOAD PUSH2 0x62D SWAP2 SWAP1 PUSH2 0xA48 JUMP JUMPDEST SWAP1 SWAP2 SSTORE POP DUP2 SWAP1 POP PUSH2 0x63D DUP2 PUSH2 0xABB JUMP JUMPDEST SWAP2 POP POP PUSH2 0x612 JUMP JUMPDEST POP POP PUSH1 0x6 SLOAD PUSH1 0x1 SSTORE JUMP JUMPDEST DUP3 DUP3 DUP3 PUSH1 0x40 MLOAD PUSH1 0x20 ADD PUSH2 0x664 SWAP4 SWAP3 SWAP2 SWAP1 PUSH2 0xA15 JUMP JUMPDEST PUSH1 0x40 DUP1 MLOAD PUSH1 0x1F NOT DUP2 DUP5 SUB ADD DUP2 MSTORE SWAP2 SWAP1 MSTORE DUP1 MLOAD PUSH1 0x20 SWAP1 SWAP2 ADD KECCAK256 PUSH1 0x7 SSTORE POP POP POP JUMP JUMPDEST DUP3 DUP1 SLOAD PUSH2 0x690 SWAP1 PUSH2 0xA80 JUMP JUMPDEST SWAP1 PUSH1 0x0 MSTORE PUSH1 0x20 PUSH1 0x0 KECCAK256 SWAP1 PUSH1 0x1F ADD PUSH1 0x20 SWAP1 DIV DUP2 ADD SWAP3 DUP3 PUSH2 0x6B2 JUMPI PUSH1 0x0 DUP6 SSTORE PUSH2 0x6F8 JUMP JUMPDEST DUP3 PUSH1 0x1F LT PUSH2 0x6CB JUMPI DUP1 MLOAD PUSH1 0xFF NOT AND DUP4 DUP1 ADD OR DUP6 SSTORE PUSH2 0x6F8 JUMP JUMPDEST DUP3 DUP1 ADD PUSH1 0x1 ADD DUP6 SSTORE DUP3 ISZERO PUSH2 0x6F8 JUMPI SWAP2 DUP3 ADD JUMPDEST DUP3 DUP2 GT ISZERO PUSH2 0x6F8 JUMPI DUP3 MLOAD DUP3 SSTORE SWAP2 PUSH1 0x20 ADD SWAP2 SWAP1 PUSH1 0x1 ADD SWAP1 PUSH2 0x6DD JUMP JUMPDEST POP PUSH2 0x704 SWAP3 SWAP2 POP PUSH2 0x77C JUMP JUMPDEST POP SWAP1 JUMP JUMPDEST DUP3 DUP1 SLOAD PUSH2 0x714 SWAP1 PUSH2 0xA80 JUMP JUMPDEST SWAP1 PUSH1 0x0 MSTORE PUSH1 0x20 PUSH1 0x0 KECCAK256 SWAP1 PUSH1 0x1F ADD PUSH1 0x20 SWAP1 DIV DUP2 ADD SWAP3 DUP3 PUSH2 0x736 JUMPI PUSH1 0x0 DUP6 SSTORE PUSH2 0x6F8 JUMP JUMPDEST DUP3 PUSH1 0x1F LT PUSH2 0x74F JUMPI DUP3 DUP1 ADD PUSH1 0xFF NOT DUP3 CALLDATALOAD AND OR DUP6 SSTORE PUSH2 0x6F8 JUMP JUMPDEST DUP3 DUP1 ADD PUSH1 0x1 ADD DUP6 SSTORE DUP3 ISZERO PUSH2 0x6F8 JUMPI SWAP2 DUP3 ADD JUMPDEST DUP3 DUP2 GT ISZERO PUSH2 0x6F8 JUMPI DUP3 CALLDATALOAD DUP3 SSTORE SWAP2 PUSH1 0x20 ADD SWAP2 SWAP1 PUSH1 0x1 ADD SWAP1 PUSH2 0x761 JUMP JUMPDEST JUMPDEST DUP1 DUP3 GT ISZERO PUSH2 0x704 JUMPI PUSH1 0x0 DUP2 SSTORE PUSH1 0x1 ADD PUSH2 0x77D JUMP JUMPDEST DUP1 CALLDATALOAD DUP1 ISZERO ISZERO DUP2 EQ PUSH2 0x7A1 JUMPI PUSH1 0x0 DUP1 REVERT JUMPDEST SWAP2 SWAP1 POP JUMP JUMPDEST PUSH1 0x0 DUP3 PUSH1 0x1F DUP4 ADD SLT PUSH2 0x7B6 JUMPI DUP1 DUP2 REVERT JUMPDEST DUP2 CALLDATALOAD PUSH8 0xFFFFFFFFFFFFFFFF DUP1 DUP3 GT ISZERO PUSH2 0x7D1 JUMPI PUSH2 0x7D1 PUSH2 0xAEC JUMP JUMPDEST PUSH1 0x40 MLOAD PUSH1 0x1F DUP4 ADD PUSH1 0x1F NOT SWAP1 DUP2 AND PUSH1 0x3F ADD AND DUP2 ADD SWAP1 DUP3 DUP3 GT DUP2 DUP4 LT OR ISZERO PUSH2 0x7F9 JUMPI PUSH2 0x7F9 PUSH2 0xAEC JUMP JUMPDEST DUP2 PUSH1 0x40 MSTORE DUP4 DUP2 MSTORE DUP7 PUSH1 0x20 DUP6 DUP9 ADD ADD GT ISZERO PUSH2 0x811 JUMPI DUP5 DUP6 REVERT JUMPDEST DUP4 PUSH1 0x20 DUP8 ADD PUSH1 0x20 DUP4 ADD CALLDATACOPY SWAP3 DUP4 ADD PUSH1 0x20 ADD SWAP4 SWAP1 SWAP4 MSTORE POP SWAP4 SWAP3 POP POP POP JUMP JUMPDEST PUSH1 0x0 PUSH1 0x20 DUP3 DUP5 SUB SLT ISZERO PUSH2 0x83E JUMPI DUP1 DUP2 REVERT JUMPDEST PUSH2 0x4C5 DUP3 PUSH2 0x791 JUMP JUMPDEST PUSH1 0x0 PUSH1 0x20 DUP3 DUP5 SUB SLT ISZERO PUSH2 0x858 JUMPI DUP1 DUP2 REVERT JUMPDEST POP CALLDATALOAD SWAP2 SWAP1 POP JUMP JUMPDEST PUSH1 0x0 DUP1 PUSH1 0x20 DUP4 DUP6 SUB SLT ISZERO PUSH2 0x871 JUMPI DUP1 DUP2 REVERT JUMPDEST DUP3 CALLDATALOAD PUSH8 0xFFFFFFFFFFFFFFFF DUP1 DUP3 GT ISZERO PUSH2 0x888 JUMPI DUP3 DUP4 REVERT JUMPDEST DUP2 DUP6 ADD SWAP2 POP DUP6 PUSH1 0x1F DUP4 ADD SLT PUSH2 0x89B JUMPI DUP3 DUP4 REVERT JUMPDEST DUP2 CALLDATALOAD DUP2 DUP2 GT ISZERO PUSH2 0x8A9 JUMPI DUP4 DUP5 REVERT JUMPDEST DUP7 PUSH1 0x20 DUP3 DUP6 ADD ADD GT ISZERO PUSH2 0x8BA JUMPI DUP4 DUP5 REVERT JUMPDEST PUSH1 0x20 SWAP3 SWAP1 SWAP3 ADD SWAP7 SWAP2 SWAP6 POP SWAP1 SWAP4 POP POP POP POP JUMP JUMPDEST PUSH1 0x0 PUSH1 0x20 DUP3 DUP5 SUB SLT ISZERO PUSH2 0x8DD JUMPI DUP1 DUP2 REVERT JUMPDEST DUP2 CALLDATALOAD PUSH8 0xFFFFFFFFFFFFFFFF DUP2 GT ISZERO PUSH2 0x8F3 JUMPI DUP2 DUP3 REVERT JUMPDEST PUSH2 0x8FF DUP5 DUP3 DUP6 ADD PUSH2 0x7A6 JUMP JUMPDEST SWAP5 SWAP4 POP POP POP POP JUMP JUMPDEST PUSH1 0x0 DUP1 PUSH1 0x0 PUSH1 0x60 DUP5 DUP7 SUB SLT ISZERO PUSH2 0x91B JUMPI DUP1 DUP2 REVERT JUMPDEST DUP4 CALLDATALOAD PUSH8 0xFFFFFFFFFFFFFFFF DUP2 GT ISZERO PUSH2 0x931 JUMPI DUP2 DUP3 REVERT JUMPDEST PUSH2 0x93D DUP7 DUP3 DUP8 ADD PUSH2 0x7A6 JUMP JUMPDEST SWAP4 POP POP PUSH1 0x20 DUP5 ADD CALLDATALOAD SWAP2 POP PUSH1 0x40 DUP5 ADD CALLDATALOAD PUSH1 0x1 PUSH1 0x1 PUSH1 0xA0 SHL SUB DUP2 AND DUP2 EQ PUSH2 0x960 JUMPI DUP2 DUP3 REVERT JUMPDEST DUP1 SWAP2 POP POP SWAP3 POP SWAP3 POP SWAP3 JUMP JUMPDEST PUSH1 0x0 DUP1 PUSH1 0x40 DUP4 DUP6 SUB SLT ISZERO PUSH2 0x97D JUMPI DUP2 DUP3 REVERT JUMPDEST DUP3 CALLDATALOAD SWAP2 POP PUSH2 0x98D PUSH1 0x20 DUP5 ADD PUSH2 0x791 JUMP JUMPDEST SWAP1 POP SWAP3 POP SWAP3 SWAP1 POP JUMP JUMPDEST PUSH1 0x0 DUP1 PUSH1 0x40 DUP4 DUP6 SUB SLT ISZERO PUSH2 0x9A8 JUMPI DUP2 DUP3 REVERT JUMPDEST POP POP DUP1 CALLDATALOAD SWAP3 PUSH1 0x20 SWAP1 SWAP2 ADD CALLDATALOAD SWAP2 POP JUMP JUMPDEST PUSH1 0x0 DUP2 MLOAD DUP1 DUP5 MSTORE DUP2 JUMPDEST DUP2 DUP2 LT ISZERO PUSH2 0x9DC JUMPI PUSH1 0x20 DUP2 DUP6 ADD DUP2 ADD MLOAD DUP7 DUP4 ADD DUP3 ADD MSTORE ADD PUSH2 0x9C0 JUMP JUMPDEST DUP2 DUP2 GT ISZERO PUSH2 0x9ED JUMPI DUP3 PUSH1 0x20 DUP4 DUP8 ADD ADD MSTORE JUMPDEST POP PUSH1 0x1F ADD PUSH1 0x1F NOT AND SWAP3 SWAP1 SWAP3 ADD PUSH1 0x20 ADD SWAP3 SWAP2 POP POP JUMP JUMPDEST PUSH1 0x20 DUP2 MSTORE PUSH1 0x0 PUSH2 0x4C5 PUSH1 0x20 DUP4 ADD DUP5 PUSH2 0x9B7 JUMP JUMPDEST PUSH1 0x60 DUP2 MSTORE PUSH1 0x0 PUSH2 0xA28 PUSH1 0x60 DUP4 ADD DUP7 PUSH2 0x9B7 JUMP JUMPDEST PUSH1 0x20 DUP4 ADD SWAP5 SWAP1 SWAP5 MSTORE POP PUSH1 0x1 PUSH1 0x1 PUSH1 0xA0 SHL SUB SWAP2 SWAP1 SWAP2 AND PUSH1 0x40 SWAP1 SWAP2 ADD MSTORE SWAP2 SWAP1 POP JUMP JUMPDEST PUSH1 0x0 DUP3 NOT DUP3 GT ISZERO PUSH2 0xA5B JUMPI PUSH2 0xA5B PUSH2 0xAD6 JUMP JUMPDEST POP ADD SWAP1 JUMP JUMPDEST PUSH1 0x0 DUP3 PUSH2 0xA7B JUMPI PUSH4 0x4E487B71 PUSH1 0xE0 SHL DUP2 MSTORE PUSH1 0x12 PUSH1 0x4 MSTORE PUSH1 0x24 DUP2 REVERT JUMPDEST POP DIV SWAP1 JUMP JUMPDEST PUSH1 0x1 DUP2 DUP2 SHR SWAP1 DUP3 AND DUP1 PUSH2 0xA94 JUMPI PUSH1 0x7F DUP3 AND SWAP2 POP JUMPDEST PUSH1 0x20 DUP3 LT DUP2 EQ ISZERO PUSH2 0xAB5 JUMPI PUSH4 0x4E487B71 PUSH1 0xE0 SHL PUSH1 0x0 MSTORE PUSH1 0x22 PUSH1 0x4 MSTORE PUSH1 0x24 PUSH1 0x0 REVERT JUMPDEST POP SWAP2 SWAP1 POP JUMP JUMPDEST PUSH1 0x0 PUSH1 0x0 NOT DUP3 EQ ISZERO PUSH2 0xACF JUMPI PUSH2 0xACF PUSH2 0xAD6 JUMP JUMPDEST POP PUSH1 0x1 ADD SWAP1 JUMP JUMPDEST PUSH4 0x4E487B71 PUSH1 0xE0 SHL PUSH1 0x0 MSTORE PUSH1 0x11 PUSH1 0x4 MSTORE PUSH1 0x24 PUSH1 0x0 REVERT JUMPDEST PUSH4 0x4E487B71 PUSH1 0xE0 SHL PUSH1 0x0 MSTORE PUSH1 0x41 PUSH1 0x4 MSTORE PUSH1 0x24 PUSH1 0x0 REVERT INVALID LOG2 PUSH5 0x6970667358 0x22 SLT KECCAK256 PUSH23 0x143C88FE883BFE8CC3A39605BC7341535E8BA4CD77C291 PUSH31 0xF068200574768264736F6C6343000804003300000000000000000000000000 "
        },
        "methodIdentifiers": {
          "doNotUseKeccak256()": "77f428d6",
          "expLoop(uint256)": "dcc25bf0",
          "expUseKeccak256(string,uint256,address)": "e4c68279",
          "getArrayValue(uint256)": "5d1bd962",
          "getBool(uint256)": "63435466",
          "getBoolB()": "49803b1e",
          "getBoolStruct()": "47e6cfa4",
          "getBytes()": "0bcd3b33",
          "getKeccak256()": "2d53b353",
          "getMapValue(uint256)": "7973830a",
          "getStorageValue()": "90ad7f54",
          "getStorageValueNegative()": "d5b18b7e",
          "getString()": "89ea642f",
          "optLoop(uint256)": "93861c50",
          "setBool(uint256,bool)": "97cedc76",
          "setBoolB(bool)": "8c96096f",
          "setBoolStruct(bool)": "ff490b69",
          "setBytes(bytes32)": "e6748da9",
          "setDiv(uint256,uint256)": "bd63f507",
          "setDivAsm(uint256,uint256)": "2c9dc749",
          "setMemoryValue(uint256)": "38cdccec",
          "setStorageValue(uint256)": "a9de99f3",
          "setStorageValueExt(uint256)": "2b8221de",
          "setStorageValueNegative(int256)": "cf608e6b",
          "setString(string)": "7fcaf666",
          "setStringCalldata(string)": "8dfa3a5a",
          "setUintArray(uint256)": "7cecbc68",
          "setUintMap(uint256,uint256)": "114370a8",
          "uintArray(uint256)": "9ae918c7",
          "uintMap(uint256)": "1a5931d6"
        }
      },
      "storageLayout": {
        "storage": [
          {
            "astId": 3,
            "contract": "contracts/HelloSol.sol:HelloSol",
            "label": "storage_value_1",
            "offset": 0,
            "slot": "0",
            "type": "t_uint128"
          },
          {
            "astId": 5,
            "contract": "contracts/HelloSol.sol:HelloSol",
            "label": "storage_value_2",
            "offset": 16,
            "slot": "0",
            "type": "t_uint128"
          },
          {
            "astId": 7,
            "contract": "contracts/HelloSol.sol:HelloSol",
            "label": "storage_value",
            "offset": 0,
            "slot": "1",
            "type": "t_uint256"
          },
          {
            "astId": 9,
            "contract": "contracts/HelloSol.sol:HelloSol",
            "label": "storage_value_negative",
            "offset": 0,
            "slot": "2",
            "type": "t_int256"
          },
          {
            "astId": 11,
            "contract": "contracts/HelloSol.sol:HelloSol",
            "label": "savedString",
            "offset": 0,
            "slot": "3",
            "type": "t_string_storage"
          },
          {
            "astId": 13,
            "contract": "contracts/HelloSol.sol:HelloSol",
            "label": "savedBytes",
            "offset": 0,
            "slot": "4",
            "type": "t_bytes32"
          },
          {
            "astId": 15,
            "contract": "contracts/HelloSol.sol:HelloSol",
            "label": "savedValue",
            "offset": 0,
            "slot": "5",
            "type": "t_int256"
          },
          {
            "astId": 17,
            "contract": "contracts/HelloSol.sol:HelloSol",
            "label": "itValue",
            "offset": 0,
            "slot": "6",
            "type": "t_uint256"
          },
          {
            "astId": 19,
            "contract": "contracts/HelloSol.sol:HelloSol",
            "label": "keccak256Result",
            "offset": 0,
            "slot": "7",
            "type": "t_bytes32"
          },
          {
            "astId": 21,
            "contract": "contracts/HelloSol.sol:HelloSol",
            "label": "booleanValue",
            "offset": 0,
            "slot": "8",
            "type": "t_uint256"
          },
          {
            "astId": 23,
            "contract": "contracts/HelloSol.sol:HelloSol",
            "label": "b1",
            "offset": 0,
            "slot": "9",
            "type": "t_bool"
          },
          {
            "astId": 25,
            "contract": "contracts/HelloSol.sol:HelloSol",
            "label": "b2",
            "offset": 1,
            "slot": "9",
            "type": "t_bool"
          },
          {
            "astId": 27,
            "contract": "contracts/HelloSol.sol:HelloSol",
            "label": "b3",
            "offset": 2,
            "slot": "9",
            "type": "t_bool"
          },
          {
            "astId": 29,
            "contract": "contracts/HelloSol.sol:HelloSol",
            "label": "b4",
            "offset": 3,
            "slot": "9",
            "type": "t_bool"
          },
          {
            "astId": 41,
            "contract": "contracts/HelloSol.sol:HelloSol",
            "label": "bs",
            "offset": 0,
            "slot": "10",
            "type": "t_struct(BoolStruct)38_storage"
          },
          {
            "astId": 45,
            "contract": "contracts/HelloSol.sol:HelloSol",
            "label": "uintMap",
            "offset": 0,
            "slot": "11",
            "type": "t_mapping(t_uint256,t_uint256)"
          },
          {
            "astId": 48,
            "contract": "contracts/HelloSol.sol:HelloSol",
            "label": "uintArray",
            "offset": 0,
            "slot": "12",
            "type": "t_array(t_uint256)dyn_storage"
          }
        ],
        "types": {
          "t_array(t_uint256)dyn_storage": {
            "base": "t_uint256",
            "encoding": "dynamic_array",
            "label": "uint256[]",
            "numberOfBytes": "32"
          },
          "t_bool": {
            "encoding": "inplace",
            "label": "bool",
            "numberOfBytes": "1"
          },
          "t_bytes32": {
            "encoding": "inplace",
            "label": "bytes32",
            "numberOfBytes": "32"
          },
          "t_int256": {
            "encoding": "inplace",
            "label": "int256",
            "numberOfBytes": "32"
          },
          "t_mapping(t_uint256,t_uint256)": {
            "encoding": "mapping",
            "key": "t_uint256",
            "label": "mapping(uint256 => uint256)",
            "numberOfBytes": "32",
            "value": "t_uint256"
          },
          "t_string_storage": {
            "encoding": "bytes",
            "label": "string",
            "numberOfBytes": "32"
          },
          "t_struct(BoolStruct)38_storage": {
            "encoding": "inplace",
            "label": "struct HelloSol.BoolStruct",
            "members": [
              {
                "astId": 31,
                "contract": "contracts/HelloSol.sol:HelloSol",
                "label": "b1",
                "offset": 0,
                "slot": "0",
                "type": "t_bool"
              },
              {
                "astId": 33,
                "contract": "contracts/HelloSol.sol:HelloSol",
                "label": "b2",
                "offset": 1,
                "slot": "0",
                "type": "t_bool"
              },
              {
                "astId": 35,
                "contract": "contracts/HelloSol.sol:HelloSol",
                "label": "b3",
                "offset": 2,
                "slot": "0",
                "type": "t_bool"
              },
              {
                "astId": 37,
                "contract": "contracts/HelloSol.sol:HelloSol",
                "label": "b4",
                "offset": 3,
                "slot": "0",
                "type": "t_bool"
              }
            ],
            "numberOfBytes": "32"
          },
          "t_uint128": {
            "encoding": "inplace",
            "label": "uint128",
            "numberOfBytes": "16"
          },
          "t_uint256": {
            "encoding": "inplace",
            "label": "uint256",
            "numberOfBytes": "32"
          }
        }
      }
    }
  }
}