{
  "_format": "hh-sol-artifact-1",
  "contractName": "HelloSol",
  "sourceName": "contracts/HelloSol.sol",
  "abi": [
    {
      "inputs": [],
      "name": "getString",
      "outputs": [
        {
          "internalType": "string",
          "name": "",
          "type": "string"
        }
      ],
      "stateMutability": "view",
      "type": "function"
    },
    {
      "inputs": [
        {
          "internalType": "string",
          "name": "newString",
          "type": "string"
        }
      ],
      "name": "setString",
      "outputs": [],
      "stateMutability": "nonpayable",
      "type": "function"
    },
    {
      "inputs": [
        {
          "internalType": "string",
          "name": "newString",
          "type": "string"
        }
      ],
      "name": "setStringCalldata",
      "outputs": [],
      "stateMutability": "nonpayable",
      "type": "function"
    }
  ],
  "bytecode": "0x608060405234801561001057600080fd5b50610444806100206000396000f3fe608060405234801561001057600080fd5b50600436106100415760003560e01c80637fcaf6661461004657806389ea642f1461005b5780638dfa3a5a14610079575b600080fd5b6100596100543660046102c0565b61008c565b005b6100636100a3565b604051610070919061036a565b60405180910390f35b610059610087366004610253565b610135565b805161009f906000906020840190610146565b5050565b6060600080546100b2906103bd565b80601f01602080910402602001604051908101604052809291908181526020018280546100de906103bd565b801561012b5780601f106101005761010080835404028352916020019161012b565b820191906000526020600020905b81548152906001019060200180831161010e57829003601f168201915b5050505050905090565b610141600083836101ca565b505050565b828054610152906103bd565b90600052602060002090601f01602090048101928261017457600085556101ba565b82601f1061018d57805160ff19168380011785556101ba565b828001600101855582156101ba579182015b828111156101ba57825182559160200191906001019061019f565b506101c692915061023e565b5090565b8280546101d6906103bd565b90600052602060002090601f0160209004810192826101f857600085556101ba565b82601f106102115782800160ff198235161785556101ba565b828001600101855582156101ba579182015b828111156101ba578235825591602001919060010190610223565b5b808211156101c6576000815560010161023f565b60008060208385031215610265578182fd5b823567ffffffffffffffff8082111561027c578384fd5b818501915085601f83011261028f578384fd5b81358181111561029d578485fd5b8660208285010111156102ae578485fd5b60209290920196919550909350505050565b6000602082840312156102d1578081fd5b813567ffffffffffffffff808211156102e8578283fd5b818401915084601f8301126102fb578283fd5b81358181111561030d5761030d6103f8565b604051601f8201601f19908116603f01168101908382118183101715610335576103356103f8565b8160405282815287602084870101111561034d578586fd5b826020860160208301379182016020019490945295945050505050565b6000602080835283518082850152825b818110156103965785810183015185820160400152820161037a565b818111156103a75783604083870101525b50601f01601f1916929092016040019392505050565b600181811c908216806103d157607f821691505b602082108114156103f257634e487b7160e01b600052602260045260246000fd5b50919050565b634e487b7160e01b600052604160045260246000fdfea264697066735822122014cd57029ac0dda2ead0e0d34b1336eda49046e9452640407325ced2ddffc4c364736f6c63430008040033",
  "linkReferences": {},
  "deployedLinkReferences": {}
}