{
  "_format": "hh-sol-artifact-1",
  "contractName": "HelloSol",
  "sourceName": "contracts/HelloSol.sol",
  "abi": [
    {
      "inputs": [],
      "stateMutability": "nonpayable",
      "type": "constructor"
    },
    {
      "inputs": [],
      "name": "doNotUseKeccak256",
      "outputs": [],
      "stateMutability": "nonpayable",
      "type": "function"
    },
    {
      "inputs": [
        {
          "internalType": "uint256",
          "name": "iterations",
          "type": "uint256"
        }
      ],
      "name": "expLoop",
      "outputs": [],
      "stateMutability": "nonpayable",
      "type": "function"
    },
    {
      "inputs": [
        {
          "internalType": "string",
          "name": "_text",
          "type": "string"
        },
        {
          "internalType": "uint256",
          "name": "_num",
          "type": "uint256"
        },
        {
          "internalType": "address",
          "name": "_addr",
          "type": "address"
        }
      ],
      "name": "expUseKeccak256",
      "outputs": [],
      "stateMutability": "nonpayable",
      "type": "function"
    },
    {
      "inputs": [
        {
          "internalType": "uint256",
          "name": "idx",
          "type": "uint256"
        }
      ],
      "name": "getArrayValue",
      "outputs": [
        {
          "internalType": "uint256",
          "name": "",
          "type": "uint256"
        }
      ],
      "stateMutability": "view",
      "type": "function"
    },
    {
      "inputs": [
        {
          "internalType": "uint256",
          "name": "boolNumber",
          "type": "uint256"
        }
      ],
      "name": "getBool",
      "outputs": [
        {
          "internalType": "bool",
          "name": "",
          "type": "bool"
        }
      ],
      "stateMutability": "view",
      "type": "function"
    },
    {
      "inputs": [],
      "name": "getBoolB",
      "outputs": [
        {
          "internalType": "bool",
          "name": "",
          "type": "bool"
        }
      ],
      "stateMutability": "view",
      "type": "function"
    },
    {
      "inputs": [],
      "name": "getBoolStruct",
      "outputs": [
        {
          "internalType": "bool",
          "name": "",
          "type": "bool"
        }
      ],
      "stateMutability": "view",
      "type": "function"
    },
    {
      "inputs": [],
      "name": "getBytes",
      "outputs": [
        {
          "internalType": "bytes32",
          "name": "",
          "type": "bytes32"
        }
      ],
      "stateMutability": "view",
      "type": "function"
    },
    {
      "inputs": [],
      "name": "getKeccak256",
      "outputs": [
        {
          "internalType": "bytes32",
          "name": "",
          "type": "bytes32"
        }
      ],
      "stateMutability": "view",
      "type": "function"
    },
    {
      "inputs": [
        {
          "internalType": "uint256",
          "name": "idx",
          "type": "uint256"
        }
      ],
      "name": "getMapValue",
      "outputs": [
        {
          "internalType": "uint256",
          "name": "",
          "type": "uint256"
        }
      ],
      "stateMutability": "view",
      "type": "function"
    },
    {
      "inputs": [],
      "name": "getStorageValue",
      "outputs": [
        {
          "internalType": "uint256",
          "name": "",
          "type": "uint256"
        }
      ],
      "stateMutability": "view",
      "type": "function"
    },
    {
      "inputs": [],
      "name": "getStorageValueNegative",
      "outputs": [
        {
          "internalType": "int256",
          "name": "",
          "type": "int256"
        }
      ],
      "stateMutability": "view",
      "type": "function"
    },
    {
      "inputs": [],
      "name": "getString",
      "outputs": [
        {
          "internalType": "string",
          "name": "",
          "type": "string"
        }
      ],
      "stateMutability": "view",
      "type": "function"
    },
    {
      "inputs": [
        {
          "internalType": "uint256",
          "name": "iterations",
          "type": "uint256"
        }
      ],
      "name": "optLoop",
      "outputs": [],
      "stateMutability": "nonpayable",
      "type": "function"
    },
    {
      "inputs": [
        {
          "internalType": "uint256",
          "name": "boolNumber",
          "type": "uint256"
        },
        {
          "internalType": "bool",
          "name": "value",
          "type": "bool"
        }
      ],
      "name": "setBool",
      "outputs": [],
      "stateMutability": "nonpayable",
      "type": "function"
    },
    {
      "inputs": [
        {
          "internalType": "bool",
          "name": "value",
          "type": "bool"
        }
      ],
      "name": "setBoolB",
      "outputs": [],
      "stateMutability": "nonpayable",
      "type": "function"
    },
    {
      "inputs": [
        {
          "internalType": "bool",
          "name": "value",
          "type": "bool"
        }
      ],
      "name": "setBoolStruct",
      "outputs": [],
      "stateMutability": "nonpayable",
      "type": "function"
    },
    {
      "inputs": [
        {
          "internalType": "bytes32",
          "name": "newBytes",
          "type": "bytes32"
        }
      ],
      "name": "setBytes",
      "outputs": [],
      "stateMutability": "nonpayable",
      "type": "function"
    },
    {
      "inputs": [
        {
          "internalType": "uint256",
          "name": "x",
          "type": "uint256"
        },
        {
          "internalType": "uint256",
          "name": "y",
          "type": "uint256"
        }
      ],
      "name": "setDiv",
      "outputs": [],
      "stateMutability": "nonpayable",
      "type": "function"
    },
    {
      "inputs": [
        {
          "internalType": "uint256",
          "name": "x",
          "type": "uint256"
        },
        {
          "internalType": "uint256",
          "name": "y",
          "type": "uint256"
        }
      ],
      "name": "setDivAsm",
      "outputs": [],
      "stateMutability": "nonpayable",
      "type": "function"
    },
    {
      "inputs": [
        {
          "internalType": "uint256",
          "name": "newValue",
          "type": "uint256"
        }
      ],
      "name": "setMemoryValue",
      "outputs": [
        {
          "internalType": "uint256",
          "name": "",
          "type": "uint256"
        }
      ],
      "stateMutability": "pure",
      "type": "function"
    },
    {
      "inputs": [
        {
          "internalType": "uint256",
          "name": "newValue",
          "type": "uint256"
        }
      ],
      "name": "setStorageValue",
      "outputs": [],
      "stateMutability": "nonpayable",
      "type": "function"
    },
    {
      "inputs": [
        {
          "internalType": "uint256",
          "name": "newValue",
          "type": "uint256"
        }
      ],
      "name": "setStorageValueExt",
      "outputs": [],
      "stateMutability": "nonpayable",
      "type": "function"
    },
    {
      "inputs": [
        {
          "internalType": "int256",
          "name": "newValue",
          "type": "int256"
        }
      ],
      "name": "setStorageValueNegative",
      "outputs": [],
      "stateMutability": "nonpayable",
      "type": "function"
    },
    {
      "inputs": [
        {
          "internalType": "string",
          "name": "newString",
          "type": "string"
        }
      ],
      "name": "setString",
      "outputs": [],
      "stateMutability": "nonpayable",
      "type": "function"
    },
    {
      "inputs": [
        {
          "internalType": "string",
          "name": "newString",
          "type": "string"
        }
      ],
      "name": "setStringCalldata",
      "outputs": [],
      "stateMutability": "nonpayable",
      "type": "function"
    },
    {
      "inputs": [
        {
          "internalType": "uint256",
          "name": "value",
          "type": "uint256"
        }
      ],
      "name": "setUintArray",
      "outputs": [],
      "stateMutability": "nonpayable",
      "type": "function"
    },
    {
      "inputs": [
        {
          "internalType": "uint256",
          "name": "idx",
          "type": "uint256"
        },
        {
          "internalType": "uint256",
          "name": "value",
          "type": "uint256"
        }
      ],
      "name": "setUintMap",
      "outputs": [],
      "stateMutability": "nonpayable",
      "type": "function"
    },
    {
      "inputs": [
        {
          "internalType": "uint256",
          "name": "",
          "type": "uint256"
        }
      ],
      "name": "uintArray",
      "outputs": [
        {
          "internalType": "uint256",
          "name": "",
          "type": "uint256"
        }
      ],
      "stateMutability": "view",
      "type": "function"
    },
    {
      "inputs": [
        {
          "internalType": "uint256",
          "name": "",
          "type": "uint256"
        }
      ],
      "name": "uintMap",
      "outputs": [
        {
          "internalType": "uint256",
          "name": "",
          "type": "uint256"
        }
      ],
      "stateMutability": "view",
      "type": "function"
    }
  ],
  "bytecode": "0x608060405234801561001057600080fd5b506000600855610b38806100256000396000f3fe608060405234801561001057600080fd5b50600436106101da5760003560e01c806389ea642f11610104578063a9de99f3116100a2578063dcc25bf011610071578063dcc25bf014610418578063e4c682791461042b578063e6748da91461043e578063ff490b691461045157600080fd5b8063a9de99f314610238578063bd63f507146103ea578063cf608e6b146103fd578063d5b18b7e1461041057600080fd5b806390ad7f54116100de57806390ad7f54146103a957806393861c50146103b157806397cedc76146103c45780639ae918c7146103d757600080fd5b806389ea642f146103605780638c96096f146103755780638dfa3a5a1461039657600080fd5b806347e6cfa41161017c57806377f428d61161014b57806377f428d6146102c15780637973830a146102ea5780637cecbc681461030a5780637fcaf6661461034d57600080fd5b806347e6cfa41461027957806349803b1e146102905780635d1bd9621461029b57806363435466146102ae57600080fd5b80632b8221de116101b85780632b8221de146102385780632c9dc7491461024b5780632d53b3531461026057806338cdccec1461026857600080fd5b80630bcd3b33146101df578063114370a8146101f65780631a5931d614610218575b600080fd5b6004545b6040519081526020015b60405180910390f35b610216610204366004610996565b6000918252600b602052604090912055565b005b6101e3610226366004610847565b600b6020526000908152604090205481565b610216610246366004610847565b600155565b610216610259366004610996565b9004600155565b6007546101e3565b6101e3610276366004610847565b90565b600a5460ff165b60405190151581526020016101ed565b60095460ff16610280565b6101e36102a9366004610847565b610472565b6102806102bc366004610847565b6104a7565b6102167f9aa569ae2e35d886c7a456cc32b7dd7cd61ecbb0f489b03214cbb5255a6e3aa9600755565b6101e36102f8366004610847565b6000908152600b602052604090205490565b610216610318366004610847565b600c80546001810182556000919091527fdf6966c971051c3d54ec59162606531493a51404a002842f56009d7e5cf4a8c70155565b61021661035b3660046108cc565b6104cc565b6103686104e3565b6040516101ed9190610a02565b61021661038336600461082d565b6009805460ff1916911515919091179055565b6102166103a436600461085f565b610575565b6001546101e3565b6102166103bf366004610847565b610586565b6102166103d236600461096b565b6105b8565b6101e36103e5366004610847565b6105dd565b6102166103f8366004610996565b6105fe565b61021661040b366004610847565b600255565b6002546101e3565b610216610426366004610847565b61060f565b610216610439366004610907565b61064f565b61021661044c366004610847565b600455565b61021661045f36600461082d565b600a805460ff1916911515919091179055565b6000600c828154811061049557634e487b7160e01b600052603260045260246000fd5b90600052602060002001549050919050565b600854600090821c60019081169081146104c25760006104c5565b60015b9392505050565b80516104df906003906020840190610684565b5050565b6060600380546104f290610a80565b80601f016020809104026020016040519081016040528092919081815260200182805461051e90610a80565b801561056b5780601f106105405761010080835404028352916020019161056b565b820191906000526020600020905b81548152906001019060200180831161054e57829003601f168201915b5050505050905090565b61058160038383610708565b505050565b6000805b828110156105b15761059d600183610a48565b9150806105a981610abb565b91505061058a565b5060015550565b80156105cd57600880546001841b1790555050565b600880546001841b191690555050565b600c81815481106105ed57600080fd5b600091825260209091200154905081565b6106088183610a60565b6001555050565b60005b818110156106455760016006600082825461062d9190610a48565b9091555081905061063d81610abb565b915050610612565b5050600654600155565b82828260405160200161066493929190610a15565b60408051601f198184030181529190528051602090910120600755505050565b82805461069090610a80565b90600052602060002090601f0160209004810192826106b257600085556106f8565b82601f106106cb57805160ff19168380011785556106f8565b828001600101855582156106f8579182015b828111156106f85782518255916020019190600101906106dd565b5061070492915061077c565b5090565b82805461071490610a80565b90600052602060002090601f01602090048101928261073657600085556106f8565b82601f1061074f5782800160ff198235161785556106f8565b828001600101855582156106f8579182015b828111156106f8578235825591602001919060010190610761565b5b80821115610704576000815560010161077d565b803580151581146107a157600080fd5b919050565b600082601f8301126107b6578081fd5b813567ffffffffffffffff808211156107d1576107d1610aec565b604051601f8301601f19908116603f011681019082821181831017156107f9576107f9610aec565b81604052838152866020858801011115610811578485fd5b8360208701602083013792830160200193909352509392505050565b60006020828403121561083e578081fd5b6104c582610791565b600060208284031215610858578081fd5b5035919050565b60008060208385031215610871578081fd5b823567ffffffffffffffff80821115610888578283fd5b818501915085601f83011261089b578283fd5b8135818111156108a9578384fd5b8660208285010111156108ba578384fd5b60209290920196919550909350505050565b6000602082840312156108dd578081fd5b813567ffffffffffffffff8111156108f3578182fd5b6108ff848285016107a6565b949350505050565b60008060006060848603121561091b578081fd5b833567ffffffffffffffff811115610931578182fd5b61093d868287016107a6565b9350506020840135915060408401356001600160a01b0381168114610960578182fd5b809150509250925092565b6000806040838503121561097d578182fd5b8235915061098d60208401610791565b90509250929050565b600080604083850312156109a8578182fd5b50508035926020909101359150565b60008151808452815b818110156109dc576020818501810151868301820152016109c0565b818111156109ed5782602083870101525b50601f01601f19169290920160200192915050565b6020815260006104c560208301846109b7565b606081526000610a2860608301866109b7565b6020830194909452506001600160a01b0391909116604090910152919050565b60008219821115610a5b57610a5b610ad6565b500190565b600082610a7b57634e487b7160e01b81526012600452602481fd5b500490565b600181811c90821680610a9457607f821691505b60208210811415610ab557634e487b7160e01b600052602260045260246000fd5b50919050565b6000600019821415610acf57610acf610ad6565b5060010190565b634e487b7160e01b600052601160045260246000fd5b634e487b7160e01b600052604160045260246000fdfea26469706673582212208393ec55cdb5c7eb5ebdbd226759fcf8493cb0c34cfb062fde6ca98f404ef96c64736f6c63430008040033",
  "linkReferences": {},
  "deployedLinkReferences": {}
}