{
  "_format": "hh-sol-artifact-1",
  "contractName": "HelloSol",
  "sourceName": "contracts/HelloSol.sol",
  "abi": [
    {
      "inputs": [],
      "name": "doNotUseKeccak256",
      "outputs": [],
      "stateMutability": "nonpayable",
      "type": "function"
    },
    {
      "inputs": [
        {
          "internalType": "uint256",
          "name": "iterations",
          "type": "uint256"
        }
      ],
      "name": "expLoop",
      "outputs": [],
      "stateMutability": "nonpayable",
      "type": "function"
    },
    {
      "inputs": [
        {
          "internalType": "string",
          "name": "_text",
          "type": "string"
        },
        {
          "internalType": "uint256",
          "name": "_num",
          "type": "uint256"
        },
        {
          "internalType": "address",
          "name": "_addr",
          "type": "address"
        }
      ],
      "name": "expUseKeccak256",
      "outputs": [],
      "stateMutability": "nonpayable",
      "type": "function"
    },
    {
      "inputs": [],
      "name": "getBytes",
      "outputs": [
        {
          "internalType": "bytes32",
          "name": "",
          "type": "bytes32"
        }
      ],
      "stateMutability": "view",
      "type": "function"
    },
    {
      "inputs": [],
      "name": "getKeccak256",
      "outputs": [
        {
          "internalType": "bytes32",
          "name": "",
          "type": "bytes32"
        }
      ],
      "stateMutability": "view",
      "type": "function"
    },
    {
      "inputs": [],
      "name": "getStorageValue",
      "outputs": [
        {
          "internalType": "uint256",
          "name": "",
          "type": "uint256"
        }
      ],
      "stateMutability": "view",
      "type": "function"
    },
    {
      "inputs": [],
      "name": "getString",
      "outputs": [
        {
          "internalType": "string",
          "name": "",
          "type": "string"
        }
      ],
      "stateMutability": "view",
      "type": "function"
    },
    {
      "inputs": [
        {
          "internalType": "uint256",
          "name": "iterations",
          "type": "uint256"
        }
      ],
      "name": "optLoop",
      "outputs": [],
      "stateMutability": "nonpayable",
      "type": "function"
    },
    {
      "inputs": [
        {
          "internalType": "bytes32",
          "name": "newBytes",
          "type": "bytes32"
        }
      ],
      "name": "setBytes",
      "outputs": [],
      "stateMutability": "nonpayable",
      "type": "function"
    },
    {
      "inputs": [
        {
          "internalType": "uint256",
          "name": "x",
          "type": "uint256"
        },
        {
          "internalType": "uint256",
          "name": "y",
          "type": "uint256"
        }
      ],
      "name": "setDiv",
      "outputs": [],
      "stateMutability": "nonpayable",
      "type": "function"
    },
    {
      "inputs": [
        {
          "internalType": "uint256",
          "name": "x",
          "type": "uint256"
        },
        {
          "internalType": "uint256",
          "name": "y",
          "type": "uint256"
        }
      ],
      "name": "setDivAsm",
      "outputs": [],
      "stateMutability": "nonpayable",
      "type": "function"
    },
    {
      "inputs": [
        {
          "internalType": "uint256",
          "name": "newValue",
          "type": "uint256"
        }
      ],
      "name": "setMemoryValue",
      "outputs": [
        {
          "internalType": "uint256",
          "name": "",
          "type": "uint256"
        }
      ],
      "stateMutability": "pure",
      "type": "function"
    },
    {
      "inputs": [
        {
          "internalType": "uint256",
          "name": "newValue",
          "type": "uint256"
        }
      ],
      "name": "setStorageValue",
      "outputs": [],
      "stateMutability": "nonpayable",
      "type": "function"
    },
    {
      "inputs": [
        {
          "internalType": "uint256",
          "name": "newValue",
          "type": "uint256"
        }
      ],
      "name": "setStorageValueExt",
      "outputs": [],
      "stateMutability": "nonpayable",
      "type": "function"
    },
    {
      "inputs": [
        {
          "internalType": "string",
          "name": "newString",
          "type": "string"
        }
      ],
      "name": "setString",
      "outputs": [],
      "stateMutability": "nonpayable",
      "type": "function"
    },
    {
      "inputs": [
        {
          "internalType": "string",
          "name": "newString",
          "type": "string"
        }
      ],
      "name": "setStringCalldata",
      "outputs": [],
      "stateMutability": "nonpayable",
      "type": "function"
    }
  ],
  "bytecode": "0x608060405234801561001057600080fd5b506107fd806100206000396000f3fe608060405234801561001057600080fd5b50600436106101005760003560e01c80638dfa3a5a11610097578063bd63f50711610066578063bd63f507146101de578063dcc25bf0146101f1578063e4c6827914610204578063e6748da91461021757600080fd5b80638dfa3a5a146101b057806390ad7f54146101c357806393861c50146101cb578063a9de99f31461011c57600080fd5b806338cdccec116100d357806338cdccec1461014e57806377f428d61461015f5780637fcaf6661461018857806389ea642f1461019b57600080fd5b80630bcd3b33146101055780632b8221de1461011c5780632c9dc749146101315780632d53b35314610146575b600080fd5b6003545b6040519081526020015b60405180910390f35b61012f61012a366004610530565b600155565b005b61012f61013f366004610654565b9004600155565b600654610109565b61010961015c366004610530565b90565b61012f7f9aa569ae2e35d886c7a456cc32b7dd7cd61ecbb0f489b03214cbb5255a6e3aa9600655565b61012f6101963660046105b5565b61022a565b6101a3610241565b60405161011391906106c0565b61012f6101be366004610548565b6102d3565b600154610109565b61012f6101d9366004610530565b6102e4565b61012f6101ec366004610654565b610316565b61012f6101ff366004610530565b610327565b61012f6102123660046105f0565b610367565b61012f610225366004610530565b600355565b805161023d90600290602084019061039c565b5050565b60606002805461025090610745565b80601f016020809104026020016040519081016040528092919081815260200182805461027c90610745565b80156102c95780601f1061029e576101008083540402835291602001916102c9565b820191906000526020600020905b8154815290600101906020018083116102ac57829003601f168201915b5050505050905090565b6102df60028383610420565b505050565b6000805b8281101561030f576102fb60018361070d565b91508061030781610780565b9150506102e8565b5060015550565b6103208183610725565b6001555050565b60005b8181101561035d57600160056000828254610345919061070d565b9091555081905061035581610780565b91505061032a565b5050600554600155565b82828260405160200161037c939291906106da565b60408051601f198184030181529190528051602090910120600655505050565b8280546103a890610745565b90600052602060002090601f0160209004810192826103ca5760008555610410565b82601f106103e357805160ff1916838001178555610410565b82800160010185558215610410579182015b828111156104105782518255916020019190600101906103f5565b5061041c929150610494565b5090565b82805461042c90610745565b90600052602060002090601f01602090048101928261044e5760008555610410565b82601f106104675782800160ff19823516178555610410565b82800160010185558215610410579182015b82811115610410578235825591602001919060010190610479565b5b8082111561041c5760008155600101610495565b600082601f8301126104b9578081fd5b813567ffffffffffffffff808211156104d4576104d46107b1565b604051601f8301601f19908116603f011681019082821181831017156104fc576104fc6107b1565b81604052838152866020858801011115610514578485fd5b8360208701602083013792830160200193909352509392505050565b600060208284031215610541578081fd5b5035919050565b6000806020838503121561055a578081fd5b823567ffffffffffffffff80821115610571578283fd5b818501915085601f830112610584578283fd5b813581811115610592578384fd5b8660208285010111156105a3578384fd5b60209290920196919550909350505050565b6000602082840312156105c6578081fd5b813567ffffffffffffffff8111156105dc578182fd5b6105e8848285016104a9565b949350505050565b600080600060608486031215610604578081fd5b833567ffffffffffffffff81111561061a578182fd5b610626868287016104a9565b9350506020840135915060408401356001600160a01b0381168114610649578182fd5b809150509250925092565b60008060408385031215610666578182fd5b50508035926020909101359150565b60008151808452815b8181101561069a5760208185018101518683018201520161067e565b818111156106ab5782602083870101525b50601f01601f19169290920160200192915050565b6020815260006106d36020830184610675565b9392505050565b6060815260006106ed6060830186610675565b6020830194909452506001600160a01b0391909116604090910152919050565b600082198211156107205761072061079b565b500190565b60008261074057634e487b7160e01b81526012600452602481fd5b500490565b600181811c9082168061075957607f821691505b6020821081141561077a57634e487b7160e01b600052602260045260246000fd5b50919050565b60006000198214156107945761079461079b565b5060010190565b634e487b7160e01b600052601160045260246000fd5b634e487b7160e01b600052604160045260246000fdfea26469706673582212204639eff1f02d963c0ca9ff2688f7975036d94cc398cf16ad774f46099cd5669a64736f6c63430008040033",
  "linkReferences": {},
  "deployedLinkReferences": {}
}